{"abi":[{"type":"function","name":"getDelegate","inputs":[{"name":"delegator","type":"address","internalType":"address"},{"name":"topic","type":"uint256","internalType":"uint256"}],"outputs":[{"name":"","type":"address","internalType":"address"}],"stateMutability":"view"},{"type":"function","name":"setDelegate","inputs":[{"name":"topic","type":"uint256","internalType":"uint256"},{"name":"delegate","type":"address","internalType":"address"}],"outputs":[],"stateMutability":"nonpayable"},{"type":"event","name":"DelegateSet","inputs":[{"name":"delegator","type":"address","indexed":true,"internalType":"address"},{"name":"topic","type":"uint256","indexed":true,"internalType":"uint256"},{"name":"delegate","type":"address","indexed":true,"internalType":"address"}],"anonymous":false}],"bytecode":{"object":"0x608060405234801561000f575f80fd5b5061038a8061001d5f395ff3fe608060405234801561000f575f80fd5b5060043610610034575f3560e01c806394dcf2e6146100385780639c4f95cb14610054575b5f80fd5b610052600480360381019061004d91906102b0565b610084565b005b61006e600480360381019061006991906102ee565b61016c565b60405161007b919061033b565b60405180910390f35b805f803373ffffffffffffffffffffffffffffffffffffffff1673ffffffffffffffffffffffffffffffffffffffff1681526020019081526020015f205f8481526020019081526020015f205f6101000a81548173ffffffffffffffffffffffffffffffffffffffff021916908373ffffffffffffffffffffffffffffffffffffffff1602179055508073ffffffffffffffffffffffffffffffffffffffff16823373ffffffffffffffffffffffffffffffffffffffff167f6d2ff006bbe7d7ed7d45a0f608479ff9ede2cd3f1b876db0b42c9e12e451588660405160405180910390a45050565b5f805f808573ffffffffffffffffffffffffffffffffffffffff1673ffffffffffffffffffffffffffffffffffffffff1681526020019081526020015f205f8481526020019081526020015f205f9054906101000a900473ffffffffffffffffffffffffffffffffffffffff1690505f73ffffffffffffffffffffffffffffffffffffffff168173ffffffffffffffffffffffffffffffffffffffff16146102145780610216565b835b91505092915050565b5f80fd5b5f819050919050565b61023581610223565b811461023f575f80fd5b50565b5f813590506102508161022c565b92915050565b5f73ffffffffffffffffffffffffffffffffffffffff82169050919050565b5f61027f82610256565b9050919050565b61028f81610275565b8114610299575f80fd5b50565b5f813590506102aa81610286565b92915050565b5f80604083850312156102c6576102c561021f565b5b5f6102d385828601610242565b92505060206102e48582860161029c565b9150509250929050565b5f80604083850312156103045761030361021f565b5b5f6103118582860161029c565b925050602061032285828601610242565b9150509250929050565b61033581610275565b82525050565b5f60208201905061034e5f83018461032c565b9291505056fea26469706673582212207c75069ef1e4f73b7004490601683c641f25b8438768b8a0b62d500c4181ce6b64736f6c63430008180033","linkReferences":{}},"methodIdentifiers":{"getDelegate(address,uint256)":"9c4f95cb","setDelegate(uint256,address)":"94dcf2e6"},"id":77}