{"abi":[{"type":"constructor","inputs":[{"name":"_credToken","type":"address","internalType":"address"},{"name":"_aiOracle","type":"address","internalType":"address"},{"name":"_arweave","type":"address","internalType":"address"}],"stateMutability":"nonpayable"},{"type":"function","name":"addVerifierScore","inputs":[{"name":"contentHash","type":"string","internalType":"string"},{"name":"score","type":"uint256","internalType":"uint256"}],"outputs":[],"stateMutability":"nonpayable"},{"type":"function","name":"aiOracle","inputs":[],"outputs":[{"name":"","type":"address","internalType":"contract AIOracle"}],"stateMutability":"view"},{"type":"function","name":"arweave","inputs":[],"outputs":[{"name":"","type":"address","internalType":"contract ArweaveStorage"}],"stateMutability":"view"},{"type":"function","name":"credToken","inputs":[],"outputs":[{"name":"","type":"address","internalType":"contract CRED"}],"stateMutability":"view"},{"type":"function","name":"finalizeVerification","inputs":[{"name":"contentHash","type":"string","internalType":"string"}],"outputs":[],"stateMutability":"nonpayable"},{"type":"function","name":"newsItems","inputs":[{"name":"","type":"string","internalType":"string"}],"outputs":[{"name":"reporter","type":"address","internalType":"address"},{"name":"arweaveHash","type":"string","internalType":"string"},{"name":"status","type":"uint8","internalType":"enum Verification.VerificationStatus"},{"name":"credibilityScore","type":"uint256","internalType":"uint256"}],"stateMutability":"view"},{"type":"function","name":"publishNews","inputs":[{"name":"contentHash","type":"string","internalType":"string"}],"outputs":[],"stateMutability":"nonpayable"},{"type":"function","name":"requestAIVerification","inputs":[{"name":"contentHash","type":"string","internalType":"string"}],"outputs":[],"stateMutability":"nonpayable"},{"type":"event","name":"NewsPublished","inputs":[{"name":"arweaveHash","type":"string","indexed":true,"internalType":"string"},{"name":"reporter","type":"address","indexed":true,"internalType":"address"}],"anonymous":false},{"type":"event","name":"NewsVerified","inputs":[{"name":"arweaveHash","type":"string","indexed":true,"internalType":"string"},{"name":"status","type":"uint8","indexed":false,"internalType":"enum Verification.VerificationStatus"}],"anonymous":false}],"bytecode":{"object":"0x608060405234801562000010575f80fd5b506040516200178c3803806200178c833981810160405281019062000036919062000163565b825f806101000a81548173ffffffffffffffffffffffffffffffffffffffff021916908373ffffffffffffffffffffffffffffffffffffffff1602179055508160015f6101000a81548173ffffffffffffffffffffffffffffffffffffffff021916908373ffffffffffffffffffffffffffffffffffffffff1602179055508060025f6101000a81548173ffffffffffffffffffffffffffffffffffffffff021916908373ffffffffffffffffffffffffffffffffffffffff160217905550505050620001bc565b5f80fd5b5f73ffffffffffffffffffffffffffffffffffffffff82169050919050565b5f6200012d8262000102565b9050919050565b6200013f8162000121565b81146200014a575f80fd5b50565b5f815190506200015d8162000134565b92915050565b5f805f606084860312156200017d576200017c620000fe565b5b5f6200018c868287016200014d565b93505060206200019f868287016200014d565b9250506040620001b2868287016200014d565b9150509250925092565b6115c280620001ca5f395ff3fe608060405234801561000f575f80fd5b5060043610610086575f3560e01c8063af98375311610059578063af983753146100fc578063b85834c31461011a578063c86d25e61461014d578063f4efc9261461016957610086565b8063154e7ed01461008a578063191a9455146100a657806331b221cd146100c25780636396b2ed146100e0575b5f80fd5b6100a4600480360381019061009f9190610c34565b610187565b005b6100c060048036038101906100bb9190610cae565b61043f565b005b6100ca61051d565b6040516100d79190610d82565b60405180910390f35b6100fa60048036038101906100f59190610c34565b610542565b005b61010461078a565b6040516101119190610dbb565b60405180910390f35b610134600480360381019061012f9190610c34565b6107ad565b6040516101449493929190610ef0565b60405180910390f35b61016760048036038101906101629190610c34565b6108a2565b005b6101716109d9565b60405161017e9190610f5a565b60405180910390f35b60025f9054906101000a900473ffffffffffffffffffffffffffffffffffffffff1673ffffffffffffffffffffffffffffffffffffffff16639ae47d8382336040518363ffffffff1660e01b81526004016101e3929190610f73565b5f604051808303815f87803b1580156101fa575f80fd5b505af115801561020c573d5f803e3d5ffd5b505050506040518060c001604052803373ffffffffffffffffffffffffffffffffffffffff1681526020018281526020015f67ffffffffffffffff81111561025757610256610b10565b5b6040519080825280602002602001820160405280156102855781602001602082028036833780820191505090505b5081526020015f67ffffffffffffffff8111156102a5576102a4610b10565b5b6040519080825280602002602001820160405280156102d35781602001602082028036833780820191505090505b5081526020015f60038111156102ec576102eb610e6e565b5b81526020015f8152506003826040516103059190610fdb565b90815260200160405180910390205f820151815f015f6101000a81548173ffffffffffffffffffffffffffffffffffffffff021916908373ffffffffffffffffffffffffffffffffffffffff160217905550602082015181600101908161036c91906111e2565b506040820151816002019080519060200190610389929190610a81565b5060608201518160030190805190602001906103a6929190610a81565b506080820151816004015f6101000a81548160ff021916908360038111156103d1576103d0610e6e565b5b021790555060a082015181600501559050503373ffffffffffffffffffffffffffffffffffffffff16816040516104089190610fdb565b60405180910390207feca087fae5aa1f6433661c7c7cf69252978496ee9ba48fe549238eb23af6ce7560405160405180910390a350565b5f6003836040516104509190610fdb565b908152602001604051809103902090505f73ffffffffffffffffffffffffffffffffffffffff16815f015f9054906101000a900473ffffffffffffffffffffffffffffffffffffffff1673ffffffffffffffffffffffffffffffffffffffff16036104f0576040517f08c379a00000000000000000000000000000000000000000000000000000000081526004016104e7906112fb565b60405180910390fd5b8060030182908060018154018082558091505060019003905f5260205f20015f9091909190915055505050565b60015f9054906101000a900473ffffffffffffffffffffffffffffffffffffffff1681565b5f6003826040516105539190610fdb565b908152602001604051809103902090505f600381111561057657610575610e6e565b5b816004015f9054906101000a900460ff16600381111561059957610598610e6e565b5b146105d9576040517f08c379a00000000000000000000000000000000000000000000000000000000081526004016105d090611363565b60405180910390fd5b5f6106338260030180548060200260200160405190810160405280929190818152602001828054801561062957602002820191905f5260205f20905b815481526020019060010190808311610615575b50505050506109fe565b90505f6106d283600301805490505f8054906101000a900473ffffffffffffffffffffffffffffffffffffffff1673ffffffffffffffffffffffffffffffffffffffff166318160ddd6040518163ffffffff1660e01b8152600401602060405180830381865afa1580156106a9573d5f803e3d5ffd5b505050506040513d601f19601f820116820180604052508101906106cd9190611395565b610a59565b9050670de0b6b3a764000081836106e991906113ed565b6106f3919061145b565b83600501819055506002836004015f6101000a81548160ff0219169083600381111561072257610721610e6e565b5b0217905550836040516107359190610fdb565b60405180910390207f99b4973328cb25d5071d9d5e2578192088da944bb9e62d5b0a892696eec3b63f846004015f9054906101000a900460ff1660405161077c919061148b565b60405180910390a250505050565b5f8054906101000a900473ffffffffffffffffffffffffffffffffffffffff1681565b6003818051602081018201805184825260208301602085012081835280955050505050505f91509050805f015f9054906101000a900473ffffffffffffffffffffffffffffffffffffffff16908060010180546108099061101e565b80601f01602080910402602001604051908101604052809291908181526020018280546108359061101e565b80156108805780601f1061085757610100808354040283529160200191610880565b820191905f5260205f20905b81548152906001019060200180831161086357829003601f168201915b505050505090806004015f9054906101000a900460ff16908060050154905084565b3373ffffffffffffffffffffffffffffffffffffffff166003826040516108c99190610fdb565b90815260200160405180910390205f015f9054906101000a900473ffffffffffffffffffffffffffffffffffffffff1673ffffffffffffffffffffffffffffffffffffffff161461094f576040517f08c379a0000000000000000000000000000000000000000000000000000000008152600401610946906114ee565b60405180910390fd5b60015f9054906101000a900473ffffffffffffffffffffffffffffffffffffffff1673ffffffffffffffffffffffffffffffffffffffff1663586b0855826040518263ffffffff1660e01b81526004016109a9919061150c565b5f604051808303815f87803b1580156109c0575f80fd5b505af11580156109d2573d5f803e3d5ffd5b5050505050565b60025f9054906101000a900473ffffffffffffffffffffffffffffffffffffffff1681565b5f805f90505f5b8351811015610a4357838181518110610a2157610a2061152c565b5b602002602001015182610a349190611559565b91508080600101915050610a05565b50825181610a51919061145b565b915050919050565b5f81670de0b6b3a764000084610a6f91906113ed565b610a79919061145b565b905092915050565b828054828255905f5260205f20908101928215610abb579160200282015b82811115610aba578251825591602001919060010190610a9f565b5b509050610ac89190610acc565b5090565b5b80821115610ae3575f815f905550600101610acd565b5090565b5f604051905090565b5f80fd5b5f80fd5b5f80fd5b5f80fd5b5f601f19601f8301169050919050565b7f4e487b71000000000000000000000000000000000000000000000000000000005f52604160045260245ffd5b610b4682610b00565b810181811067ffffffffffffffff82111715610b6557610b64610b10565b5b80604052505050565b5f610b77610ae7565b9050610b838282610b3d565b919050565b5f67ffffffffffffffff821115610ba257610ba1610b10565b5b610bab82610b00565b9050602081019050919050565b828183375f83830152505050565b5f610bd8610bd384610b88565b610b6e565b905082815260208101848484011115610bf457610bf3610afc565b5b610bff848285610bb8565b509392505050565b5f82601f830112610c1b57610c1a610af8565b5b8135610c2b848260208601610bc6565b91505092915050565b5f60208284031215610c4957610c48610af0565b5b5f82013567ffffffffffffffff811115610c6657610c65610af4565b5b610c7284828501610c07565b91505092915050565b5f819050919050565b610c8d81610c7b565b8114610c97575f80fd5b50565b5f81359050610ca881610c84565b92915050565b5f8060408385031215610cc457610cc3610af0565b5b5f83013567ffffffffffffffff811115610ce157610ce0610af4565b5b610ced85828601610c07565b9250506020610cfe85828601610c9a565b9150509250929050565b5f73ffffffffffffffffffffffffffffffffffffffff82169050919050565b5f819050919050565b5f610d4a610d45610d4084610d08565b610d27565b610d08565b9050919050565b5f610d5b82610d30565b9050919050565b5f610d6c82610d51565b9050919050565b610d7c81610d62565b82525050565b5f602082019050610d955f830184610d73565b92915050565b5f610da582610d51565b9050919050565b610db581610d9b565b82525050565b5f602082019050610dce5f830184610dac565b92915050565b5f610dde82610d08565b9050919050565b610dee81610dd4565b82525050565b5f81519050919050565b5f82825260208201905092915050565b5f5b83811015610e2b578082015181840152602081019050610e10565b5f8484015250505050565b5f610e4082610df4565b610e4a8185610dfe565b9350610e5a818560208601610e0e565b610e6381610b00565b840191505092915050565b7f4e487b71000000000000000000000000000000000000000000000000000000005f52602160045260245ffd5b60048110610eac57610eab610e6e565b5b50565b5f819050610ebc82610e9b565b919050565b5f610ecb82610eaf565b9050919050565b610edb81610ec1565b82525050565b610eea81610c7b565b82525050565b5f608082019050610f035f830187610de5565b8181036020830152610f158186610e36565b9050610f246040830185610ed2565b610f316060830184610ee1565b95945050505050565b5f610f4482610d51565b9050919050565b610f5481610f3a565b82525050565b5f602082019050610f6d5f830184610f4b565b92915050565b5f6040820190508181035f830152610f8b8185610e36565b9050610f9a6020830184610de5565b9392505050565b5f81905092915050565b5f610fb582610df4565b610fbf8185610fa1565b9350610fcf818560208601610e0e565b80840191505092915050565b5f610fe68284610fab565b915081905092915050565b7f4e487b71000000000000000000000000000000000000000000000000000000005f52602260045260245ffd5b5f600282049050600182168061103557607f821691505b60208210810361104857611047610ff1565b5b50919050565b5f819050815f5260205f209050919050565b5f6020601f8301049050919050565b5f82821b905092915050565b5f600883026110aa7fffffffffffffffffffffffffffffffffffffffffffffffffffffffffffffffff8261106f565b6110b4868361106f565b95508019841693508086168417925050509392505050565b5f6110e66110e16110dc84610c7b565b610d27565b610c7b565b9050919050565b5f819050919050565b6110ff836110cc565b61111361110b826110ed565b84845461107b565b825550505050565b5f90565b61112761111b565b6111328184846110f6565b505050565b5b818110156111555761114a5f8261111f565b600181019050611138565b5050565b601f82111561119a5761116b8161104e565b61117484611060565b81016020851015611183578190505b61119761118f85611060565b830182611137565b50505b505050565b5f82821c905092915050565b5f6111ba5f198460080261119f565b1980831691505092915050565b5f6111d283836111ab565b9150826002028217905092915050565b6111eb82610df4565b67ffffffffffffffff81111561120457611203610b10565b5b61120e825461101e565b611219828285611159565b5f60209050601f83116001811461124a575f8415611238578287015190505b61124285826111c7565b8655506112a9565b601f1984166112588661104e565b5f5b8281101561127f5784890151825560018201915060208501945060208101905061125a565b8683101561129c5784890151611298601f8916826111ab565b8355505b6001600288020188555050505b505050505050565b7f4e657773206974656d20646f6573206e6f7420657869737400000000000000005f82015250565b5f6112e5601883610dfe565b91506112f0826112b1565b602082019050919050565b5f6020820190508181035f830152611312816112d9565b9050919050565b7f416c7265616479207665726966696564000000000000000000000000000000005f82015250565b5f61134d601083610dfe565b915061135882611319565b602082019050919050565b5f6020820190508181035f83015261137a81611341565b9050919050565b5f8151905061138f81610c84565b92915050565b5f602082840312156113aa576113a9610af0565b5b5f6113b784828501611381565b91505092915050565b7f4e487b71000000000000000000000000000000000000000000000000000000005f52601160045260245ffd5b5f6113f782610c7b565b915061140283610c7b565b925082820261141081610c7b565b91508282048414831517611427576114266113c0565b5b5092915050565b7f4e487b71000000000000000000000000000000000000000000000000000000005f52601260045260245ffd5b5f61146582610c7b565b915061147083610c7b565b9250826114805761147f61142e565b5b828204905092915050565b5f60208201905061149e5f830184610ed2565b92915050565b7f4e6f74206f776e657200000000000000000000000000000000000000000000005f82015250565b5f6114d8600983610dfe565b91506114e3826114a4565b602082019050919050565b5f6020820190508181035f830152611505816114cc565b9050919050565b5f6020820190508181035f8301526115248184610e36565b905092915050565b7f4e487b71000000000000000000000000000000000000000000000000000000005f52603260045260245ffd5b5f61156382610c7b565b915061156e83610c7b565b9250828201905080821115611586576115856113c0565b5b9291505056fea2646970667358221220eface66ed1aad4ca352ae61aa8892da59e4d1e5dec76e3562c2e503652e346d464736f6c63430008180033","linkReferences":{}},"methodIdentifiers":{"addVerifierScore(string,uint256)":"191a9455","aiOracle()":"31b221cd","arweave()":"f4efc926","credToken()":"af983753","finalizeVerification(string)":"6396b2ed","newsItems(string)":"b85834c3","publishNews(string)":"154e7ed0","requestAIVerification(string)":"c86d25e6"},"id":84}