{"abi":[{"type":"constructor","inputs":[{"name":"_newsToken","type":"address","internalType":"address"},{"name":"_credToken","type":"address","internalType":"address"},{"name":"initialOwner","type":"address","internalType":"address"}],"stateMutability":"nonpayable"},{"type":"function","name":"calculateVoteCost","inputs":[{"name":"votes","type":"uint256","internalType":"uint256"}],"outputs":[{"name":"","type":"uint256","internalType":"uint256"}],"stateMutability":"pure"},{"type":"function","name":"credToken","inputs":[],"outputs":[{"name":"","type":"address","internalType":"contract CRED"}],"stateMutability":"view"},{"type":"function","name":"getAllStakers","inputs":[],"outputs":[{"name":"","type":"address[]","internalType":"address[]"}],"stateMutability":"view"},{"type":"function","name":"governance","inputs":[],"outputs":[{"name":"","type":"address","internalType":"address"}],"stateMutability":"view"},{"type":"function","name":"newsToken","inputs":[],"outputs":[{"name":"","type":"address","internalType":"contract NEWS"}],"stateMutability":"view"},{"type":"function","name":"owner","inputs":[],"outputs":[{"name":"","type":"address","internalType":"address"}],"stateMutability":"view"},{"type":"function","name":"renounceOwnership","inputs":[],"outputs":[],"stateMutability":"nonpayable"},{"type":"function","name":"setGovernance","inputs":[{"name":"_governance","type":"address","internalType":"address"}],"outputs":[],"stateMutability":"nonpayable"},{"type":"function","name":"slash","inputs":[{"name":"user","type":"address","internalType":"address"},{"name":"amount","type":"uint256","internalType":"uint256"}],"outputs":[],"stateMutability":"nonpayable"},{"type":"function","name":"stake","inputs":[{"name":"amount","type":"uint256","internalType":"uint256"}],"outputs":[],"stateMutability":"nonpayable"},{"type":"function","name":"stakes","inputs":[{"name":"","type":"address","internalType":"address"}],"outputs":[{"name":"amount","type":"uint256","internalType":"uint256"},{"name":"stakedAt","type":"uint256","internalType":"uint256"}],"stateMutability":"view"},{"type":"function","name":"transferOwnership","inputs":[{"name":"newOwner","type":"address","internalType":"address"}],"outputs":[],"stateMutability":"nonpayable"},{"type":"event","name":"OwnershipTransferred","inputs":[{"name":"previousOwner","type":"address","indexed":true,"internalType":"address"},{"name":"newOwner","type":"address","indexed":true,"internalType":"address"}],"anonymous":false},{"type":"event","name":"Slashed","inputs":[{"name":"user","type":"address","indexed":true,"internalType":"address"},{"name":"amount","type":"uint256","indexed":false,"internalType":"uint256"}],"anonymous":false},{"type":"event","name":"Staked","inputs":[{"name":"user","type":"address","indexed":true,"internalType":"address"},{"name":"amount","type":"uint256","indexed":false,"internalType":"uint256"}],"anonymous":false},{"type":"error","name":"OwnableInvalidOwner","inputs":[{"name":"owner","type":"address","internalType":"address"}]},{"type":"error","name":"OwnableUnauthorizedAccount","inputs":[{"name":"account","type":"address","internalType":"address"}]}],"bytecode":{"object":"0x60c060405234801562000010575f80fd5b50604051620013de380380620013de833981810160405281019062000036919062000293565b805f73ffffffffffffffffffffffffffffffffffffffff168173ffffffffffffffffffffffffffffffffffffffff1603620000aa575f6040517f1e4fbdf7000000000000000000000000000000000000000000000000000000008152600401620000a19190620002fd565b60405180910390fd5b620000bb816200016d60201b60201c565b508273ffffffffffffffffffffffffffffffffffffffff1660808173ffffffffffffffffffffffffffffffffffffffff16815250508173ffffffffffffffffffffffffffffffffffffffff1660a08173ffffffffffffffffffffffffffffffffffffffff16815250503360015f6101000a81548173ffffffffffffffffffffffffffffffffffffffff021916908373ffffffffffffffffffffffffffffffffffffffff16021790555050505062000318565b5f805f9054906101000a900473ffffffffffffffffffffffffffffffffffffffff169050815f806101000a81548173ffffffffffffffffffffffffffffffffffffffff021916908373ffffffffffffffffffffffffffffffffffffffff1602179055508173ffffffffffffffffffffffffffffffffffffffff168173ffffffffffffffffffffffffffffffffffffffff167f8be0079c531659141344cd1fd0a4f28419497f9722a3daafe3b4186f6b6457e060405160405180910390a35050565b5f80fd5b5f73ffffffffffffffffffffffffffffffffffffffff82169050919050565b5f6200025d8262000232565b9050919050565b6200026f8162000251565b81146200027a575f80fd5b50565b5f815190506200028d8162000264565b92915050565b5f805f60608486031215620002ad57620002ac6200022e565b5b5f620002bc868287016200027d565b9350506020620002cf868287016200027d565b9250506040620002e2868287016200027d565b9150509250925092565b620002f78162000251565b82525050565b5f602082019050620003125f830184620002ec565b92915050565b60805160a051611096620003485f395f6107d401525f818161038f015281816104e301526105e001526110965ff3fe608060405234801561000f575f80fd5b50600436106100b2575f3560e01c80638cf687761161006f5780638cf68776146101675780638da5cb5b14610197578063a694fc3a146101b5578063ab033ea9146101d1578063af983753146101ed578063f2fde38b1461020b576100b2565b806302fb4d85146100b657806316934fc4146100d25780635aa6e675146101035780636025b911146101215780636e4f88c81461013f578063715018a61461015d575b5f80fd5b6100d060048036038101906100cb9190610b61565b610227565b005b6100ec60048036038101906100e79190610b9f565b61049c565b6040516100fa929190610bd9565b60405180910390f35b61010b6104bc565b6040516101189190610c0f565b60405180910390f35b6101296104e1565b6040516101369190610c83565b60405180910390f35b610147610505565b6040516101549190610d53565b60405180910390f35b610165610590565b005b610181600480360381019061017c9190610d73565b6105a3565b60405161018e9190610d9e565b60405180910390f35b61019f6105b7565b6040516101ac9190610c0f565b60405180910390f35b6101cf60048036038101906101ca9190610d73565b6105de565b005b6101eb60048036038101906101e69190610b9f565b610787565b005b6101f56107d2565b6040516102029190610dd7565b60405180910390f35b61022560048036038101906102209190610b9f565b6107f6565b005b60015f9054906101000a900473ffffffffffffffffffffffffffffffffffffffff1673ffffffffffffffffffffffffffffffffffffffff163373ffffffffffffffffffffffffffffffffffffffff16146102b6576040517f08c379a00000000000000000000000000000000000000000000000000000000081526004016102ad90610e4a565b60405180910390fd5b8060025f8473ffffffffffffffffffffffffffffffffffffffff1673ffffffffffffffffffffffffffffffffffffffff1681526020019081526020015f205f01541015610338576040517f08c379a000000000000000000000000000000000000000000000000000000000815260040161032f90610eb2565b60405180910390fd5b8060025f8473ffffffffffffffffffffffffffffffffffffffff1673ffffffffffffffffffffffffffffffffffffffff1681526020019081526020015f205f015f8282546103869190610efd565b925050819055507f000000000000000000000000000000000000000000000000000000000000000073ffffffffffffffffffffffffffffffffffffffff1663a9059cbb60015f9054906101000a900473ffffffffffffffffffffffffffffffffffffffff16836040518363ffffffff1660e01b8152600401610409929190610f30565b6020604051808303815f875af1158015610425573d5f803e3d5ffd5b505050506040513d601f19601f820116820180604052508101906104499190610f8c565b508173ffffffffffffffffffffffffffffffffffffffff167f4ed05e9673c26d2ed44f7ef6a7f2942df0ee3b5e1e17db4b99f9dcd261a339cd826040516104909190610d9e565b60405180910390a25050565b6002602052805f5260405f205f91509050805f0154908060010154905082565b60015f9054906101000a900473ffffffffffffffffffffffffffffffffffffffff1681565b7f000000000000000000000000000000000000000000000000000000000000000081565b6060600380548060200260200160405190810160405280929190818152602001828054801561058657602002820191905f5260205f20905b815f9054906101000a900473ffffffffffffffffffffffffffffffffffffffff1673ffffffffffffffffffffffffffffffffffffffff168152602001906001019080831161053d575b5050505050905090565b61059861087a565b6105a15f610901565b565b5f81826105b09190610fb7565b9050919050565b5f805f9054906101000a900473ffffffffffffffffffffffffffffffffffffffff16905090565b7f000000000000000000000000000000000000000000000000000000000000000073ffffffffffffffffffffffffffffffffffffffff166323b872dd3330846040518463ffffffff1660e01b815260040161063b93929190610ff8565b6020604051808303815f875af1158015610657573d5f803e3d5ffd5b505050506040513d601f19601f8201168201806040525081019061067b9190610f8c565b5060405180604001604052808260025f3373ffffffffffffffffffffffffffffffffffffffff1673ffffffffffffffffffffffffffffffffffffffff1681526020019081526020015f205f01546106d2919061102d565b81526020014281525060025f3373ffffffffffffffffffffffffffffffffffffffff1673ffffffffffffffffffffffffffffffffffffffff1681526020019081526020015f205f820151815f015560208201518160010155905050610736336109c2565b3373ffffffffffffffffffffffffffffffffffffffff167f9e71bc8eea02a63969f509818f2dafb9254532904319f9dbda79b67bd34a5f3d8260405161077c9190610d9e565b60405180910390a250565b61078f61087a565b8060015f6101000a81548173ffffffffffffffffffffffffffffffffffffffff021916908373ffffffffffffffffffffffffffffffffffffffff16021790555050565b7f000000000000000000000000000000000000000000000000000000000000000081565b6107fe61087a565b5f73ffffffffffffffffffffffffffffffffffffffff168173ffffffffffffffffffffffffffffffffffffffff160361086e575f6040517f1e4fbdf70000000000000000000000000000000000000000000000000000000081526004016108659190610c0f565b60405180910390fd5b61087781610901565b50565b610882610ac9565b73ffffffffffffffffffffffffffffffffffffffff166108a06105b7565b73ffffffffffffffffffffffffffffffffffffffff16146108ff576108c3610ac9565b6040517f118cdaa70000000000000000000000000000000000000000000000000000000081526004016108f69190610c0f565b60405180910390fd5b565b5f805f9054906101000a900473ffffffffffffffffffffffffffffffffffffffff169050815f806101000a81548173ffffffffffffffffffffffffffffffffffffffff021916908373ffffffffffffffffffffffffffffffffffffffff1602179055508173ffffffffffffffffffffffffffffffffffffffff168173ffffffffffffffffffffffffffffffffffffffff167f8be0079c531659141344cd1fd0a4f28419497f9722a3daafe3b4186f6b6457e060405160405180910390a35050565b60045f8273ffffffffffffffffffffffffffffffffffffffff1673ffffffffffffffffffffffffffffffffffffffff1681526020019081526020015f205f9054906101000a900460ff16610ac657600381908060018154018082558091505060019003905f5260205f20015f9091909190916101000a81548173ffffffffffffffffffffffffffffffffffffffff021916908373ffffffffffffffffffffffffffffffffffffffff160217905550600160045f8373ffffffffffffffffffffffffffffffffffffffff1673ffffffffffffffffffffffffffffffffffffffff1681526020019081526020015f205f6101000a81548160ff0219169083151502179055505b50565b5f33905090565b5f80fd5b5f73ffffffffffffffffffffffffffffffffffffffff82169050919050565b5f610afd82610ad4565b9050919050565b610b0d81610af3565b8114610b17575f80fd5b50565b5f81359050610b2881610b04565b92915050565b5f819050919050565b610b4081610b2e565b8114610b4a575f80fd5b50565b5f81359050610b5b81610b37565b92915050565b5f8060408385031215610b7757610b76610ad0565b5b5f610b8485828601610b1a565b9250506020610b9585828601610b4d565b9150509250929050565b5f60208284031215610bb457610bb3610ad0565b5b5f610bc184828501610b1a565b91505092915050565b610bd381610b2e565b82525050565b5f604082019050610bec5f830185610bca565b610bf96020830184610bca565b9392505050565b610c0981610af3565b82525050565b5f602082019050610c225f830184610c00565b92915050565b5f819050919050565b5f610c4b610c46610c4184610ad4565b610c28565b610ad4565b9050919050565b5f610c5c82610c31565b9050919050565b5f610c6d82610c52565b9050919050565b610c7d81610c63565b82525050565b5f602082019050610c965f830184610c74565b92915050565b5f81519050919050565b5f82825260208201905092915050565b5f819050602082019050919050565b610cce81610af3565b82525050565b5f610cdf8383610cc5565b60208301905092915050565b5f602082019050919050565b5f610d0182610c9c565b610d0b8185610ca6565b9350610d1683610cb6565b805f5b83811015610d46578151610d2d8882610cd4565b9750610d3883610ceb565b925050600181019050610d19565b5085935050505092915050565b5f6020820190508181035f830152610d6b8184610cf7565b905092915050565b5f60208284031215610d8857610d87610ad0565b5b5f610d9584828501610b4d565b91505092915050565b5f602082019050610db15f830184610bca565b92915050565b5f610dc182610c52565b9050919050565b610dd181610db7565b82525050565b5f602082019050610dea5f830184610dc8565b92915050565b5f82825260208201905092915050565b7f556e617574686f72697a656400000000000000000000000000000000000000005f82015250565b5f610e34600c83610df0565b9150610e3f82610e00565b602082019050919050565b5f6020820190508181035f830152610e6181610e28565b9050919050565b7f496e73756666696369656e74207374616b6500000000000000000000000000005f82015250565b5f610e9c601283610df0565b9150610ea782610e68565b602082019050919050565b5f6020820190508181035f830152610ec981610e90565b9050919050565b7f4e487b71000000000000000000000000000000000000000000000000000000005f52601160045260245ffd5b5f610f0782610b2e565b9150610f1283610b2e565b9250828203905081811115610f2a57610f29610ed0565b5b92915050565b5f604082019050610f435f830185610c00565b610f506020830184610bca565b9392505050565b5f8115159050919050565b610f6b81610f57565b8114610f75575f80fd5b50565b5f81519050610f8681610f62565b92915050565b5f60208284031215610fa157610fa0610ad0565b5b5f610fae84828501610f78565b91505092915050565b5f610fc182610b2e565b9150610fcc83610b2e565b9250828202610fda81610b2e565b91508282048414831517610ff157610ff0610ed0565b5b5092915050565b5f60608201905061100b5f830186610c00565b6110186020830185610c00565b6110256040830184610bca565b949350505050565b5f61103782610b2e565b915061104283610b2e565b925082820190508082111561105a57611059610ed0565b5b9291505056fea2646970667358221220b3a78d72e4b18c3b5a9dea8478e067a3f7d61981faf532b1d5a0f5b29768775d64736f6c63430008180033","linkReferences":{}},"methodIdentifiers":{"calculateVoteCost(uint256)":"8cf68776","credToken()":"af983753","getAllStakers()":"6e4f88c8","governance()":"5aa6e675","newsToken()":"6025b911","owner()":"8da5cb5b","renounceOwnership()":"715018a6","setGovernance(address)":"ab033ea9","slash(address,uint256)":"02fb4d85","stake(uint256)":"a694fc3a","stakes(address)":"16934fc4","transferOwnership(address)":"f2fde38b"},"id":79}