{"abi":[{"type":"constructor","inputs":[{"name":"initialOwner","type":"address","internalType":"address"}],"stateMutability":"nonpayable"},{"type":"function","name":"CLOCK_MODE","inputs":[],"outputs":[{"name":"","type":"string","internalType":"string"}],"stateMutability":"view"},{"type":"function","name":"DOMAIN_SEPARATOR","inputs":[],"outputs":[{"name":"","type":"bytes32","internalType":"bytes32"}],"stateMutability":"view"},{"type":"function","name":"allowance","inputs":[{"name":"owner","type":"address","internalType":"address"},{"name":"spender","type":"address","internalType":"address"}],"outputs":[{"name":"","type":"uint256","internalType":"uint256"}],"stateMutability":"view"},{"type":"function","name":"approve","inputs":[{"name":"spender","type":"address","internalType":"address"},{"name":"value","type":"uint256","internalType":"uint256"}],"outputs":[{"name":"","type":"bool","internalType":"bool"}],"stateMutability":"nonpayable"},{"type":"function","name":"balanceOf","inputs":[{"name":"account","type":"address","internalType":"address"}],"outputs":[{"name":"","type":"uint256","internalType":"uint256"}],"stateMutability":"view"},{"type":"function","name":"burn","inputs":[{"name":"value","type":"uint256","internalType":"uint256"}],"outputs":[],"stateMutability":"nonpayable"},{"type":"function","name":"burnFrom","inputs":[{"name":"account","type":"address","internalType":"address"},{"name":"amount","type":"uint256","internalType":"uint256"}],"outputs":[],"stateMutability":"nonpayable"},{"type":"function","name":"checkpoints","inputs":[{"name":"account","type":"address","internalType":"address"},{"name":"pos","type":"uint32","internalType":"uint32"}],"outputs":[{"name":"","type":"tuple","internalType":"struct Checkpoints.Checkpoint208","components":[{"name":"_key","type":"uint48","internalType":"uint48"},{"name":"_value","type":"uint208","internalType":"uint208"}]}],"stateMutability":"view"},{"type":"function","name":"clock","inputs":[],"outputs":[{"name":"","type":"uint48","internalType":"uint48"}],"stateMutability":"view"},{"type":"function","name":"decimals","inputs":[],"outputs":[{"name":"","type":"uint8","internalType":"uint8"}],"stateMutability":"view"},{"type":"function","name":"delegate","inputs":[{"name":"delegatee","type":"address","internalType":"address"}],"outputs":[],"stateMutability":"nonpayable"},{"type":"function","name":"delegateBySig","inputs":[{"name":"delegatee","type":"address","internalType":"address"},{"name":"nonce","type":"uint256","internalType":"uint256"},{"name":"expiry","type":"uint256","internalType":"uint256"},{"name":"v","type":"uint8","internalType":"uint8"},{"name":"r","type":"bytes32","internalType":"bytes32"},{"name":"s","type":"bytes32","internalType":"bytes32"}],"outputs":[],"stateMutability":"nonpayable"},{"type":"function","name":"delegates","inputs":[{"name":"account","type":"address","internalType":"address"}],"outputs":[{"name":"","type":"address","internalType":"address"}],"stateMutability":"view"},{"type":"function","name":"eip712Domain","inputs":[],"outputs":[{"name":"fields","type":"bytes1","internalType":"bytes1"},{"name":"name","type":"string","internalType":"string"},{"name":"version","type":"string","internalType":"string"},{"name":"chainId","type":"uint256","internalType":"uint256"},{"name":"verifyingContract","type":"address","internalType":"address"},{"name":"salt","type":"bytes32","internalType":"bytes32"},{"name":"extensions","type":"uint256[]","internalType":"uint256[]"}],"stateMutability":"view"},{"type":"function","name":"getPastTotalSupply","inputs":[{"name":"timepoint","type":"uint256","internalType":"uint256"}],"outputs":[{"name":"","type":"uint256","internalType":"uint256"}],"stateMutability":"view"},{"type":"function","name":"getPastVotes","inputs":[{"name":"account","type":"address","internalType":"address"},{"name":"timepoint","type":"uint256","internalType":"uint256"}],"outputs":[{"name":"","type":"uint256","internalType":"uint256"}],"stateMutability":"view"},{"type":"function","name":"getVotes","inputs":[{"name":"account","type":"address","internalType":"address"}],"outputs":[{"name":"","type":"uint256","internalType":"uint256"}],"stateMutability":"view"},{"type":"function","name":"mint","inputs":[{"name":"to","type":"address","internalType":"address"},{"name":"amount","type":"uint256","internalType":"uint256"}],"outputs":[],"stateMutability":"nonpayable"},{"type":"function","name":"name","inputs":[],"outputs":[{"name":"","type":"string","internalType":"string"}],"stateMutability":"view"},{"type":"function","name":"nonces","inputs":[{"name":"owner","type":"address","internalType":"address"}],"outputs":[{"name":"","type":"uint256","internalType":"uint256"}],"stateMutability":"view"},{"type":"function","name":"numCheckpoints","inputs":[{"name":"account","type":"address","internalType":"address"}],"outputs":[{"name":"","type":"uint32","internalType":"uint32"}],"stateMutability":"view"},{"type":"function","name":"owner","inputs":[],"outputs":[{"name":"","type":"address","internalType":"address"}],"stateMutability":"view"},{"type":"function","name":"permit","inputs":[{"name":"owner","type":"address","internalType":"address"},{"name":"spender","type":"address","internalType":"address"},{"name":"value","type":"uint256","internalType":"uint256"},{"name":"deadline","type":"uint256","internalType":"uint256"},{"name":"v","type":"uint8","internalType":"uint8"},{"name":"r","type":"bytes32","internalType":"bytes32"},{"name":"s","type":"bytes32","internalType":"bytes32"}],"outputs":[],"stateMutability":"nonpayable"},{"type":"function","name":"renounceOwnership","inputs":[],"outputs":[],"stateMutability":"nonpayable"},{"type":"function","name":"symbol","inputs":[],"outputs":[{"name":"","type":"string","internalType":"string"}],"stateMutability":"view"},{"type":"function","name":"totalSupply","inputs":[],"outputs":[{"name":"","type":"uint256","internalType":"uint256"}],"stateMutability":"view"},{"type":"function","name":"transfer","inputs":[{"name":"to","type":"address","internalType":"address"},{"name":"value","type":"uint256","internalType":"uint256"}],"outputs":[{"name":"","type":"bool","internalType":"bool"}],"stateMutability":"nonpayable"},{"type":"function","name":"transferFrom","inputs":[{"name":"from","type":"address","internalType":"address"},{"name":"to","type":"address","internalType":"address"},{"name":"value","type":"uint256","internalType":"uint256"}],"outputs":[{"name":"","type":"bool","internalType":"bool"}],"stateMutability":"nonpayable"},{"type":"function","name":"transferOwnership","inputs":[{"name":"newOwner","type":"address","internalType":"address"}],"outputs":[],"stateMutability":"nonpayable"},{"type":"event","name":"Approval","inputs":[{"name":"owner","type":"address","indexed":true,"internalType":"address"},{"name":"spender","type":"address","indexed":true,"internalType":"address"},{"name":"value","type":"uint256","indexed":false,"internalType":"uint256"}],"anonymous":false},{"type":"event","name":"DelegateChanged","inputs":[{"name":"delegator","type":"address","indexed":true,"internalType":"address"},{"name":"fromDelegate","type":"address","indexed":true,"internalType":"address"},{"name":"toDelegate","type":"address","indexed":true,"internalType":"address"}],"anonymous":false},{"type":"event","name":"DelegateVotesChanged","inputs":[{"name":"delegate","type":"address","indexed":true,"internalType":"address"},{"name":"previousVotes","type":"uint256","indexed":false,"internalType":"uint256"},{"name":"newVotes","type":"uint256","indexed":false,"internalType":"uint256"}],"anonymous":false},{"type":"event","name":"EIP712DomainChanged","inputs":[],"anonymous":false},{"type":"event","name":"OwnershipTransferred","inputs":[{"name":"previousOwner","type":"address","indexed":true,"internalType":"address"},{"name":"newOwner","type":"address","indexed":true,"internalType":"address"}],"anonymous":false},{"type":"event","name":"Transfer","inputs":[{"name":"from","type":"address","indexed":true,"internalType":"address"},{"name":"to","type":"address","indexed":true,"internalType":"address"},{"name":"value","type":"uint256","indexed":false,"internalType":"uint256"}],"anonymous":false},{"type":"error","name":"CheckpointUnorderedInsertion","inputs":[]},{"type":"error","name":"ECDSAInvalidSignature","inputs":[]},{"type":"error","name":"ECDSAInvalidSignatureLength","inputs":[{"name":"length","type":"uint256","internalType":"uint256"}]},{"type":"error","name":"ECDSAInvalidSignatureS","inputs":[{"name":"s","type":"bytes32","internalType":"bytes32"}]},{"type":"error","name":"ERC20ExceededSafeSupply","inputs":[{"name":"increasedSupply","type":"uint256","internalType":"uint256"},{"name":"cap","type":"uint256","internalType":"uint256"}]},{"type":"error","name":"ERC20InsufficientAllowance","inputs":[{"name":"spender","type":"address","internalType":"address"},{"name":"allowance","type":"uint256","internalType":"uint256"},{"name":"needed","type":"uint256","internalType":"uint256"}]},{"type":"error","name":"ERC20InsufficientBalance","inputs":[{"name":"sender","type":"address","internalType":"address"},{"name":"balance","type":"uint256","internalType":"uint256"},{"name":"needed","type":"uint256","internalType":"uint256"}]},{"type":"error","name":"ERC20InvalidApprover","inputs":[{"name":"approver","type":"address","internalType":"address"}]},{"type":"error","name":"ERC20InvalidReceiver","inputs":[{"name":"receiver","type":"address","internalType":"address"}]},{"type":"error","name":"ERC20InvalidSender","inputs":[{"name":"sender","type":"address","internalType":"address"}]},{"type":"error","name":"ERC20InvalidSpender","inputs":[{"name":"spender","type":"address","internalType":"address"}]},{"type":"error","name":"ERC2612ExpiredSignature","inputs":[{"name":"deadline","type":"uint256","internalType":"uint256"}]},{"type":"error","name":"ERC2612InvalidSigner","inputs":[{"name":"signer","type":"address","internalType":"address"},{"name":"owner","type":"address","internalType":"address"}]},{"type":"error","name":"ERC5805FutureLookup","inputs":[{"name":"timepoint","type":"uint256","internalType":"uint256"},{"name":"clock","type":"uint48","internalType":"uint48"}]},{"type":"error","name":"ERC6372InconsistentClock","inputs":[]},{"type":"error","name":"InvalidAccountNonce","inputs":[{"name":"account","type":"address","internalType":"address"},{"name":"currentNonce","type":"uint256","internalType":"uint256"}]},{"type":"error","name":"InvalidShortString","inputs":[]},{"type":"error","name":"OwnableInvalidOwner","inputs":[{"name":"owner","type":"address","internalType":"address"}]},{"type":"error","name":"OwnableUnauthorizedAccount","inputs":[{"name":"account","type":"address","internalType":"address"}]},{"type":"error","name":"SafeCastOverflowedUintDowncast","inputs":[{"name":"bits","type":"uint8","internalType":"uint8"},{"name":"value","type":"uint256","internalType":"uint256"}]},{"type":"error","name":"StringTooLong","inputs":[{"name":"str","type":"string","internalType":"string"}]},{"type":"error","name":"VotesExpiredSignature","inputs":[{"name":"expiry","type":"uint256","internalType":"uint256"}]}],"bytecode":{"object":"0x61016060405234801562000011575f80fd5b50604051620054dc380380620054dc8339818101604052810190620000379190620011d0565b806040518060400160405280601081526020017f476f6e6f204d6f6e63686f204e65777300000000000000000000000000000000815250806040518060400160405280600181526020017f31000000000000000000000000000000000000000000000000000000000000008152506040518060400160405280601081526020017f476f6e6f204d6f6e63686f204e657773000000000000000000000000000000008152506040518060400160405280600481526020017f4e45575300000000000000000000000000000000000000000000000000000000815250816003908162000122919062001464565b50806004908162000134919062001464565b5050506200014d6005836200029160201b90919060201c565b61012081815250506200016b6006826200029160201b90919060201c565b6101408181525050818051906020012060e08181525050808051906020012061010081815250504660a08181525050620001aa620002e660201b60201c565b608081815250503073ffffffffffffffffffffffffffffffffffffffff1660c08173ffffffffffffffffffffffffffffffffffffffff16815250505050505f73ffffffffffffffffffffffffffffffffffffffff168173ffffffffffffffffffffffffffffffffffffffff16036200025b575f6040517f1e4fbdf700000000000000000000000000000000000000000000000000000000815260040162000252919062001559565b60405180910390fd5b6200026c816200034260201b60201c565b506200028a816a52b7d2dcc80cd2e40000006200040560201b60201c565b5062001a17565b5f602083511015620002b657620002ae836200048f60201b60201c565b9050620002e0565b82620002c883620004f960201b60201c565b5f019081620002d8919062001464565b5060ff5f1b90505b92915050565b5f7f8b73c3c69bb8fe3d512ecc4cf759cc79239f7b179b0ffacaa9a75d522b39400f60e051610100514630604051602001620003279594939291906200159f565b60405160208183030381529060405280519060200120905090565b5f60085f9054906101000a900473ffffffffffffffffffffffffffffffffffffffff1690508160085f6101000a81548173ffffffffffffffffffffffffffffffffffffffff021916908373ffffffffffffffffffffffffffffffffffffffff1602179055508173ffffffffffffffffffffffffffffffffffffffff168173ffffffffffffffffffffffffffffffffffffffff167f8be0079c531659141344cd1fd0a4f28419497f9722a3daafe3b4186f6b6457e060405160405180910390a35050565b5f73ffffffffffffffffffffffffffffffffffffffff168273ffffffffffffffffffffffffffffffffffffffff160362000478575f6040517fec442f050000000000000000000000000000000000000000000000000000000081526004016200046f919062001559565b60405180910390fd5b6200048b5f83836200050260201b60201c565b5050565b5f80829050601f81511115620004de57826040517f305a27a9000000000000000000000000000000000000000000000000000000008152600401620004d5919062001684565b60405180910390fd5b805181620004ec90620016d5565b5f1c175f1b915050919050565b5f819050919050565b620005158383836200051a60201b60201c565b505050565b6200052d838383620005ec60201b60201c565b5f73ffffffffffffffffffffffffffffffffffffffff168373ffffffffffffffffffffffffffffffffffffffff1603620005d4575f620005726200081060201b60201c565b90505f620005856200081960201b60201c565b905080821115620005d15781816040517f1cb15d26000000000000000000000000000000000000000000000000000000008152600401620005c892919062001744565b60405180910390fd5b50505b620005e78383836200083c60201b60201c565b505050565b5f73ffffffffffffffffffffffffffffffffffffffff168373ffffffffffffffffffffffffffffffffffffffff160362000640578060025f8282546200063391906200179c565b9250508190555062000711565b5f805f8573ffffffffffffffffffffffffffffffffffffffff1673ffffffffffffffffffffffffffffffffffffffff1681526020019081526020015f2054905081811015620006cc578381836040517fe450d38c000000000000000000000000000000000000000000000000000000008152600401620006c393929190620017d6565b60405180910390fd5b8181035f808673ffffffffffffffffffffffffffffffffffffffff1673ffffffffffffffffffffffffffffffffffffffff1681526020019081526020015f2081905550505b5f73ffffffffffffffffffffffffffffffffffffffff168273ffffffffffffffffffffffffffffffffffffffff16036200075a578060025f8282540392505081905550620007a4565b805f808473ffffffffffffffffffffffffffffffffffffffff1673ffffffffffffffffffffffffffffffffffffffff1681526020019081526020015f205f82825401925050819055505b8173ffffffffffffffffffffffffffffffffffffffff168373ffffffffffffffffffffffffffffffffffffffff167fddf252ad1be2c89b69c2b068fc378daa952ba7f163c4a11628f55a4df523b3ef8360405162000803919062001811565b60405180910390a3505050565b5f600254905090565b5f79ffffffffffffffffffffffffffffffffffffffffffffffffffff8016905090565b5f73ffffffffffffffffffffffffffffffffffffffff168373ffffffffffffffffffffffffffffffffffffffff1603620008a2576200089f600b6200094060201b62000e9a1762000893846200095760201b60201c565b620009c760201b60201c565b50505b5f73ffffffffffffffffffffffffffffffffffffffff168273ffffffffffffffffffffffffffffffffffffffff1603620009085762000905600b62000a1660201b62000eaf17620008f9846200095760201b60201c565b620009c760201b60201c565b50505b6200093b6200091d8462000a2d60201b60201c565b6200092e8462000a2d60201b60201c565b8362000a9260201b60201c565b505050565b5f81836200094f919062001851565b905092915050565b5f79ffffffffffffffffffffffffffffffffffffffffffffffffffff8016821115620009bf5760d0826040517f6dfcc650000000000000000000000000000000000000000000000000000000008152600401620009b6929190620018f2565b60405180910390fd5b819050919050565b5f8062000a0a620009dd62000d3c60201b60201c565b620009f9620009f28862000d5260201b60201c565b868860201c565b8762000dc060201b9092919060201c565b91509150935093915050565b5f818362000a2591906200191d565b905092915050565b5f60095f8373ffffffffffffffffffffffffffffffffffffffff1673ffffffffffffffffffffffffffffffffffffffff1681526020019081526020015f205f9054906101000a900473ffffffffffffffffffffffffffffffffffffffff169050919050565b8173ffffffffffffffffffffffffffffffffffffffff168373ffffffffffffffffffffffffffffffffffffffff161415801562000ace57505f81115b1562000d37575f73ffffffffffffffffffffffffffffffffffffffff168373ffffffffffffffffffffffffffffffffffffffff161462000c05575f8062000b74600a5f8773ffffffffffffffffffffffffffffffffffffffff1673ffffffffffffffffffffffffffffffffffffffff1681526020019081526020015f2062000a1660201b62000eaf1762000b68866200095760201b60201c565b620009c760201b60201c565b79ffffffffffffffffffffffffffffffffffffffffffffffffffff16915079ffffffffffffffffffffffffffffffffffffffffffffffffffff1691508473ffffffffffffffffffffffffffffffffffffffff167fdec2bacdd2f05b59de34da9b523dff8be42e5e38e818c82fdb0bae774387a724838360405162000bfa92919062001744565b60405180910390a250505b5f73ffffffffffffffffffffffffffffffffffffffff168273ffffffffffffffffffffffffffffffffffffffff161462000d36575f8062000ca5600a5f8673ffffffffffffffffffffffffffffffffffffffff1673ffffffffffffffffffffffffffffffffffffffff1681526020019081526020015f206200094060201b62000e9a1762000c99866200095760201b60201c565b620009c760201b60201c565b79ffffffffffffffffffffffffffffffffffffffffffffffffffff16915079ffffffffffffffffffffffffffffffffffffffffffffffffffff1691508373ffffffffffffffffffffffffffffffffffffffff167fdec2bacdd2f05b59de34da9b523dff8be42e5e38e818c82fdb0bae774387a724838360405162000d2b92919062001744565b60405180910390a250505b5b505050565b5f62000d4d62000de360201b60201c565b905090565b5f80825f018054905090505f811462000db65762000d87835f0160018362000d7b919062001971565b62000dfa60201b60201c565b5f0160069054906101000a900479ffffffffffffffffffffffffffffffffffffffffffffffffffff1662000db8565b5f5b915050919050565b5f8062000dd7855f01858562000e0c60201b60201c565b91509150935093915050565b5f62000df5436200110f60201b60201c565b905090565b5f825f528160205f2001905092915050565b5f805f858054905090505f81111562001027575f62000e408760018462000e34919062001971565b62000dfa60201b60201c565b90505f815f015f9054906101000a900465ffffffffffff1690505f825f0160069054906101000a900479ffffffffffffffffffffffffffffffffffffffffffffffffffff1690508765ffffffffffff168265ffffffffffff16111562000ed2576040517f2520601d00000000000000000000000000000000000000000000000000000000815260040160405180910390fd5b8765ffffffffffff168265ffffffffffff160362000f3e5786835f0160066101000a81548179ffffffffffffffffffffffffffffffffffffffffffffffffffff021916908379ffffffffffffffffffffffffffffffffffffffffffffffffffff16021790555062001017565b8860405180604001604052808a65ffffffffffff1681526020018979ffffffffffffffffffffffffffffffffffffffffffffffffffff16815250908060018154018082558091505060019003905f5260205f20015f909190919091505f820151815f015f6101000a81548165ffffffffffff021916908365ffffffffffff1602179055506020820151815f0160066101000a81548179ffffffffffffffffffffffffffffffffffffffffffffffffffff021916908379ffffffffffffffffffffffffffffffffffffffffffffffffffff16021790555050505b8087955095505050505062001107565b8560405180604001604052808765ffffffffffff1681526020018679ffffffffffffffffffffffffffffffffffffffffffffffffffff16815250908060018154018082558091505060019003905f5260205f20015f909190919091505f820151815f015f6101000a81548165ffffffffffff021916908365ffffffffffff1602179055506020820151815f0160066101000a81548179ffffffffffffffffffffffffffffffffffffffffffffffffffff021916908379ffffffffffffffffffffffffffffffffffffffffffffffffffff16021790555050505f8492509250505b935093915050565b5f65ffffffffffff801682111562001163576030826040517f6dfcc6500000000000000000000000000000000000000000000000000000000081526004016200115a929190620019ec565b60405180910390fd5b819050919050565b5f80fd5b5f73ffffffffffffffffffffffffffffffffffffffff82169050919050565b5f6200119a826200116f565b9050919050565b620011ac816200118e565b8114620011b7575f80fd5b50565b5f81519050620011ca81620011a1565b92915050565b5f60208284031215620011e857620011e76200116b565b5b5f620011f784828501620011ba565b91505092915050565b5f81519050919050565b7f4e487b71000000000000000000000000000000000000000000000000000000005f52604160045260245ffd5b7f4e487b71000000000000000000000000000000000000000000000000000000005f52602260045260245ffd5b5f60028204905060018216806200127c57607f821691505b60208210810362001292576200129162001237565b5b50919050565b5f819050815f5260205f209050919050565b5f6020601f8301049050919050565b5f82821b905092915050565b5f60088302620012f67fffffffffffffffffffffffffffffffffffffffffffffffffffffffffffffffff82620012b9565b620013028683620012b9565b95508019841693508086168417925050509392505050565b5f819050919050565b5f819050919050565b5f6200134c6200134662001340846200131a565b62001323565b6200131a565b9050919050565b5f819050919050565b62001367836200132c565b6200137f620013768262001353565b848454620012c5565b825550505050565b5f90565b6200139562001387565b620013a28184846200135c565b505050565b5b81811015620013c957620013bd5f826200138b565b600181019050620013a8565b5050565b601f8211156200141857620013e28162001298565b620013ed84620012aa565b81016020851015620013fd578190505b620014156200140c85620012aa565b830182620013a7565b50505b505050565b5f82821c905092915050565b5f6200143a5f19846008026200141d565b1980831691505092915050565b5f62001454838362001429565b9150826002028217905092915050565b6200146f8262001200565b67ffffffffffffffff8111156200148b576200148a6200120a565b5b62001497825462001264565b620014a4828285620013cd565b5f60209050601f831160018114620014da575f8415620014c5578287015190505b620014d1858262001447565b86555062001540565b601f198416620014ea8662001298565b5f5b828110156200151357848901518255600182019150602085019450602081019050620014ec565b868310156200153357848901516200152f601f89168262001429565b8355505b6001600288020188555050505b505050505050565b62001553816200118e565b82525050565b5f6020820190506200156e5f83018462001548565b92915050565b5f819050919050565b620015888162001574565b82525050565b62001599816200131a565b82525050565b5f60a082019050620015b45f8301886200157d565b620015c360208301876200157d565b620015d260408301866200157d565b620015e160608301856200158e565b620015f0608083018462001548565b9695505050505050565b5f82825260208201905092915050565b5f5b83811015620016295780820151818401526020810190506200160c565b5f8484015250505050565b5f601f19601f8301169050919050565b5f620016508262001200565b6200165c8185620015fa565b93506200166e8185602086016200160a565b620016798162001634565b840191505092915050565b5f6020820190508181035f8301526200169e818462001644565b905092915050565b5f81519050919050565b5f819050602082019050919050565b5f620016cc825162001574565b80915050919050565b5f620016e182620016a6565b82620016ed84620016b0565b9050620016fa81620016bf565b925060208210156200173d57620017387fffffffffffffffffffffffffffffffffffffffffffffffffffffffffffffffff83602003600802620012b9565b831692505b5050919050565b5f604082019050620017595f8301856200158e565b6200176860208301846200158e565b9392505050565b7f4e487b71000000000000000000000000000000000000000000000000000000005f52601160045260245ffd5b5f620017a8826200131a565b9150620017b5836200131a565b9250828201905080821115620017d057620017cf6200176f565b5b92915050565b5f606082019050620017eb5f83018662001548565b620017fa60208301856200158e565b6200180960408301846200158e565b949350505050565b5f602082019050620018265f8301846200158e565b92915050565b5f79ffffffffffffffffffffffffffffffffffffffffffffffffffff82169050919050565b5f6200185d826200182c565b91506200186a836200182c565b9250828201905079ffffffffffffffffffffffffffffffffffffffffffffffffffff8111156200189f576200189e6200176f565b5b92915050565b5f819050919050565b5f60ff82169050919050565b5f620018da620018d4620018ce84620018a5565b62001323565b620018ae565b9050919050565b620018ec81620018ba565b82525050565b5f604082019050620019075f830185620018e1565b6200191660208301846200158e565b9392505050565b5f62001929826200182c565b915062001936836200182c565b9250828203905079ffffffffffffffffffffffffffffffffffffffffffffffffffff8111156200196b576200196a6200176f565b5b92915050565b5f6200197d826200131a565b91506200198a836200131a565b9250828203905081811115620019a557620019a46200176f565b5b92915050565b5f819050919050565b5f620019d4620019ce620019c884620019ab565b62001323565b620018ae565b9050919050565b620019e681620019b4565b82525050565b5f60408201905062001a015f830185620019db565b62001a1060208301846200158e565b9392505050565b60805160a05160c05160e051610100516101205161014051613a7362001a695f395f61167f01525f61164401525f611a8701525f611a6601525f61106301525f6110b901525f6110e20152613a735ff3fe608060405234801561000f575f80fd5b50600436106101cd575f3560e01c8063715018a61161010257806395d89b41116100a0578063d505accf1161006f578063d505accf1461055b578063dd62ed3e14610577578063f1127ed8146105a7578063f2fde38b146105d7576101cd565b806395d89b41146104c15780639ab24eb0146104df578063a9059cbb1461050f578063c3cda5201461053f576101cd565b806384b0196e116100dc57806384b0196e146104315780638da5cb5b146104555780638e539e8c1461047357806391ddadf4146104a3576101cd565b8063715018a6146103db57806379cc6790146103e55780637ecebe0014610401576101cd565b806340c10f191161016f578063587cde1e11610149578063587cde1e1461032f5780635c19a95c1461035f5780636fcfff451461037b57806370a08231146103ab576101cd565b806340c10f19146102d957806342966c68146102f55780634bf5d7e914610311576101cd565b806323b872dd116101ab57806323b872dd1461023d578063313ce5671461026d5780633644e5151461028b5780633a46b1a8146102a9576101cd565b806306fdde03146101d1578063095ea7b3146101ef57806318160ddd1461021f575b5f80fd5b6101d96105f3565b6040516101e69190612d96565b60405180910390f35b61020960048036038101906102049190612e47565b610683565b6040516102169190612e9f565b60405180910390f35b6102276106a5565b6040516102349190612ec7565b60405180910390f35b61025760048036038101906102529190612ee0565b6106ae565b6040516102649190612e9f565b60405180910390f35b6102756106dc565b6040516102829190612f4b565b60405180910390f35b6102936106e4565b6040516102a09190612f7c565b60405180910390f35b6102c360048036038101906102be9190612e47565b6106f2565b6040516102d09190612ec7565b60405180910390f35b6102f360048036038101906102ee9190612e47565b61076e565b005b61030f600480360381019061030a9190612f95565b610784565b005b610319610798565b6040516103269190612d96565b60405180910390f35b61034960048036038101906103449190612fc0565b61082c565b6040516103569190612ffa565b60405180910390f35b61037960048036038101906103749190612fc0565b610891565b005b61039560048036038101906103909190612fc0565b6108aa565b6040516103a29190613031565b60405180910390f35b6103c560048036038101906103c09190612fc0565b6108bb565b6040516103d29190612ec7565b60405180910390f35b6103e3610900565b005b6103ff60048036038101906103fa9190612e47565b610913565b005b61041b60048036038101906104169190612fc0565b610929565b6040516104289190612ec7565b60405180910390f35b61043961093a565b60405161044c979695949392919061313b565b60405180910390f35b61045d6109df565b60405161046a9190612ffa565b60405180910390f35b61048d60048036038101906104889190612f95565b610a07565b60405161049a9190612ec7565b60405180910390f35b6104ab610a47565b6040516104b891906131dd565b60405180910390f35b6104c9610a55565b6040516104d69190612d96565b60405180910390f35b6104f960048036038101906104f49190612fc0565b610ae5565b6040516105069190612ec7565b60405180910390f35b61052960048036038101906105249190612e47565b610b4e565b6040516105369190612e9f565b60405180910390f35b6105596004803603810190610554919061324a565b610b70565b005b610575600480360381019061057091906132d3565b610c35565b005b610591600480360381019061058c9190613370565b610d7a565b60405161059e9190612ec7565b60405180910390f35b6105c160048036038101906105bc91906133d8565b610dfc565b6040516105ce9190613486565b60405180910390f35b6105f160048036038101906105ec9190612fc0565b610e16565b005b606060038054610602906134cc565b80601f016020809104026020016040519081016040528092919081815260200182805461062e906134cc565b80156106795780601f1061065057610100808354040283529160200191610679565b820191905f5260205f20905b81548152906001019060200180831161065c57829003601f168201915b5050505050905090565b5f8061068d610ec4565b905061069a818585610ecb565b600191505092915050565b5f600254905090565b5f806106b8610ec4565b90506106c5858285610edd565b6106d0858585610f70565b60019150509392505050565b5f6012905090565b5f6106ed611060565b905090565b5f61074a6106ff83611116565b600a5f8673ffffffffffffffffffffffffffffffffffffffff1673ffffffffffffffffffffffffffffffffffffffff1681526020019081526020015f2061118190919063ffffffff16565b79ffffffffffffffffffffffffffffffffffffffffffffffffffff16905092915050565b61077661126e565b61078082826112f5565b5050565b61079561078f610ec4565b82611374565b50565b60606107a26113f3565b65ffffffffffff166107b2610a47565b65ffffffffffff16146107f1576040517f6ff0714000000000000000000000000000000000000000000000000000000000815260040160405180910390fd5b6040518060400160405280601d81526020017f6d6f64653d626c6f636b6e756d6265722666726f6d3d64656661756c74000000815250905090565b5f60095f8373ffffffffffffffffffffffffffffffffffffffff1673ffffffffffffffffffffffffffffffffffffffff1681526020019081526020015f205f9054906101000a900473ffffffffffffffffffffffffffffffffffffffff169050919050565b5f61089a610ec4565b90506108a68183611402565b5050565b5f6108b482611512565b9050919050565b5f805f8373ffffffffffffffffffffffffffffffffffffffff1673ffffffffffffffffffffffffffffffffffffffff1681526020019081526020015f20549050919050565b61090861126e565b6109115f611567565b565b61091b61126e565b6109258282611374565b5050565b5f6109338261162a565b9050919050565b5f6060805f805f606061094b61163b565b610953611676565b46305f801b5f67ffffffffffffffff811115610972576109716134fc565b5b6040519080825280602002602001820160405280156109a05781602001602082028036833780820191505090505b507f0f00000000000000000000000000000000000000000000000000000000000000959493929190965096509650965096509650965090919293949596565b5f60085f9054906101000a900473ffffffffffffffffffffffffffffffffffffffff16905090565b5f610a24610a1483611116565b600b61118190919063ffffffff16565b79ffffffffffffffffffffffffffffffffffffffffffffffffffff169050919050565b5f610a506113f3565b905090565b606060048054610a64906134cc565b80601f0160208091040260200160405190810160405280929190818152602001828054610a90906134cc565b8015610adb5780601f10610ab257610100808354040283529160200191610adb565b820191905f5260205f20905b815481529060010190602001808311610abe57829003601f168201915b5050505050905090565b5f610b2b600a5f8473ffffffffffffffffffffffffffffffffffffffff1673ffffffffffffffffffffffffffffffffffffffff1681526020019081526020015f206116b1565b79ffffffffffffffffffffffffffffffffffffffffffffffffffff169050919050565b5f80610b58610ec4565b9050610b65818585610f70565b600191505092915050565b83421115610bb557836040517f4683af0e000000000000000000000000000000000000000000000000000000008152600401610bac9190612ec7565b60405180910390fd5b5f610c16610c0e7fe48329057bfd03d55e49b547132e39cffd9c1820ad7b9d4c5307691425d15adf898989604051602001610bf39493929190613529565b60405160208183030381529060405280519060200120611713565b85858561172c565b9050610c22818761175a565b610c2c8188611402565b50505050505050565b83421115610c7a57836040517f62791302000000000000000000000000000000000000000000000000000000008152600401610c719190612ec7565b60405180910390fd5b5f7f6e71edae12b1b97f4d1f60370fef10105fa2faae0126114a169c64845d6126c9888888610ca88c6117b1565b89604051602001610cbe9695949392919061356c565b6040516020818303038152906040528051906020012090505f610ce082611713565b90505f610cef8287878761172c565b90508973ffffffffffffffffffffffffffffffffffffffff168173ffffffffffffffffffffffffffffffffffffffff1614610d6357808a6040517f4b800e46000000000000000000000000000000000000000000000000000000008152600401610d5a9291906135cb565b60405180910390fd5b610d6e8a8a8a610ecb565b50505050505050505050565b5f60015f8473ffffffffffffffffffffffffffffffffffffffff1673ffffffffffffffffffffffffffffffffffffffff1681526020019081526020015f205f8373ffffffffffffffffffffffffffffffffffffffff1673ffffffffffffffffffffffffffffffffffffffff1681526020019081526020015f2054905092915050565b610e04612cd0565b610e0e8383611804565b905092915050565b610e1e61126e565b5f73ffffffffffffffffffffffffffffffffffffffff168173ffffffffffffffffffffffffffffffffffffffff1603610e8e575f6040517f1e4fbdf7000000000000000000000000000000000000000000000000000000008152600401610e859190612ffa565b60405180910390fd5b610e9781611567565b50565b5f8183610ea7919061361f565b905092915050565b5f8183610ebc919061366c565b905092915050565b5f33905090565b610ed88383836001611863565b505050565b5f610ee88484610d7a565b90507fffffffffffffffffffffffffffffffffffffffffffffffffffffffffffffffff811015610f6a5781811015610f5b578281836040517ffb8f41b2000000000000000000000000000000000000000000000000000000008152600401610f52939291906136b9565b60405180910390fd5b610f6984848484035f611863565b5b50505050565b5f73ffffffffffffffffffffffffffffffffffffffff168373ffffffffffffffffffffffffffffffffffffffff1603610fe0575f6040517f96c6fd1e000000000000000000000000000000000000000000000000000000008152600401610fd79190612ffa565b60405180910390fd5b5f73ffffffffffffffffffffffffffffffffffffffff168273ffffffffffffffffffffffffffffffffffffffff1603611050575f6040517fec442f050000000000000000000000000000000000000000000000000000000081526004016110479190612ffa565b60405180910390fd5b61105b838383611a32565b505050565b5f7f000000000000000000000000000000000000000000000000000000000000000073ffffffffffffffffffffffffffffffffffffffff163073ffffffffffffffffffffffffffffffffffffffff161480156110db57507f000000000000000000000000000000000000000000000000000000000000000046145b15611108577f00000000000000000000000000000000000000000000000000000000000000009050611113565b611110611a42565b90505b90565b5f80611120610a47565b90508065ffffffffffff1683106111705782816040517fecd3f81e0000000000000000000000000000000000000000000000000000000081526004016111679291906136ee565b60405180910390fd5b61117983611ad7565b915050919050565b5f80835f018054905090505f808290506005831115611202575f6111a484611b30565b846111af9190613715565b90506111bd875f0182611cca565b5f015f9054906101000a900465ffffffffffff1665ffffffffffff168665ffffffffffff1610156111f057809150611200565b6001816111fd9190613748565b92505b505b5f611211875f01878585611cdc565b90505f811461126057611232875f0160018361122d9190613715565b611cca565b5f0160069054906101000a900479ffffffffffffffffffffffffffffffffffffffffffffffffffff16611262565b5f5b94505050505092915050565b611276610ec4565b73ffffffffffffffffffffffffffffffffffffffff166112946109df565b73ffffffffffffffffffffffffffffffffffffffff16146112f3576112b7610ec4565b6040517f118cdaa70000000000000000000000000000000000000000000000000000000081526004016112ea9190612ffa565b60405180910390fd5b565b5f73ffffffffffffffffffffffffffffffffffffffff168273ffffffffffffffffffffffffffffffffffffffff1603611365575f6040517fec442f0500000000000000000000000000000000000000000000000000000000815260040161135c9190612ffa565b60405180910390fd5b6113705f8383611a32565b5050565b5f73ffffffffffffffffffffffffffffffffffffffff168273ffffffffffffffffffffffffffffffffffffffff16036113e4575f6040517f96c6fd1e0000000000000000000000000000000000000000000000000000000081526004016113db9190612ffa565b60405180910390fd5b6113ef825f83611a32565b5050565b5f6113fd43611ad7565b905090565b5f61140c8361082c565b90508160095f8573ffffffffffffffffffffffffffffffffffffffff1673ffffffffffffffffffffffffffffffffffffffff1681526020019081526020015f205f6101000a81548173ffffffffffffffffffffffffffffffffffffffff021916908373ffffffffffffffffffffffffffffffffffffffff1602179055508173ffffffffffffffffffffffffffffffffffffffff168173ffffffffffffffffffffffffffffffffffffffff168473ffffffffffffffffffffffffffffffffffffffff167f3134e8a2e6d97e929a7e54011ea5485d7d196dd5f0ba4d4ef95803e8e3fc257f60405160405180910390a461150d818361150886611d51565b611d62565b505050565b5f61156061155b600a5f8573ffffffffffffffffffffffffffffffffffffffff1673ffffffffffffffffffffffffffffffffffffffff1681526020019081526020015f20611fd2565b611fe1565b9050919050565b5f60085f9054906101000a900473ffffffffffffffffffffffffffffffffffffffff1690508160085f6101000a81548173ffffffffffffffffffffffffffffffffffffffff021916908373ffffffffffffffffffffffffffffffffffffffff1602179055508173ffffffffffffffffffffffffffffffffffffffff168173ffffffffffffffffffffffffffffffffffffffff167f8be0079c531659141344cd1fd0a4f28419497f9722a3daafe3b4186f6b6457e060405160405180910390a35050565b5f61163482612038565b9050919050565b606061167160057f000000000000000000000000000000000000000000000000000000000000000061207e90919063ffffffff16565b905090565b60606116ac60067f000000000000000000000000000000000000000000000000000000000000000061207e90919063ffffffff16565b905090565b5f80825f018054905090505f8114611709576116db835f016001836116d69190613715565b611cca565b5f0160069054906101000a900479ffffffffffffffffffffffffffffffffffffffffffffffffffff1661170b565b5f5b915050919050565b5f61172561171f611060565b8361212b565b9050919050565b5f805f8061173c8888888861216b565b92509250925061174c8282612252565b829350505050949350505050565b5f611764836117b1565b90508082146117ac5782816040517f752d88c00000000000000000000000000000000000000000000000000000000081526004016117a392919061377b565b60405180910390fd5b505050565b5f60075f8373ffffffffffffffffffffffffffffffffffffffff1673ffffffffffffffffffffffffffffffffffffffff1681526020019081526020015f205f815480929190600101919050559050919050565b61180c612cd0565b61185b82600a5f8673ffffffffffffffffffffffffffffffffffffffff1673ffffffffffffffffffffffffffffffffffffffff1681526020019081526020015f206123b490919063ffffffff16565b905092915050565b5f73ffffffffffffffffffffffffffffffffffffffff168473ffffffffffffffffffffffffffffffffffffffff16036118d3575f6040517fe602df050000000000000000000000000000000000000000000000000000000081526004016118ca9190612ffa565b60405180910390fd5b5f73ffffffffffffffffffffffffffffffffffffffff168373ffffffffffffffffffffffffffffffffffffffff1603611943575f6040517f94280d6200000000000000000000000000000000000000000000000000000000815260040161193a9190612ffa565b60405180910390fd5b8160015f8673ffffffffffffffffffffffffffffffffffffffff1673ffffffffffffffffffffffffffffffffffffffff1681526020019081526020015f205f8573ffffffffffffffffffffffffffffffffffffffff1673ffffffffffffffffffffffffffffffffffffffff1681526020019081526020015f20819055508015611a2c578273ffffffffffffffffffffffffffffffffffffffff168473ffffffffffffffffffffffffffffffffffffffff167f8c5be1e5ebec7d5bd14f71427d1e84f3dd0314c0f7b2291e5b200ac8c7c3b92584604051611a239190612ec7565b60405180910390a35b50505050565b611a3d838383612483565b505050565b5f7f8b73c3c69bb8fe3d512ecc4cf759cc79239f7b179b0ffacaa9a75d522b39400f7f00000000000000000000000000000000000000000000000000000000000000007f00000000000000000000000000000000000000000000000000000000000000004630604051602001611abc9594939291906137a2565b60405160208183030381529060405280519060200120905090565b5f65ffffffffffff8016821115611b28576030826040517f6dfcc650000000000000000000000000000000000000000000000000000000008152600401611b1f929190613835565b60405180910390fd5b819050919050565b5f60018211611b4157819050611cc5565b5f8290505f600190507001000000000000000000000000000000008210611b7157608082901c9150604081901b90505b680100000000000000008210611b9057604082901c9150602081901b90505b6401000000008210611bab57602082901c9150601081901b90505b620100008210611bc457601082901c9150600881901b90505b6101008210611bdc57600882901c9150600481901b90505b60108210611bf357600482901c9150600281901b90505b60048210611c0357600181901b90505b600181600302901c90506001818581611c1f57611c1e61385c565b5b048201901c90506001818581611c3857611c3761385c565b5b048201901c90506001818581611c5157611c5061385c565b5b048201901c90506001818581611c6a57611c6961385c565b5b048201901c90506001818581611c8357611c8261385c565b5b048201901c90506001818581611c9c57611c9b61385c565b5b048201901c9050611cbe818581611cb657611cb561385c565b5b048211612531565b8103925050505b919050565b5f825f528160205f2001905092915050565b5f5b81831015611d46575f611cf1848461253c565b90508465ffffffffffff16611d068783611cca565b5f015f9054906101000a900465ffffffffffff1665ffffffffffff161115611d3057809250611d40565b600181611d3d9190613748565b93505b50611cde565b819050949350505050565b5f611d5b826108bb565b9050919050565b8173ffffffffffffffffffffffffffffffffffffffff168373ffffffffffffffffffffffffffffffffffffffff1614158015611d9d57505f81115b15611fcd575f73ffffffffffffffffffffffffffffffffffffffff168373ffffffffffffffffffffffffffffffffffffffff1614611eb7575f80611e28600a5f8773ffffffffffffffffffffffffffffffffffffffff1673ffffffffffffffffffffffffffffffffffffffff1681526020019081526020015f20610eaf611e2386612561565b6125ce565b79ffffffffffffffffffffffffffffffffffffffffffffffffffff16915079ffffffffffffffffffffffffffffffffffffffffffffffffffff1691508473ffffffffffffffffffffffffffffffffffffffff167fdec2bacdd2f05b59de34da9b523dff8be42e5e38e818c82fdb0bae774387a7248383604051611eac929190613889565b60405180910390a250505b5f73ffffffffffffffffffffffffffffffffffffffff168273ffffffffffffffffffffffffffffffffffffffff1614611fcc575f80611f3d600a5f8673ffffffffffffffffffffffffffffffffffffffff1673ffffffffffffffffffffffffffffffffffffffff1681526020019081526020015f20610e9a611f3886612561565b6125ce565b79ffffffffffffffffffffffffffffffffffffffffffffffffffff16915079ffffffffffffffffffffffffffffffffffffffffffffffffffff1691508373ffffffffffffffffffffffffffffffffffffffff167fdec2bacdd2f05b59de34da9b523dff8be42e5e38e818c82fdb0bae774387a7248383604051611fc1929190613889565b60405180910390a250505b5b505050565b5f815f01805490509050919050565b5f63ffffffff8016821115612030576020826040517f6dfcc6500000000000000000000000000000000000000000000000000000000081526004016120279291906138e9565b60405180910390fd5b819050919050565b5f60075f8373ffffffffffffffffffffffffffffffffffffffff1673ffffffffffffffffffffffffffffffffffffffff1681526020019081526020015f20549050919050565b606060ff5f1b831461209a576120938361260d565b9050612125565b8180546120a6906134cc565b80601f01602080910402602001604051908101604052809291908181526020018280546120d2906134cc565b801561211d5780601f106120f45761010080835404028352916020019161211d565b820191905f5260205f20905b81548152906001019060200180831161210057829003601f168201915b505050505090505b92915050565b5f6040517f190100000000000000000000000000000000000000000000000000000000000081528360028201528260228201526042812091505092915050565b5f805f7f7fffffffffffffffffffffffffffffff5d576e7357a4501ddfe92f46681b20a0845f1c11156121a7575f600385925092509250612248565b5f6001888888886040515f81526020016040526040516121ca9493929190613910565b6020604051602081039080840390855afa1580156121ea573d5f803e3d5ffd5b5050506020604051035190505f73ffffffffffffffffffffffffffffffffffffffff168173ffffffffffffffffffffffffffffffffffffffff160361223b575f60015f801b93509350935050612248565b805f805f1b935093509350505b9450945094915050565b5f600381111561226557612264613953565b5b82600381111561227857612277613953565b5b03156123b0576001600381111561229257612291613953565b5b8260038111156122a5576122a4613953565b5b036122dc576040517ff645eedf00000000000000000000000000000000000000000000000000000000815260040160405180910390fd5b600260038111156122f0576122ef613953565b5b82600381111561230357612302613953565b5b0361234757805f1c6040517ffce698f700000000000000000000000000000000000000000000000000000000815260040161233e9190612ec7565b60405180910390fd5b60038081111561235a57612359613953565b5b82600381111561236d5761236c613953565b5b036123af57806040517fd78bce0c0000000000000000000000000000000000000000000000000000000081526004016123a69190612f7c565b60405180910390fd5b5b5050565b6123bc612cd0565b825f018263ffffffff16815481106123d7576123d6613980565b5b905f5260205f20016040518060400160405290815f82015f9054906101000a900465ffffffffffff1665ffffffffffff1665ffffffffffff1681526020015f820160069054906101000a900479ffffffffffffffffffffffffffffffffffffffffffffffffffff1679ffffffffffffffffffffffffffffffffffffffffffffffffffff1679ffffffffffffffffffffffffffffffffffffffffffffffffffff1681525050905092915050565b61248e83838361267f565b5f73ffffffffffffffffffffffffffffffffffffffff168373ffffffffffffffffffffffffffffffffffffffff1603612521575f6124ca6106a5565b90505f6124d5612898565b90508082111561251e5781816040517f1cb15d26000000000000000000000000000000000000000000000000000000008152600401612515929190613889565b60405180910390fd5b50505b61252c8383836128bb565b505050565b5f8115159050919050565b5f600282841861254c91906139ad565b8284166125599190613748565b905092915050565b5f79ffffffffffffffffffffffffffffffffffffffffffffffffffff80168211156125c65760d0826040517f6dfcc6500000000000000000000000000000000000000000000000000000000081526004016125bd929190613a16565b60405180910390fd5b819050919050565b5f806126016125db610a47565b6125f16125e7886116b1565b868863ffffffff16565b876129739092919063ffffffff16565b91509150935093915050565b60605f6126198361298e565b90505f602067ffffffffffffffff811115612637576126366134fc565b5b6040519080825280601f01601f1916602001820160405280156126695781602001600182028036833780820191505090505b5090508181528360208201528092505050919050565b5f73ffffffffffffffffffffffffffffffffffffffff168373ffffffffffffffffffffffffffffffffffffffff16036126cf578060025f8282546126c39190613748565b9250508190555061279d565b5f805f8573ffffffffffffffffffffffffffffffffffffffff1673ffffffffffffffffffffffffffffffffffffffff1681526020019081526020015f2054905081811015612758578381836040517fe450d38c00000000000000000000000000000000000000000000000000000000815260040161274f939291906136b9565b60405180910390fd5b8181035f808673ffffffffffffffffffffffffffffffffffffffff1673ffffffffffffffffffffffffffffffffffffffff1681526020019081526020015f2081905550505b5f73ffffffffffffffffffffffffffffffffffffffff168273ffffffffffffffffffffffffffffffffffffffff16036127e4578060025f828254039250508190555061282e565b805f808473ffffffffffffffffffffffffffffffffffffffff1673ffffffffffffffffffffffffffffffffffffffff1681526020019081526020015f205f82825401925050819055505b8173ffffffffffffffffffffffffffffffffffffffff168373ffffffffffffffffffffffffffffffffffffffff167fddf252ad1be2c89b69c2b068fc378daa952ba7f163c4a11628f55a4df523b3ef8360405161288b9190612ec7565b60405180910390a3505050565b5f79ffffffffffffffffffffffffffffffffffffffffffffffffffff8016905090565b5f73ffffffffffffffffffffffffffffffffffffffff168373ffffffffffffffffffffffffffffffffffffffff160361290757612904600b610e9a6128ff84612561565b6125ce565b50505b5f73ffffffffffffffffffffffffffffffffffffffff168273ffffffffffffffffffffffffffffffffffffffff160361295357612950600b610eaf61294b84612561565b6125ce565b50505b61296e61295f8461082c565b6129688461082c565b83611d62565b505050565b5f80612982855f0185856129dc565b91509150935093915050565b5f8060ff835f1c169050601f8111156129d3576040517fb3512b0c00000000000000000000000000000000000000000000000000000000815260040160405180910390fd5b80915050919050565b5f805f858054905090505f811115612be8575f612a0587600184612a009190613715565b611cca565b90505f815f015f9054906101000a900465ffffffffffff1690505f825f0160069054906101000a900479ffffffffffffffffffffffffffffffffffffffffffffffffffff1690508765ffffffffffff168265ffffffffffff161115612a96576040517f2520601d00000000000000000000000000000000000000000000000000000000815260040160405180910390fd5b8765ffffffffffff168265ffffffffffff1603612b005786835f0160066101000a81548179ffffffffffffffffffffffffffffffffffffffffffffffffffff021916908379ffffffffffffffffffffffffffffffffffffffffffffffffffff160217905550612bd9565b8860405180604001604052808a65ffffffffffff1681526020018979ffffffffffffffffffffffffffffffffffffffffffffffffffff16815250908060018154018082558091505060019003905f5260205f20015f909190919091505f820151815f015f6101000a81548165ffffffffffff021916908365ffffffffffff1602179055506020820151815f0160066101000a81548179ffffffffffffffffffffffffffffffffffffffffffffffffffff021916908379ffffffffffffffffffffffffffffffffffffffffffffffffffff16021790555050505b80879550955050505050612cc8565b8560405180604001604052808765ffffffffffff1681526020018679ffffffffffffffffffffffffffffffffffffffffffffffffffff16815250908060018154018082558091505060019003905f5260205f20015f909190919091505f820151815f015f6101000a81548165ffffffffffff021916908365ffffffffffff1602179055506020820151815f0160066101000a81548179ffffffffffffffffffffffffffffffffffffffffffffffffffff021916908379ffffffffffffffffffffffffffffffffffffffffffffffffffff16021790555050505f8492509250505b935093915050565b60405180604001604052805f65ffffffffffff1681526020015f79ffffffffffffffffffffffffffffffffffffffffffffffffffff1681525090565b5f81519050919050565b5f82825260208201905092915050565b5f5b83811015612d43578082015181840152602081019050612d28565b5f8484015250505050565b5f601f19601f8301169050919050565b5f612d6882612d0c565b612d728185612d16565b9350612d82818560208601612d26565b612d8b81612d4e565b840191505092915050565b5f6020820190508181035f830152612dae8184612d5e565b905092915050565b5f80fd5b5f73ffffffffffffffffffffffffffffffffffffffff82169050919050565b5f612de382612dba565b9050919050565b612df381612dd9565b8114612dfd575f80fd5b50565b5f81359050612e0e81612dea565b92915050565b5f819050919050565b612e2681612e14565b8114612e30575f80fd5b50565b5f81359050612e4181612e1d565b92915050565b5f8060408385031215612e5d57612e5c612db6565b5b5f612e6a85828601612e00565b9250506020612e7b85828601612e33565b9150509250929050565b5f8115159050919050565b612e9981612e85565b82525050565b5f602082019050612eb25f830184612e90565b92915050565b612ec181612e14565b82525050565b5f602082019050612eda5f830184612eb8565b92915050565b5f805f60608486031215612ef757612ef6612db6565b5b5f612f0486828701612e00565b9350506020612f1586828701612e00565b9250506040612f2686828701612e33565b9150509250925092565b5f60ff82169050919050565b612f4581612f30565b82525050565b5f602082019050612f5e5f830184612f3c565b92915050565b5f819050919050565b612f7681612f64565b82525050565b5f602082019050612f8f5f830184612f6d565b92915050565b5f60208284031215612faa57612fa9612db6565b5b5f612fb784828501612e33565b91505092915050565b5f60208284031215612fd557612fd4612db6565b5b5f612fe284828501612e00565b91505092915050565b612ff481612dd9565b82525050565b5f60208201905061300d5f830184612feb565b92915050565b5f63ffffffff82169050919050565b61302b81613013565b82525050565b5f6020820190506130445f830184613022565b92915050565b5f7fff0000000000000000000000000000000000000000000000000000000000000082169050919050565b61307e8161304a565b82525050565b5f81519050919050565b5f82825260208201905092915050565b5f819050602082019050919050565b6130b681612e14565b82525050565b5f6130c783836130ad565b60208301905092915050565b5f602082019050919050565b5f6130e982613084565b6130f3818561308e565b93506130fe8361309e565b805f5b8381101561312e57815161311588826130bc565b9750613120836130d3565b925050600181019050613101565b5085935050505092915050565b5f60e08201905061314e5f83018a613075565b81810360208301526131608189612d5e565b905081810360408301526131748188612d5e565b90506131836060830187612eb8565b6131906080830186612feb565b61319d60a0830185612f6d565b81810360c08301526131af81846130df565b905098975050505050505050565b5f65ffffffffffff82169050919050565b6131d7816131bd565b82525050565b5f6020820190506131f05f8301846131ce565b92915050565b6131ff81612f30565b8114613209575f80fd5b50565b5f8135905061321a816131f6565b92915050565b61322981612f64565b8114613233575f80fd5b50565b5f8135905061324481613220565b92915050565b5f805f805f8060c0878903121561326457613263612db6565b5b5f61327189828a01612e00565b965050602061328289828a01612e33565b955050604061329389828a01612e33565b94505060606132a489828a0161320c565b93505060806132b589828a01613236565b92505060a06132c689828a01613236565b9150509295509295509295565b5f805f805f805f60e0888a0312156132ee576132ed612db6565b5b5f6132fb8a828b01612e00565b975050602061330c8a828b01612e00565b965050604061331d8a828b01612e33565b955050606061332e8a828b01612e33565b945050608061333f8a828b0161320c565b93505060a06133508a828b01613236565b92505060c06133618a828b01613236565b91505092959891949750929550565b5f806040838503121561338657613385612db6565b5b5f61339385828601612e00565b92505060206133a485828601612e00565b9150509250929050565b6133b781613013565b81146133c1575f80fd5b50565b5f813590506133d2816133ae565b92915050565b5f80604083850312156133ee576133ed612db6565b5b5f6133fb85828601612e00565b925050602061340c858286016133c4565b9150509250929050565b61341f816131bd565b82525050565b5f79ffffffffffffffffffffffffffffffffffffffffffffffffffff82169050919050565b61345381613425565b82525050565b604082015f82015161346d5f850182613416565b506020820151613480602085018261344a565b50505050565b5f6040820190506134995f830184613459565b92915050565b7f4e487b71000000000000000000000000000000000000000000000000000000005f52602260045260245ffd5b5f60028204905060018216806134e357607f821691505b6020821081036134f6576134f561349f565b5b50919050565b7f4e487b71000000000000000000000000000000000000000000000000000000005f52604160045260245ffd5b5f60808201905061353c5f830187612f6d565b6135496020830186612feb565b6135566040830185612eb8565b6135636060830184612eb8565b95945050505050565b5f60c08201905061357f5f830189612f6d565b61358c6020830188612feb565b6135996040830187612feb565b6135a66060830186612eb8565b6135b36080830185612eb8565b6135c060a0830184612eb8565b979650505050505050565b5f6040820190506135de5f830185612feb565b6135eb6020830184612feb565b9392505050565b7f4e487b71000000000000000000000000000000000000000000000000000000005f52601160045260245ffd5b5f61362982613425565b915061363483613425565b9250828201905079ffffffffffffffffffffffffffffffffffffffffffffffffffff811115613666576136656135f2565b5b92915050565b5f61367682613425565b915061368183613425565b9250828203905079ffffffffffffffffffffffffffffffffffffffffffffffffffff8111156136b3576136b26135f2565b5b92915050565b5f6060820190506136cc5f830186612feb565b6136d96020830185612eb8565b6136e66040830184612eb8565b949350505050565b5f6040820190506137015f830185612eb8565b61370e60208301846131ce565b9392505050565b5f61371f82612e14565b915061372a83612e14565b9250828203905081811115613742576137416135f2565b5b92915050565b5f61375282612e14565b915061375d83612e14565b9250828201905080821115613775576137746135f2565b5b92915050565b5f60408201905061378e5f830185612feb565b61379b6020830184612eb8565b9392505050565b5f60a0820190506137b55f830188612f6d565b6137c26020830187612f6d565b6137cf6040830186612f6d565b6137dc6060830185612eb8565b6137e96080830184612feb565b9695505050505050565b5f819050919050565b5f819050919050565b5f61381f61381a613815846137f3565b6137fc565b612f30565b9050919050565b61382f81613805565b82525050565b5f6040820190506138485f830185613826565b6138556020830184612eb8565b9392505050565b7f4e487b71000000000000000000000000000000000000000000000000000000005f52601260045260245ffd5b5f60408201905061389c5f830185612eb8565b6138a96020830184612eb8565b9392505050565b5f819050919050565b5f6138d36138ce6138c9846138b0565b6137fc565b612f30565b9050919050565b6138e3816138b9565b82525050565b5f6040820190506138fc5f8301856138da565b6139096020830184612eb8565b9392505050565b5f6080820190506139235f830187612f6d565b6139306020830186612f3c565b61393d6040830185612f6d565b61394a6060830184612f6d565b95945050505050565b7f4e487b71000000000000000000000000000000000000000000000000000000005f52602160045260245ffd5b7f4e487b71000000000000000000000000000000000000000000000000000000005f52603260045260245ffd5b5f6139b782612e14565b91506139c283612e14565b9250826139d2576139d161385c565b5b828204905092915050565b5f819050919050565b5f613a006139fb6139f6846139dd565b6137fc565b612f30565b9050919050565b613a10816139e6565b82525050565b5f604082019050613a295f830185613a07565b613a366020830184612eb8565b939250505056fea26469706673582212200679755b69faad9f8955529b3cfe2f08a20f095c187fb3de059387466cc1485c64736f6c63430008180033","linkReferences":{}},"methodIdentifiers":{"CLOCK_MODE()":"4bf5d7e9","DOMAIN_SEPARATOR()":"3644e515","allowance(address,address)":"dd62ed3e","approve(address,uint256)":"095ea7b3","balanceOf(address)":"70a08231","burn(uint256)":"42966c68","burnFrom(address,uint256)":"79cc6790","checkpoints(address,uint32)":"f1127ed8","clock()":"91ddadf4","decimals()":"313ce567","delegate(address)":"5c19a95c","delegateBySig(address,uint256,uint256,uint8,bytes32,bytes32)":"c3cda520","delegates(address)":"587cde1e","eip712Domain()":"84b0196e","getPastTotalSupply(uint256)":"8e539e8c","getPastVotes(address,uint256)":"3a46b1a8","getVotes(address)":"9ab24eb0","mint(address,uint256)":"40c10f19","name()":"06fdde03","nonces(address)":"7ecebe00","numCheckpoints(address)":"6fcfff45","owner()":"8da5cb5b","permit(address,address,uint256,uint256,uint8,bytes32,bytes32)":"d505accf","renounceOwnership()":"715018a6","symbol()":"95d89b41","totalSupply()":"18160ddd","transfer(address,uint256)":"a9059cbb","transferFrom(address,address,uint256)":"23b872dd","transferOwnership(address)":"f2fde38b"},"id":81}