{"abi":[{"type":"constructor","inputs":[{"name":"initialOwner","type":"address","internalType":"address"}],"stateMutability":"nonpayable"},{"type":"function","name":"CLOCK_MODE","inputs":[],"outputs":[{"name":"","type":"string","internalType":"string"}],"stateMutability":"view"},{"type":"function","name":"DOMAIN_SEPARATOR","inputs":[],"outputs":[{"name":"","type":"bytes32","internalType":"bytes32"}],"stateMutability":"view"},{"type":"function","name":"allowance","inputs":[{"name":"owner","type":"address","internalType":"address"},{"name":"spender","type":"address","internalType":"address"}],"outputs":[{"name":"","type":"uint256","internalType":"uint256"}],"stateMutability":"view"},{"type":"function","name":"approve","inputs":[{"name":"spender","type":"address","internalType":"address"},{"name":"value","type":"uint256","internalType":"uint256"}],"outputs":[{"name":"","type":"bool","internalType":"bool"}],"stateMutability":"nonpayable"},{"type":"function","name":"balanceOf","inputs":[{"name":"account","type":"address","internalType":"address"}],"outputs":[{"name":"","type":"uint256","internalType":"uint256"}],"stateMutability":"view"},{"type":"function","name":"burn","inputs":[{"name":"account","type":"address","internalType":"address"},{"name":"amount","type":"uint256","internalType":"uint256"}],"outputs":[],"stateMutability":"nonpayable"},{"type":"function","name":"checkpoints","inputs":[{"name":"account","type":"address","internalType":"address"},{"name":"pos","type":"uint32","internalType":"uint32"}],"outputs":[{"name":"","type":"tuple","internalType":"struct Checkpoints.Checkpoint208","components":[{"name":"_key","type":"uint48","internalType":"uint48"},{"name":"_value","type":"uint208","internalType":"uint208"}]}],"stateMutability":"view"},{"type":"function","name":"clock","inputs":[],"outputs":[{"name":"","type":"uint48","internalType":"uint48"}],"stateMutability":"view"},{"type":"function","name":"decimals","inputs":[],"outputs":[{"name":"","type":"uint8","internalType":"uint8"}],"stateMutability":"view"},{"type":"function","name":"delegate","inputs":[{"name":"delegatee","type":"address","internalType":"address"}],"outputs":[],"stateMutability":"nonpayable"},{"type":"function","name":"delegateBySig","inputs":[{"name":"delegatee","type":"address","internalType":"address"},{"name":"nonce","type":"uint256","internalType":"uint256"},{"name":"expiry","type":"uint256","internalType":"uint256"},{"name":"v","type":"uint8","internalType":"uint8"},{"name":"r","type":"bytes32","internalType":"bytes32"},{"name":"s","type":"bytes32","internalType":"bytes32"}],"outputs":[],"stateMutability":"nonpayable"},{"type":"function","name":"delegates","inputs":[{"name":"account","type":"address","internalType":"address"}],"outputs":[{"name":"","type":"address","internalType":"address"}],"stateMutability":"view"},{"type":"function","name":"eip712Domain","inputs":[],"outputs":[{"name":"fields","type":"bytes1","internalType":"bytes1"},{"name":"name","type":"string","internalType":"string"},{"name":"version","type":"string","internalType":"string"},{"name":"chainId","type":"uint256","internalType":"uint256"},{"name":"verifyingContract","type":"address","internalType":"address"},{"name":"salt","type":"bytes32","internalType":"bytes32"},{"name":"extensions","type":"uint256[]","internalType":"uint256[]"}],"stateMutability":"view"},{"type":"function","name":"getPastTotalSupply","inputs":[{"name":"timepoint","type":"uint256","internalType":"uint256"}],"outputs":[{"name":"","type":"uint256","internalType":"uint256"}],"stateMutability":"view"},{"type":"function","name":"getPastVotes","inputs":[{"name":"account","type":"address","internalType":"address"},{"name":"timepoint","type":"uint256","internalType":"uint256"}],"outputs":[{"name":"","type":"uint256","internalType":"uint256"}],"stateMutability":"view"},{"type":"function","name":"getVotes","inputs":[{"name":"account","type":"address","internalType":"address"}],"outputs":[{"name":"","type":"uint256","internalType":"uint256"}],"stateMutability":"view"},{"type":"function","name":"mint","inputs":[{"name":"to","type":"address","internalType":"address"},{"name":"amount","type":"uint256","internalType":"uint256"}],"outputs":[],"stateMutability":"nonpayable"},{"type":"function","name":"name","inputs":[],"outputs":[{"name":"","type":"string","internalType":"string"}],"stateMutability":"view"},{"type":"function","name":"nonces","inputs":[{"name":"owner","type":"address","internalType":"address"}],"outputs":[{"name":"","type":"uint256","internalType":"uint256"}],"stateMutability":"view"},{"type":"function","name":"numCheckpoints","inputs":[{"name":"account","type":"address","internalType":"address"}],"outputs":[{"name":"","type":"uint32","internalType":"uint32"}],"stateMutability":"view"},{"type":"function","name":"owner","inputs":[],"outputs":[{"name":"","type":"address","internalType":"address"}],"stateMutability":"view"},{"type":"function","name":"permit","inputs":[{"name":"owner","type":"address","internalType":"address"},{"name":"spender","type":"address","internalType":"address"},{"name":"value","type":"uint256","internalType":"uint256"},{"name":"deadline","type":"uint256","internalType":"uint256"},{"name":"v","type":"uint8","internalType":"uint8"},{"name":"r","type":"bytes32","internalType":"bytes32"},{"name":"s","type":"bytes32","internalType":"bytes32"}],"outputs":[],"stateMutability":"nonpayable"},{"type":"function","name":"renounceOwnership","inputs":[],"outputs":[],"stateMutability":"nonpayable"},{"type":"function","name":"symbol","inputs":[],"outputs":[{"name":"","type":"string","internalType":"string"}],"stateMutability":"view"},{"type":"function","name":"totalSupply","inputs":[],"outputs":[{"name":"","type":"uint256","internalType":"uint256"}],"stateMutability":"view"},{"type":"function","name":"transfer","inputs":[{"name":"to","type":"address","internalType":"address"},{"name":"value","type":"uint256","internalType":"uint256"}],"outputs":[{"name":"","type":"bool","internalType":"bool"}],"stateMutability":"nonpayable"},{"type":"function","name":"transferFrom","inputs":[{"name":"from","type":"address","internalType":"address"},{"name":"to","type":"address","internalType":"address"},{"name":"value","type":"uint256","internalType":"uint256"}],"outputs":[{"name":"","type":"bool","internalType":"bool"}],"stateMutability":"nonpayable"},{"type":"function","name":"transferOwnership","inputs":[{"name":"newOwner","type":"address","internalType":"address"}],"outputs":[],"stateMutability":"nonpayable"},{"type":"event","name":"Approval","inputs":[{"name":"owner","type":"address","indexed":true,"internalType":"address"},{"name":"spender","type":"address","indexed":true,"internalType":"address"},{"name":"value","type":"uint256","indexed":false,"internalType":"uint256"}],"anonymous":false},{"type":"event","name":"DelegateChanged","inputs":[{"name":"delegator","type":"address","indexed":true,"internalType":"address"},{"name":"fromDelegate","type":"address","indexed":true,"internalType":"address"},{"name":"toDelegate","type":"address","indexed":true,"internalType":"address"}],"anonymous":false},{"type":"event","name":"DelegateVotesChanged","inputs":[{"name":"delegate","type":"address","indexed":true,"internalType":"address"},{"name":"previousVotes","type":"uint256","indexed":false,"internalType":"uint256"},{"name":"newVotes","type":"uint256","indexed":false,"internalType":"uint256"}],"anonymous":false},{"type":"event","name":"EIP712DomainChanged","inputs":[],"anonymous":false},{"type":"event","name":"OwnershipTransferred","inputs":[{"name":"previousOwner","type":"address","indexed":true,"internalType":"address"},{"name":"newOwner","type":"address","indexed":true,"internalType":"address"}],"anonymous":false},{"type":"event","name":"Transfer","inputs":[{"name":"from","type":"address","indexed":true,"internalType":"address"},{"name":"to","type":"address","indexed":true,"internalType":"address"},{"name":"value","type":"uint256","indexed":false,"internalType":"uint256"}],"anonymous":false},{"type":"error","name":"CheckpointUnorderedInsertion","inputs":[]},{"type":"error","name":"ECDSAInvalidSignature","inputs":[]},{"type":"error","name":"ECDSAInvalidSignatureLength","inputs":[{"name":"length","type":"uint256","internalType":"uint256"}]},{"type":"error","name":"ECDSAInvalidSignatureS","inputs":[{"name":"s","type":"bytes32","internalType":"bytes32"}]},{"type":"error","name":"ERC20ExceededSafeSupply","inputs":[{"name":"increasedSupply","type":"uint256","internalType":"uint256"},{"name":"cap","type":"uint256","internalType":"uint256"}]},{"type":"error","name":"ERC20InsufficientAllowance","inputs":[{"name":"spender","type":"address","internalType":"address"},{"name":"allowance","type":"uint256","internalType":"uint256"},{"name":"needed","type":"uint256","internalType":"uint256"}]},{"type":"error","name":"ERC20InsufficientBalance","inputs":[{"name":"sender","type":"address","internalType":"address"},{"name":"balance","type":"uint256","internalType":"uint256"},{"name":"needed","type":"uint256","internalType":"uint256"}]},{"type":"error","name":"ERC20InvalidApprover","inputs":[{"name":"approver","type":"address","internalType":"address"}]},{"type":"error","name":"ERC20InvalidReceiver","inputs":[{"name":"receiver","type":"address","internalType":"address"}]},{"type":"error","name":"ERC20InvalidSender","inputs":[{"name":"sender","type":"address","internalType":"address"}]},{"type":"error","name":"ERC20InvalidSpender","inputs":[{"name":"spender","type":"address","internalType":"address"}]},{"type":"error","name":"ERC2612ExpiredSignature","inputs":[{"name":"deadline","type":"uint256","internalType":"uint256"}]},{"type":"error","name":"ERC2612InvalidSigner","inputs":[{"name":"signer","type":"address","internalType":"address"},{"name":"owner","type":"address","internalType":"address"}]},{"type":"error","name":"ERC5805FutureLookup","inputs":[{"name":"timepoint","type":"uint256","internalType":"uint256"},{"name":"clock","type":"uint48","internalType":"uint48"}]},{"type":"error","name":"ERC6372InconsistentClock","inputs":[]},{"type":"error","name":"InvalidAccountNonce","inputs":[{"name":"account","type":"address","internalType":"address"},{"name":"currentNonce","type":"uint256","internalType":"uint256"}]},{"type":"error","name":"InvalidShortString","inputs":[]},{"type":"error","name":"OwnableInvalidOwner","inputs":[{"name":"owner","type":"address","internalType":"address"}]},{"type":"error","name":"OwnableUnauthorizedAccount","inputs":[{"name":"account","type":"address","internalType":"address"}]},{"type":"error","name":"SafeCastOverflowedUintDowncast","inputs":[{"name":"bits","type":"uint8","internalType":"uint8"},{"name":"value","type":"uint256","internalType":"uint256"}]},{"type":"error","name":"StringTooLong","inputs":[{"name":"str","type":"string","internalType":"string"}]},{"type":"error","name":"VotesExpiredSignature","inputs":[{"name":"expiry","type":"uint256","internalType":"uint256"}]}],"bytecode":{"object":"0x61016060405234801562000011575f80fd5b50604051620045f4380380620045f48339818101604052810190620000379190620004c0565b806040518060400160405280601081526020017f476f6e6f204d6f6e63686f204372656400000000000000000000000000000000815250806040518060400160405280600181526020017f31000000000000000000000000000000000000000000000000000000000000008152506040518060400160405280601081526020017f476f6e6f204d6f6e63686f2043726564000000000000000000000000000000008152506040518060400160405280600481526020017f4352454400000000000000000000000000000000000000000000000000000000815250816003908162000122919062000754565b50806004908162000134919062000754565b5050506200014d6005836200027460201b90919060201c565b61012081815250506200016b6006826200027460201b90919060201c565b6101408181525050818051906020012060e08181525050808051906020012061010081815250504660a08181525050620001aa620002c960201b60201c565b608081815250503073ffffffffffffffffffffffffffffffffffffffff1660c08173ffffffffffffffffffffffffffffffffffffffff16815250505050505f73ffffffffffffffffffffffffffffffffffffffff168173ffffffffffffffffffffffffffffffffffffffff16036200025b575f6040517f1e4fbdf700000000000000000000000000000000000000000000000000000000815260040162000252919062000849565b60405180910390fd5b6200026c816200032560201b60201c565b505062000a34565b5f60208351101562000299576200029183620003e860201b60201c565b9050620002c3565b82620002ab836200045260201b60201c565b5f019081620002bb919062000754565b5060ff5f1b90505b92915050565b5f7f8b73c3c69bb8fe3d512ecc4cf759cc79239f7b179b0ffacaa9a75d522b39400f60e0516101005146306040516020016200030a9594939291906200088f565b60405160208183030381529060405280519060200120905090565b5f60085f9054906101000a900473ffffffffffffffffffffffffffffffffffffffff1690508160085f6101000a81548173ffffffffffffffffffffffffffffffffffffffff021916908373ffffffffffffffffffffffffffffffffffffffff1602179055508173ffffffffffffffffffffffffffffffffffffffff168173ffffffffffffffffffffffffffffffffffffffff167f8be0079c531659141344cd1fd0a4f28419497f9722a3daafe3b4186f6b6457e060405160405180910390a35050565b5f80829050601f815111156200043757826040517f305a27a90000000000000000000000000000000000000000000000000000000081526004016200042e919062000974565b60405180910390fd5b8051816200044590620009c5565b5f1c175f1b915050919050565b5f819050919050565b5f80fd5b5f73ffffffffffffffffffffffffffffffffffffffff82169050919050565b5f6200048a826200045f565b9050919050565b6200049c816200047e565b8114620004a7575f80fd5b50565b5f81519050620004ba8162000491565b92915050565b5f60208284031215620004d857620004d76200045b565b5b5f620004e784828501620004aa565b91505092915050565b5f81519050919050565b7f4e487b71000000000000000000000000000000000000000000000000000000005f52604160045260245ffd5b7f4e487b71000000000000000000000000000000000000000000000000000000005f52602260045260245ffd5b5f60028204905060018216806200056c57607f821691505b60208210810362000582576200058162000527565b5b50919050565b5f819050815f5260205f209050919050565b5f6020601f8301049050919050565b5f82821b905092915050565b5f60088302620005e67fffffffffffffffffffffffffffffffffffffffffffffffffffffffffffffffff82620005a9565b620005f28683620005a9565b95508019841693508086168417925050509392505050565b5f819050919050565b5f819050919050565b5f6200063c6200063662000630846200060a565b62000613565b6200060a565b9050919050565b5f819050919050565b62000657836200061c565b6200066f620006668262000643565b848454620005b5565b825550505050565b5f90565b6200068562000677565b620006928184846200064c565b505050565b5b81811015620006b957620006ad5f826200067b565b60018101905062000698565b5050565b601f8211156200070857620006d28162000588565b620006dd846200059a565b81016020851015620006ed578190505b62000705620006fc856200059a565b83018262000697565b50505b505050565b5f82821c905092915050565b5f6200072a5f19846008026200070d565b1980831691505092915050565b5f62000744838362000719565b9150826002028217905092915050565b6200075f82620004f0565b67ffffffffffffffff8111156200077b576200077a620004fa565b5b62000787825462000554565b62000794828285620006bd565b5f60209050601f831160018114620007ca575f8415620007b5578287015190505b620007c1858262000737565b86555062000830565b601f198416620007da8662000588565b5f5b828110156200080357848901518255600182019150602085019450602081019050620007dc565b868310156200082357848901516200081f601f89168262000719565b8355505b6001600288020188555050505b505050505050565b62000843816200047e565b82525050565b5f6020820190506200085e5f83018462000838565b92915050565b5f819050919050565b620008788162000864565b82525050565b62000889816200060a565b82525050565b5f60a082019050620008a45f8301886200086d565b620008b360208301876200086d565b620008c260408301866200086d565b620008d160608301856200087e565b620008e0608083018462000838565b9695505050505050565b5f82825260208201905092915050565b5f5b8381101562000919578082015181840152602081019050620008fc565b5f8484015250505050565b5f601f19601f8301169050919050565b5f6200094082620004f0565b6200094c8185620008ea565b93506200095e818560208601620008fa565b620009698162000924565b840191505092915050565b5f6020820190508181035f8301526200098e818462000934565b905092915050565b5f81519050919050565b5f819050602082019050919050565b5f620009bc825162000864565b80915050919050565b5f620009d18262000996565b82620009dd84620009a0565b9050620009ea81620009af565b9250602082101562000a2d5762000a287fffffffffffffffffffffffffffffffffffffffffffffffffffffffffffffffff83602003600802620005a9565b831692505b5050919050565b60805160a05160c05160e051610100516101205161014051613b6e62000a865f395f61159b01525f61156001525f611aca01525f611aa901525f610ffe01525f61105401525f61107d0152613b6e5ff3fe608060405234801561000f575f80fd5b50600436106101c2575f3560e01c80637ecebe00116100f75780639dc29fac11610095578063d505accf1161006f578063d505accf14610534578063dd62ed3e14610550578063f1127ed814610580578063f2fde38b146105b0576101c2565b80639dc29fac146104cc578063a9059cbb146104e8578063c3cda52014610518576101c2565b80638e539e8c116100d15780638e539e8c1461043057806391ddadf41461046057806395d89b411461047e5780639ab24eb01461049c576101c2565b80637ecebe00146103be57806384b0196e146103ee5780638da5cb5b14610412576101c2565b806340c10f19116101645780635c19a95c1161013e5780635c19a95c146103385780636fcfff451461035457806370a0823114610384578063715018a6146103b4576101c2565b806340c10f19146102ce5780634bf5d7e9146102ea578063587cde1e14610308576101c2565b806323b872dd116101a057806323b872dd14610232578063313ce567146102625780633644e515146102805780633a46b1a81461029e576101c2565b806306fdde03146101c6578063095ea7b3146101e457806318160ddd14610214575b5f80fd5b6101ce6105cc565b6040516101db9190612e03565b60405180910390f35b6101fe60048036038101906101f99190612eb4565b61065c565b60405161020b9190612f0c565b60405180910390f35b61021c61067e565b6040516102299190612f34565b60405180910390f35b61024c60048036038101906102479190612f4d565b610687565b6040516102599190612f0c565b60405180910390f35b61026a6106b5565b6040516102779190612fb8565b60405180910390f35b6102886106bd565b6040516102959190612fe9565b60405180910390f35b6102b860048036038101906102b39190612eb4565b6106cb565b6040516102c59190612f34565b60405180910390f35b6102e860048036038101906102e39190612eb4565b610747565b005b6102f261075d565b6040516102ff9190612e03565b60405180910390f35b610322600480360381019061031d9190613002565b6107f1565b60405161032f919061303c565b60405180910390f35b610352600480360381019061034d9190613002565b610856565b005b61036e60048036038101906103699190613002565b61086f565b60405161037b9190613073565b60405180910390f35b61039e60048036038101906103999190613002565b610880565b6040516103ab9190612f34565b60405180910390f35b6103bc6108c5565b005b6103d860048036038101906103d39190613002565b6108d8565b6040516103e59190612f34565b60405180910390f35b6103f66108e9565b604051610409979695949392919061317d565b60405180910390f35b61041a61098e565b604051610427919061303c565b60405180910390f35b61044a600480360381019061044591906131ff565b6109b6565b6040516104579190612f34565b60405180910390f35b6104686109f6565b604051610475919061324a565b60405180910390f35b610486610a04565b6040516104939190612e03565b60405180910390f35b6104b660048036038101906104b19190613002565b610a94565b6040516104c39190612f34565b60405180910390f35b6104e660048036038101906104e19190612eb4565b610afd565b005b61050260048036038101906104fd9190612eb4565b610b13565b60405161050f9190612f0c565b60405180910390f35b610532600480360381019061052d91906132b7565b610b35565b005b61054e60048036038101906105499190613340565b610bfa565b005b61056a600480360381019061056591906133dd565b610d3f565b6040516105779190612f34565b60405180910390f35b61059a60048036038101906105959190613445565b610dc1565b6040516105a791906134f3565b60405180910390f35b6105ca60048036038101906105c59190613002565b610ddb565b005b6060600380546105db90613539565b80601f016020809104026020016040519081016040528092919081815260200182805461060790613539565b80156106525780601f1061062957610100808354040283529160200191610652565b820191905f5260205f20905b81548152906001019060200180831161063557829003601f168201915b5050505050905090565b5f80610666610e5f565b9050610673818585610e66565b600191505092915050565b5f600254905090565b5f80610691610e5f565b905061069e858285610e78565b6106a9858585610f0b565b60019150509392505050565b5f6012905090565b5f6106c6610ffb565b905090565b5f6107236106d8836110b1565b600a5f8673ffffffffffffffffffffffffffffffffffffffff1673ffffffffffffffffffffffffffffffffffffffff1681526020019081526020015f2061111c90919063ffffffff16565b79ffffffffffffffffffffffffffffffffffffffffffffffffffff16905092915050565b61074f611209565b6107598282611290565b5050565b606061076761130f565b65ffffffffffff166107776109f6565b65ffffffffffff16146107b6576040517f6ff0714000000000000000000000000000000000000000000000000000000000815260040160405180910390fd5b6040518060400160405280601d81526020017f6d6f64653d626c6f636b6e756d6265722666726f6d3d64656661756c74000000815250905090565b5f60095f8373ffffffffffffffffffffffffffffffffffffffff1673ffffffffffffffffffffffffffffffffffffffff1681526020019081526020015f205f9054906101000a900473ffffffffffffffffffffffffffffffffffffffff169050919050565b5f61085f610e5f565b905061086b818361131e565b5050565b5f6108798261142e565b9050919050565b5f805f8373ffffffffffffffffffffffffffffffffffffffff1673ffffffffffffffffffffffffffffffffffffffff1681526020019081526020015f20549050919050565b6108cd611209565b6108d65f611483565b565b5f6108e282611546565b9050919050565b5f6060805f805f60606108fa611557565b610902611592565b46305f801b5f67ffffffffffffffff81111561092157610920613569565b5b60405190808252806020026020018201604052801561094f5781602001602082028036833780820191505090505b507f0f00000000000000000000000000000000000000000000000000000000000000959493929190965096509650965096509650965090919293949596565b5f60085f9054906101000a900473ffffffffffffffffffffffffffffffffffffffff16905090565b5f6109d36109c3836110b1565b600b61111c90919063ffffffff16565b79ffffffffffffffffffffffffffffffffffffffffffffffffffff169050919050565b5f6109ff61130f565b905090565b606060048054610a1390613539565b80601f0160208091040260200160405190810160405280929190818152602001828054610a3f90613539565b8015610a8a5780601f10610a6157610100808354040283529160200191610a8a565b820191905f5260205f20905b815481529060010190602001808311610a6d57829003601f168201915b5050505050905090565b5f610ada600a5f8473ffffffffffffffffffffffffffffffffffffffff1673ffffffffffffffffffffffffffffffffffffffff1681526020019081526020015f206115cd565b79ffffffffffffffffffffffffffffffffffffffffffffffffffff169050919050565b610b05611209565b610b0f828261162f565b5050565b5f80610b1d610e5f565b9050610b2a818585610f0b565b600191505092915050565b83421115610b7a57836040517f4683af0e000000000000000000000000000000000000000000000000000000008152600401610b719190612f34565b60405180910390fd5b5f610bdb610bd37fe48329057bfd03d55e49b547132e39cffd9c1820ad7b9d4c5307691425d15adf898989604051602001610bb89493929190613596565b604051602081830303815290604052805190602001206116ae565b8585856116c7565b9050610be781876116f5565b610bf1818861131e565b50505050505050565b83421115610c3f57836040517f62791302000000000000000000000000000000000000000000000000000000008152600401610c369190612f34565b60405180910390fd5b5f7f6e71edae12b1b97f4d1f60370fef10105fa2faae0126114a169c64845d6126c9888888610c6d8c61174c565b89604051602001610c83969594939291906135d9565b6040516020818303038152906040528051906020012090505f610ca5826116ae565b90505f610cb4828787876116c7565b90508973ffffffffffffffffffffffffffffffffffffffff168173ffffffffffffffffffffffffffffffffffffffff1614610d2857808a6040517f4b800e46000000000000000000000000000000000000000000000000000000008152600401610d1f929190613638565b60405180910390fd5b610d338a8a8a610e66565b50505050505050505050565b5f60015f8473ffffffffffffffffffffffffffffffffffffffff1673ffffffffffffffffffffffffffffffffffffffff1681526020019081526020015f205f8373ffffffffffffffffffffffffffffffffffffffff1673ffffffffffffffffffffffffffffffffffffffff1681526020019081526020015f2054905092915050565b610dc9612d3d565b610dd3838361179f565b905092915050565b610de3611209565b5f73ffffffffffffffffffffffffffffffffffffffff168173ffffffffffffffffffffffffffffffffffffffff1603610e53575f6040517f1e4fbdf7000000000000000000000000000000000000000000000000000000008152600401610e4a919061303c565b60405180910390fd5b610e5c81611483565b50565b5f33905090565b610e7383838360016117fe565b505050565b5f610e838484610d3f565b90507fffffffffffffffffffffffffffffffffffffffffffffffffffffffffffffffff811015610f055781811015610ef6578281836040517ffb8f41b2000000000000000000000000000000000000000000000000000000008152600401610eed9392919061365f565b60405180910390fd5b610f0484848484035f6117fe565b5b50505050565b5f73ffffffffffffffffffffffffffffffffffffffff168373ffffffffffffffffffffffffffffffffffffffff1603610f7b575f6040517f96c6fd1e000000000000000000000000000000000000000000000000000000008152600401610f72919061303c565b60405180910390fd5b5f73ffffffffffffffffffffffffffffffffffffffff168273ffffffffffffffffffffffffffffffffffffffff1603610feb575f6040517fec442f05000000000000000000000000000000000000000000000000000000008152600401610fe2919061303c565b60405180910390fd5b610ff68383836119cd565b505050565b5f7f000000000000000000000000000000000000000000000000000000000000000073ffffffffffffffffffffffffffffffffffffffff163073ffffffffffffffffffffffffffffffffffffffff1614801561107657507f000000000000000000000000000000000000000000000000000000000000000046145b156110a3577f000000000000000000000000000000000000000000000000000000000000000090506110ae565b6110ab611a85565b90505b90565b5f806110bb6109f6565b90508065ffffffffffff16831061110b5782816040517fecd3f81e000000000000000000000000000000000000000000000000000000008152600401611102929190613694565b60405180910390fd5b61111483611b1a565b915050919050565b5f80835f018054905090505f80829050600583111561119d575f61113f84611b73565b8461114a91906136e8565b9050611158875f0182611d0d565b5f015f9054906101000a900465ffffffffffff1665ffffffffffff168665ffffffffffff16101561118b5780915061119b565b600181611198919061371b565b92505b505b5f6111ac875f01878585611d1f565b90505f81146111fb576111cd875f016001836111c891906136e8565b611d0d565b5f0160069054906101000a900479ffffffffffffffffffffffffffffffffffffffffffffffffffff166111fd565b5f5b94505050505092915050565b611211610e5f565b73ffffffffffffffffffffffffffffffffffffffff1661122f61098e565b73ffffffffffffffffffffffffffffffffffffffff161461128e57611252610e5f565b6040517f118cdaa7000000000000000000000000000000000000000000000000000000008152600401611285919061303c565b60405180910390fd5b565b5f73ffffffffffffffffffffffffffffffffffffffff168273ffffffffffffffffffffffffffffffffffffffff1603611300575f6040517fec442f050000000000000000000000000000000000000000000000000000000081526004016112f7919061303c565b60405180910390fd5b61130b5f83836119cd565b5050565b5f61131943611b1a565b905090565b5f611328836107f1565b90508160095f8573ffffffffffffffffffffffffffffffffffffffff1673ffffffffffffffffffffffffffffffffffffffff1681526020019081526020015f205f6101000a81548173ffffffffffffffffffffffffffffffffffffffff021916908373ffffffffffffffffffffffffffffffffffffffff1602179055508173ffffffffffffffffffffffffffffffffffffffff168173ffffffffffffffffffffffffffffffffffffffff168473ffffffffffffffffffffffffffffffffffffffff167f3134e8a2e6d97e929a7e54011ea5485d7d196dd5f0ba4d4ef95803e8e3fc257f60405160405180910390a4611429818361142486611d94565b611da5565b505050565b5f61147c611477600a5f8573ffffffffffffffffffffffffffffffffffffffff1673ffffffffffffffffffffffffffffffffffffffff1681526020019081526020015f20612015565b612024565b9050919050565b5f60085f9054906101000a900473ffffffffffffffffffffffffffffffffffffffff1690508160085f6101000a81548173ffffffffffffffffffffffffffffffffffffffff021916908373ffffffffffffffffffffffffffffffffffffffff1602179055508173ffffffffffffffffffffffffffffffffffffffff168173ffffffffffffffffffffffffffffffffffffffff167f8be0079c531659141344cd1fd0a4f28419497f9722a3daafe3b4186f6b6457e060405160405180910390a35050565b5f6115508261207b565b9050919050565b606061158d60057f00000000000000000000000000000000000000000000000000000000000000006120c190919063ffffffff16565b905090565b60606115c860067f00000000000000000000000000000000000000000000000000000000000000006120c190919063ffffffff16565b905090565b5f80825f018054905090505f8114611625576115f7835f016001836115f291906136e8565b611d0d565b5f0160069054906101000a900479ffffffffffffffffffffffffffffffffffffffffffffffffffff16611627565b5f5b915050919050565b5f73ffffffffffffffffffffffffffffffffffffffff168273ffffffffffffffffffffffffffffffffffffffff160361169f575f6040517f96c6fd1e000000000000000000000000000000000000000000000000000000008152600401611696919061303c565b60405180910390fd5b6116aa825f836119cd565b5050565b5f6116c06116ba610ffb565b8361216e565b9050919050565b5f805f806116d7888888886121ae565b9250925092506116e78282612295565b829350505050949350505050565b5f6116ff8361174c565b90508082146117475782816040517f752d88c000000000000000000000000000000000000000000000000000000000815260040161173e92919061374e565b60405180910390fd5b505050565b5f60075f8373ffffffffffffffffffffffffffffffffffffffff1673ffffffffffffffffffffffffffffffffffffffff1681526020019081526020015f205f815480929190600101919050559050919050565b6117a7612d3d565b6117f682600a5f8673ffffffffffffffffffffffffffffffffffffffff1673ffffffffffffffffffffffffffffffffffffffff1681526020019081526020015f206123f790919063ffffffff16565b905092915050565b5f73ffffffffffffffffffffffffffffffffffffffff168473ffffffffffffffffffffffffffffffffffffffff160361186e575f6040517fe602df05000000000000000000000000000000000000000000000000000000008152600401611865919061303c565b60405180910390fd5b5f73ffffffffffffffffffffffffffffffffffffffff168373ffffffffffffffffffffffffffffffffffffffff16036118de575f6040517f94280d620000000000000000000000000000000000000000000000000000000081526004016118d5919061303c565b60405180910390fd5b8160015f8673ffffffffffffffffffffffffffffffffffffffff1673ffffffffffffffffffffffffffffffffffffffff1681526020019081526020015f205f8573ffffffffffffffffffffffffffffffffffffffff1673ffffffffffffffffffffffffffffffffffffffff1681526020019081526020015f208190555080156119c7578273ffffffffffffffffffffffffffffffffffffffff168473ffffffffffffffffffffffffffffffffffffffff167f8c5be1e5ebec7d5bd14f71427d1e84f3dd0314c0f7b2291e5b200ac8c7c3b925846040516119be9190612f34565b60405180910390a35b50505050565b5f73ffffffffffffffffffffffffffffffffffffffff168373ffffffffffffffffffffffffffffffffffffffff1614158015611a3557505f73ffffffffffffffffffffffffffffffffffffffff168273ffffffffffffffffffffffffffffffffffffffff1614155b15611a75576040517f08c379a0000000000000000000000000000000000000000000000000000000008152600401611a6c906137e5565b60405180910390fd5b611a808383836124c6565b505050565b5f7f8b73c3c69bb8fe3d512ecc4cf759cc79239f7b179b0ffacaa9a75d522b39400f7f00000000000000000000000000000000000000000000000000000000000000007f00000000000000000000000000000000000000000000000000000000000000004630604051602001611aff959493929190613803565b60405160208183030381529060405280519060200120905090565b5f65ffffffffffff8016821115611b6b576030826040517f6dfcc650000000000000000000000000000000000000000000000000000000008152600401611b62929190613896565b60405180910390fd5b819050919050565b5f60018211611b8457819050611d08565b5f8290505f600190507001000000000000000000000000000000008210611bb457608082901c9150604081901b90505b680100000000000000008210611bd357604082901c9150602081901b90505b6401000000008210611bee57602082901c9150601081901b90505b620100008210611c0757601082901c9150600881901b90505b6101008210611c1f57600882901c9150600481901b90505b60108210611c3657600482901c9150600281901b90505b60048210611c4657600181901b90505b600181600302901c90506001818581611c6257611c616138bd565b5b048201901c90506001818581611c7b57611c7a6138bd565b5b048201901c90506001818581611c9457611c936138bd565b5b048201901c90506001818581611cad57611cac6138bd565b5b048201901c90506001818581611cc657611cc56138bd565b5b048201901c90506001818581611cdf57611cde6138bd565b5b048201901c9050611d01818581611cf957611cf86138bd565b5b048211612574565b8103925050505b919050565b5f825f528160205f2001905092915050565b5f5b81831015611d89575f611d34848461257f565b90508465ffffffffffff16611d498783611d0d565b5f015f9054906101000a900465ffffffffffff1665ffffffffffff161115611d7357809250611d83565b600181611d80919061371b565b93505b50611d21565b819050949350505050565b5f611d9e82610880565b9050919050565b8173ffffffffffffffffffffffffffffffffffffffff168373ffffffffffffffffffffffffffffffffffffffff1614158015611de057505f81115b15612010575f73ffffffffffffffffffffffffffffffffffffffff168373ffffffffffffffffffffffffffffffffffffffff1614611efa575f80611e6b600a5f8773ffffffffffffffffffffffffffffffffffffffff1673ffffffffffffffffffffffffffffffffffffffff1681526020019081526020015f206125a4611e66866125b9565b612626565b79ffffffffffffffffffffffffffffffffffffffffffffffffffff16915079ffffffffffffffffffffffffffffffffffffffffffffffffffff1691508473ffffffffffffffffffffffffffffffffffffffff167fdec2bacdd2f05b59de34da9b523dff8be42e5e38e818c82fdb0bae774387a7248383604051611eef9291906138ea565b60405180910390a250505b5f73ffffffffffffffffffffffffffffffffffffffff168273ffffffffffffffffffffffffffffffffffffffff161461200f575f80611f80600a5f8673ffffffffffffffffffffffffffffffffffffffff1673ffffffffffffffffffffffffffffffffffffffff1681526020019081526020015f20612665611f7b866125b9565b612626565b79ffffffffffffffffffffffffffffffffffffffffffffffffffff16915079ffffffffffffffffffffffffffffffffffffffffffffffffffff1691508373ffffffffffffffffffffffffffffffffffffffff167fdec2bacdd2f05b59de34da9b523dff8be42e5e38e818c82fdb0bae774387a72483836040516120049291906138ea565b60405180910390a250505b5b505050565b5f815f01805490509050919050565b5f63ffffffff8016821115612073576020826040517f6dfcc65000000000000000000000000000000000000000000000000000000000815260040161206a92919061394a565b60405180910390fd5b819050919050565b5f60075f8373ffffffffffffffffffffffffffffffffffffffff1673ffffffffffffffffffffffffffffffffffffffff1681526020019081526020015f20549050919050565b606060ff5f1b83146120dd576120d68361267a565b9050612168565b8180546120e990613539565b80601f016020809104026020016040519081016040528092919081815260200182805461211590613539565b80156121605780601f1061213757610100808354040283529160200191612160565b820191905f5260205f20905b81548152906001019060200180831161214357829003601f168201915b505050505090505b92915050565b5f6040517f190100000000000000000000000000000000000000000000000000000000000081528360028201528260228201526042812091505092915050565b5f805f7f7fffffffffffffffffffffffffffffff5d576e7357a4501ddfe92f46681b20a0845f1c11156121ea575f60038592509250925061228b565b5f6001888888886040515f815260200160405260405161220d9493929190613971565b6020604051602081039080840390855afa15801561222d573d5f803e3d5ffd5b5050506020604051035190505f73ffffffffffffffffffffffffffffffffffffffff168173ffffffffffffffffffffffffffffffffffffffff160361227e575f60015f801b9350935093505061228b565b805f805f1b935093509350505b9450945094915050565b5f60038111156122a8576122a76139b4565b5b8260038111156122bb576122ba6139b4565b5b03156123f357600160038111156122d5576122d46139b4565b5b8260038111156122e8576122e76139b4565b5b0361231f576040517ff645eedf00000000000000000000000000000000000000000000000000000000815260040160405180910390fd5b60026003811115612333576123326139b4565b5b826003811115612346576123456139b4565b5b0361238a57805f1c6040517ffce698f70000000000000000000000000000000000000000000000000000000081526004016123819190612f34565b60405180910390fd5b60038081111561239d5761239c6139b4565b5b8260038111156123b0576123af6139b4565b5b036123f257806040517fd78bce0c0000000000000000000000000000000000000000000000000000000081526004016123e99190612fe9565b60405180910390fd5b5b5050565b6123ff612d3d565b825f018263ffffffff168154811061241a576124196139e1565b5b905f5260205f20016040518060400160405290815f82015f9054906101000a900465ffffffffffff1665ffffffffffff1665ffffffffffff1681526020015f820160069054906101000a900479ffffffffffffffffffffffffffffffffffffffffffffffffffff1679ffffffffffffffffffffffffffffffffffffffffffffffffffff1679ffffffffffffffffffffffffffffffffffffffffffffffffffff1681525050905092915050565b6124d18383836126ec565b5f73ffffffffffffffffffffffffffffffffffffffff168373ffffffffffffffffffffffffffffffffffffffff1603612564575f61250d61067e565b90505f612518612905565b9050808211156125615781816040517f1cb15d260000000000000000000000000000000000000000000000000000000081526004016125589291906138ea565b60405180910390fd5b50505b61256f838383612928565b505050565b5f8115159050919050565b5f600282841861258f9190613a0e565b82841661259c919061371b565b905092915050565b5f81836125b19190613a3e565b905092915050565b5f79ffffffffffffffffffffffffffffffffffffffffffffffffffff801682111561261e5760d0826040517f6dfcc650000000000000000000000000000000000000000000000000000000008152600401612615929190613ac4565b60405180910390fd5b819050919050565b5f806126596126336109f6565b61264961263f886115cd565b868863ffffffff16565b876129e09092919063ffffffff16565b91509150935093915050565b5f81836126729190613aeb565b905092915050565b60605f612686836129fb565b90505f602067ffffffffffffffff8111156126a4576126a3613569565b5b6040519080825280601f01601f1916602001820160405280156126d65781602001600182028036833780820191505090505b5090508181528360208201528092505050919050565b5f73ffffffffffffffffffffffffffffffffffffffff168373ffffffffffffffffffffffffffffffffffffffff160361273c578060025f828254612730919061371b565b9250508190555061280a565b5f805f8573ffffffffffffffffffffffffffffffffffffffff1673ffffffffffffffffffffffffffffffffffffffff1681526020019081526020015f20549050818110156127c5578381836040517fe450d38c0000000000000000000000000000000000000000000000000000000081526004016127bc9392919061365f565b60405180910390fd5b8181035f808673ffffffffffffffffffffffffffffffffffffffff1673ffffffffffffffffffffffffffffffffffffffff1681526020019081526020015f2081905550505b5f73ffffffffffffffffffffffffffffffffffffffff168273ffffffffffffffffffffffffffffffffffffffff1603612851578060025f828254039250508190555061289b565b805f808473ffffffffffffffffffffffffffffffffffffffff1673ffffffffffffffffffffffffffffffffffffffff1681526020019081526020015f205f82825401925050819055505b8173ffffffffffffffffffffffffffffffffffffffff168373ffffffffffffffffffffffffffffffffffffffff167fddf252ad1be2c89b69c2b068fc378daa952ba7f163c4a11628f55a4df523b3ef836040516128f89190612f34565b60405180910390a3505050565b5f79ffffffffffffffffffffffffffffffffffffffffffffffffffff8016905090565b5f73ffffffffffffffffffffffffffffffffffffffff168373ffffffffffffffffffffffffffffffffffffffff160361297457612971600b61266561296c846125b9565b612626565b50505b5f73ffffffffffffffffffffffffffffffffffffffff168273ffffffffffffffffffffffffffffffffffffffff16036129c0576129bd600b6125a46129b8846125b9565b612626565b50505b6129db6129cc846107f1565b6129d5846107f1565b83611da5565b505050565b5f806129ef855f018585612a49565b91509150935093915050565b5f8060ff835f1c169050601f811115612a40576040517fb3512b0c00000000000000000000000000000000000000000000000000000000815260040160405180910390fd5b80915050919050565b5f805f858054905090505f811115612c55575f612a7287600184612a6d91906136e8565b611d0d565b90505f815f015f9054906101000a900465ffffffffffff1690505f825f0160069054906101000a900479ffffffffffffffffffffffffffffffffffffffffffffffffffff1690508765ffffffffffff168265ffffffffffff161115612b03576040517f2520601d00000000000000000000000000000000000000000000000000000000815260040160405180910390fd5b8765ffffffffffff168265ffffffffffff1603612b6d5786835f0160066101000a81548179ffffffffffffffffffffffffffffffffffffffffffffffffffff021916908379ffffffffffffffffffffffffffffffffffffffffffffffffffff160217905550612c46565b8860405180604001604052808a65ffffffffffff1681526020018979ffffffffffffffffffffffffffffffffffffffffffffffffffff16815250908060018154018082558091505060019003905f5260205f20015f909190919091505f820151815f015f6101000a81548165ffffffffffff021916908365ffffffffffff1602179055506020820151815f0160066101000a81548179ffffffffffffffffffffffffffffffffffffffffffffffffffff021916908379ffffffffffffffffffffffffffffffffffffffffffffffffffff16021790555050505b80879550955050505050612d35565b8560405180604001604052808765ffffffffffff1681526020018679ffffffffffffffffffffffffffffffffffffffffffffffffffff16815250908060018154018082558091505060019003905f5260205f20015f909190919091505f820151815f015f6101000a81548165ffffffffffff021916908365ffffffffffff1602179055506020820151815f0160066101000a81548179ffffffffffffffffffffffffffffffffffffffffffffffffffff021916908379ffffffffffffffffffffffffffffffffffffffffffffffffffff16021790555050505f8492509250505b935093915050565b60405180604001604052805f65ffffffffffff1681526020015f79ffffffffffffffffffffffffffffffffffffffffffffffffffff1681525090565b5f81519050919050565b5f82825260208201905092915050565b5f5b83811015612db0578082015181840152602081019050612d95565b5f8484015250505050565b5f601f19601f8301169050919050565b5f612dd582612d79565b612ddf8185612d83565b9350612def818560208601612d93565b612df881612dbb565b840191505092915050565b5f6020820190508181035f830152612e1b8184612dcb565b905092915050565b5f80fd5b5f73ffffffffffffffffffffffffffffffffffffffff82169050919050565b5f612e5082612e27565b9050919050565b612e6081612e46565b8114612e6a575f80fd5b50565b5f81359050612e7b81612e57565b92915050565b5f819050919050565b612e9381612e81565b8114612e9d575f80fd5b50565b5f81359050612eae81612e8a565b92915050565b5f8060408385031215612eca57612ec9612e23565b5b5f612ed785828601612e6d565b9250506020612ee885828601612ea0565b9150509250929050565b5f8115159050919050565b612f0681612ef2565b82525050565b5f602082019050612f1f5f830184612efd565b92915050565b612f2e81612e81565b82525050565b5f602082019050612f475f830184612f25565b92915050565b5f805f60608486031215612f6457612f63612e23565b5b5f612f7186828701612e6d565b9350506020612f8286828701612e6d565b9250506040612f9386828701612ea0565b9150509250925092565b5f60ff82169050919050565b612fb281612f9d565b82525050565b5f602082019050612fcb5f830184612fa9565b92915050565b5f819050919050565b612fe381612fd1565b82525050565b5f602082019050612ffc5f830184612fda565b92915050565b5f6020828403121561301757613016612e23565b5b5f61302484828501612e6d565b91505092915050565b61303681612e46565b82525050565b5f60208201905061304f5f83018461302d565b92915050565b5f63ffffffff82169050919050565b61306d81613055565b82525050565b5f6020820190506130865f830184613064565b92915050565b5f7fff0000000000000000000000000000000000000000000000000000000000000082169050919050565b6130c08161308c565b82525050565b5f81519050919050565b5f82825260208201905092915050565b5f819050602082019050919050565b6130f881612e81565b82525050565b5f61310983836130ef565b60208301905092915050565b5f602082019050919050565b5f61312b826130c6565b61313581856130d0565b9350613140836130e0565b805f5b8381101561317057815161315788826130fe565b975061316283613115565b925050600181019050613143565b5085935050505092915050565b5f60e0820190506131905f83018a6130b7565b81810360208301526131a28189612dcb565b905081810360408301526131b68188612dcb565b90506131c56060830187612f25565b6131d2608083018661302d565b6131df60a0830185612fda565b81810360c08301526131f18184613121565b905098975050505050505050565b5f6020828403121561321457613213612e23565b5b5f61322184828501612ea0565b91505092915050565b5f65ffffffffffff82169050919050565b6132448161322a565b82525050565b5f60208201905061325d5f83018461323b565b92915050565b61326c81612f9d565b8114613276575f80fd5b50565b5f8135905061328781613263565b92915050565b61329681612fd1565b81146132a0575f80fd5b50565b5f813590506132b18161328d565b92915050565b5f805f805f8060c087890312156132d1576132d0612e23565b5b5f6132de89828a01612e6d565b96505060206132ef89828a01612ea0565b955050604061330089828a01612ea0565b945050606061331189828a01613279565b935050608061332289828a016132a3565b92505060a061333389828a016132a3565b9150509295509295509295565b5f805f805f805f60e0888a03121561335b5761335a612e23565b5b5f6133688a828b01612e6d565b97505060206133798a828b01612e6d565b965050604061338a8a828b01612ea0565b955050606061339b8a828b01612ea0565b94505060806133ac8a828b01613279565b93505060a06133bd8a828b016132a3565b92505060c06133ce8a828b016132a3565b91505092959891949750929550565b5f80604083850312156133f3576133f2612e23565b5b5f61340085828601612e6d565b925050602061341185828601612e6d565b9150509250929050565b61342481613055565b811461342e575f80fd5b50565b5f8135905061343f8161341b565b92915050565b5f806040838503121561345b5761345a612e23565b5b5f61346885828601612e6d565b925050602061347985828601613431565b9150509250929050565b61348c8161322a565b82525050565b5f79ffffffffffffffffffffffffffffffffffffffffffffffffffff82169050919050565b6134c081613492565b82525050565b604082015f8201516134da5f850182613483565b5060208201516134ed60208501826134b7565b50505050565b5f6040820190506135065f8301846134c6565b92915050565b7f4e487b71000000000000000000000000000000000000000000000000000000005f52602260045260245ffd5b5f600282049050600182168061355057607f821691505b6020821081036135635761356261350c565b5b50919050565b7f4e487b71000000000000000000000000000000000000000000000000000000005f52604160045260245ffd5b5f6080820190506135a95f830187612fda565b6135b6602083018661302d565b6135c36040830185612f25565b6135d06060830184612f25565b95945050505050565b5f60c0820190506135ec5f830189612fda565b6135f9602083018861302d565b613606604083018761302d565b6136136060830186612f25565b6136206080830185612f25565b61362d60a0830184612f25565b979650505050505050565b5f60408201905061364b5f83018561302d565b613658602083018461302d565b9392505050565b5f6060820190506136725f83018661302d565b61367f6020830185612f25565b61368c6040830184612f25565b949350505050565b5f6040820190506136a75f830185612f25565b6136b4602083018461323b565b9392505050565b7f4e487b71000000000000000000000000000000000000000000000000000000005f52601160045260245ffd5b5f6136f282612e81565b91506136fd83612e81565b9250828203905081811115613715576137146136bb565b5b92915050565b5f61372582612e81565b915061373083612e81565b9250828201905080821115613748576137476136bb565b5b92915050565b5f6040820190506137615f83018561302d565b61376e6020830184612f25565b9392505050565b7f435245443a204e6f6e2d7472616e7366657261626c6520736f756c626f756e645f8201527f20746f6b656e0000000000000000000000000000000000000000000000000000602082015250565b5f6137cf602683612d83565b91506137da82613775565b604082019050919050565b5f6020820190508181035f8301526137fc816137c3565b9050919050565b5f60a0820190506138165f830188612fda565b6138236020830187612fda565b6138306040830186612fda565b61383d6060830185612f25565b61384a608083018461302d565b9695505050505050565b5f819050919050565b5f819050919050565b5f61388061387b61387684613854565b61385d565b612f9d565b9050919050565b61389081613866565b82525050565b5f6040820190506138a95f830185613887565b6138b66020830184612f25565b9392505050565b7f4e487b71000000000000000000000000000000000000000000000000000000005f52601260045260245ffd5b5f6040820190506138fd5f830185612f25565b61390a6020830184612f25565b9392505050565b5f819050919050565b5f61393461392f61392a84613911565b61385d565b612f9d565b9050919050565b6139448161391a565b82525050565b5f60408201905061395d5f83018561393b565b61396a6020830184612f25565b9392505050565b5f6080820190506139845f830187612fda565b6139916020830186612fa9565b61399e6040830185612fda565b6139ab6060830184612fda565b95945050505050565b7f4e487b71000000000000000000000000000000000000000000000000000000005f52602160045260245ffd5b7f4e487b71000000000000000000000000000000000000000000000000000000005f52603260045260245ffd5b5f613a1882612e81565b9150613a2383612e81565b925082613a3357613a326138bd565b5b828204905092915050565b5f613a4882613492565b9150613a5383613492565b9250828203905079ffffffffffffffffffffffffffffffffffffffffffffffffffff811115613a8557613a846136bb565b5b92915050565b5f819050919050565b5f613aae613aa9613aa484613a8b565b61385d565b612f9d565b9050919050565b613abe81613a94565b82525050565b5f604082019050613ad75f830185613ab5565b613ae46020830184612f25565b9392505050565b5f613af582613492565b9150613b0083613492565b9250828201905079ffffffffffffffffffffffffffffffffffffffffffffffffffff811115613b3257613b316136bb565b5b9291505056fea26469706673582212208b0092e2ee2fd1d5302949b0044e4ca7615d507dfeb032ff088532e8ed6cef5b64736f6c63430008180033","linkReferences":{}},"methodIdentifiers":{"CLOCK_MODE()":"4bf5d7e9","DOMAIN_SEPARATOR()":"3644e515","allowance(address,address)":"dd62ed3e","approve(address,uint256)":"095ea7b3","balanceOf(address)":"70a08231","burn(address,uint256)":"9dc29fac","checkpoints(address,uint32)":"f1127ed8","clock()":"91ddadf4","decimals()":"313ce567","delegate(address)":"5c19a95c","delegateBySig(address,uint256,uint256,uint8,bytes32,bytes32)":"c3cda520","delegates(address)":"587cde1e","eip712Domain()":"84b0196e","getPastTotalSupply(uint256)":"8e539e8c","getPastVotes(address,uint256)":"3a46b1a8","getVotes(address)":"9ab24eb0","mint(address,uint256)":"40c10f19","name()":"06fdde03","nonces(address)":"7ecebe00","numCheckpoints(address)":"6fcfff45","owner()":"8da5cb5b","permit(address,address,uint256,uint256,uint8,bytes32,bytes32)":"d505accf","renounceOwnership()":"715018a6","symbol()":"95d89b41","totalSupply()":"18160ddd","transfer(address,uint256)":"a9059cbb","transferFrom(address,address,uint256)":"23b872dd","transferOwnership(address)":"f2fde38b"},"id":80}