{"abi":[{"type":"function","name":"contentOwner","inputs":[{"name":"","type":"string","internalType":"string"}],"outputs":[{"name":"","type":"address","internalType":"address"}],"stateMutability":"view"},{"type":"function","name":"storeReference","inputs":[{"name":"contentHash","type":"string","internalType":"string"},{"name":"owner","type":"address","internalType":"address"}],"outputs":[],"stateMutability":"nonpayable"},{"type":"event","name":"ContentStored","inputs":[{"name":"contentHash","type":"string","indexed":true,"internalType":"string"},{"name":"owner","type":"address","indexed":true,"internalType":"address"}],"anonymous":false}],"bytecode":{"object":"0x608060405234801561000f575f80fd5b506104ab8061001d5f395ff3fe608060405234801561000f575f80fd5b5060043610610034575f3560e01c80639ae47d83146100385780639c3eca4f14610054575b5f80fd5b610052600480360381019061004d919061032a565b610084565b005b61006e60048036038101906100699190610384565b61013c565b60405161007b91906103da565b60405180910390f35b805f83604051610094919061045f565b90815260200160405180910390205f6101000a81548173ffffffffffffffffffffffffffffffffffffffff021916908373ffffffffffffffffffffffffffffffffffffffff1602179055508073ffffffffffffffffffffffffffffffffffffffff1682604051610104919061045f565b60405180910390207f7d8a1f635f9d35614ec5a7de517c3a2eb7350a6cd27a633b593c02d736e566f860405160405180910390a35050565b5f818051602081018201805184825260208301602085012081835280955050505050505f915054906101000a900473ffffffffffffffffffffffffffffffffffffffff1681565b5f604051905090565b5f80fd5b5f80fd5b5f80fd5b5f80fd5b5f601f19601f8301169050919050565b7f4e487b71000000000000000000000000000000000000000000000000000000005f52604160045260245ffd5b6101e28261019c565b810181811067ffffffffffffffff82111715610201576102006101ac565b5b80604052505050565b5f610213610183565b905061021f82826101d9565b919050565b5f67ffffffffffffffff82111561023e5761023d6101ac565b5b6102478261019c565b9050602081019050919050565b828183375f83830152505050565b5f61027461026f84610224565b61020a565b9050828152602081018484840111156102905761028f610198565b5b61029b848285610254565b509392505050565b5f82601f8301126102b7576102b6610194565b5b81356102c7848260208601610262565b91505092915050565b5f73ffffffffffffffffffffffffffffffffffffffff82169050919050565b5f6102f9826102d0565b9050919050565b610309816102ef565b8114610313575f80fd5b50565b5f8135905061032481610300565b92915050565b5f80604083850312156103405761033f61018c565b5b5f83013567ffffffffffffffff81111561035d5761035c610190565b5b610369858286016102a3565b925050602061037a85828601610316565b9150509250929050565b5f602082840312156103995761039861018c565b5b5f82013567ffffffffffffffff8111156103b6576103b5610190565b5b6103c2848285016102a3565b91505092915050565b6103d4816102ef565b82525050565b5f6020820190506103ed5f8301846103cb565b92915050565b5f81519050919050565b5f81905092915050565b5f5b83811015610424578082015181840152602081019050610409565b5f8484015250505050565b5f610439826103f3565b61044381856103fd565b9350610453818560208601610407565b80840191505092915050565b5f61046a828461042f565b91508190509291505056fea2646970667358221220ead680bedcd14e0482439ce8deb96a6ec6e5a81c0b1f8aa414cdbfd6c569111d64736f6c63430008180033","linkReferences":{}},"methodIdentifiers":{"contentOwner(string)":"9c3eca4f","storeReference(string,address)":"9ae47d83"},"id":73}