{"abi":[{"type":"constructor","inputs":[{"name":"_staking","type":"address","internalType":"address"},{"name":"_credToken","type":"address","internalType":"address"},{"name":"_delegation","type":"address","internalType":"address"},{"name":"initialOwner","type":"address","internalType":"address"}],"stateMutability":"nonpayable"},{"type":"function","name":"createProposal","inputs":[{"name":"pType","type":"uint8","internalType":"enum NewsDAO.ProposalType"}],"outputs":[{"name":"","type":"uint256","internalType":"uint256"}],"stateMutability":"nonpayable"},{"type":"function","name":"credToken","inputs":[],"outputs":[{"name":"","type":"address","internalType":"contract CRED"}],"stateMutability":"view"},{"type":"function","name":"delegation","inputs":[],"outputs":[{"name":"","type":"address","internalType":"contract IDelegation"}],"stateMutability":"view"},{"type":"function","name":"executeProposal","inputs":[{"name":"proposalId","type":"uint256","internalType":"uint256"}],"outputs":[],"stateMutability":"nonpayable"},{"type":"function","name":"hasVoted","inputs":[{"name":"","type":"uint256","internalType":"uint256"},{"name":"","type":"address","internalType":"address"}],"outputs":[{"name":"","type":"bool","internalType":"bool"}],"stateMutability":"view"},{"type":"function","name":"owner","inputs":[],"outputs":[{"name":"","type":"address","internalType":"address"}],"stateMutability":"view"},{"type":"function","name":"proposals","inputs":[{"name":"","type":"uint256","internalType":"uint256"}],"outputs":[{"name":"id","type":"uint256","internalType":"uint256"},{"name":"pType","type":"uint8","internalType":"enum NewsDAO.ProposalType"},{"name":"proposer","type":"address","internalType":"address"},{"name":"forVotes","type":"uint256","internalType":"uint256"},{"name":"againstVotes","type":"uint256","internalType":"uint256"},{"name":"createdAt","type":"uint256","internalType":"uint256"},{"name":"executed","type":"bool","internalType":"bool"}],"stateMutability":"view"},{"type":"function","name":"renounceOwnership","inputs":[],"outputs":[],"stateMutability":"nonpayable"},{"type":"function","name":"staking","inputs":[],"outputs":[{"name":"","type":"address","internalType":"contract NewsStaking"}],"stateMutability":"view"},{"type":"function","name":"transferOwnership","inputs":[{"name":"newOwner","type":"address","internalType":"address"}],"outputs":[],"stateMutability":"nonpayable"},{"type":"function","name":"vote","inputs":[{"name":"proposalId","type":"uint256","internalType":"uint256"},{"name":"support","type":"bool","internalType":"bool"},{"name":"votes","type":"uint256","internalType":"uint256"}],"outputs":[],"stateMutability":"nonpayable"},{"type":"event","name":"OwnershipTransferred","inputs":[{"name":"previousOwner","type":"address","indexed":true,"internalType":"address"},{"name":"newOwner","type":"address","indexed":true,"internalType":"address"}],"anonymous":false},{"type":"event","name":"ProposalCreated","inputs":[{"name":"proposalId","type":"uint256","indexed":true,"internalType":"uint256"},{"name":"proposer","type":"address","indexed":true,"internalType":"address"}],"anonymous":false},{"type":"event","name":"Voted","inputs":[{"name":"proposalId","type":"uint256","indexed":true,"internalType":"uint256"},{"name":"voter","type":"address","indexed":true,"internalType":"address"},{"name":"support","type":"bool","indexed":false,"internalType":"bool"},{"name":"votes","type":"uint256","indexed":false,"internalType":"uint256"}],"anonymous":false},{"type":"error","name":"OwnableInvalidOwner","inputs":[{"name":"owner","type":"address","internalType":"address"}]},{"type":"error","name":"OwnableUnauthorizedAccount","inputs":[{"name":"account","type":"address","internalType":"address"}]}],"bytecode":{"object":"0x608060405234801562000010575f80fd5b5060405162001b0c38038062001b0c8339818101604052810190620000369190620002ac565b805f73ffffffffffffffffffffffffffffffffffffffff168173ffffffffffffffffffffffffffffffffffffffff1603620000aa575f6040517f1e4fbdf7000000000000000000000000000000000000000000000000000000008152600401620000a191906200032c565b60405180910390fd5b620000bb816200018660201b60201c565b508360015f6101000a81548173ffffffffffffffffffffffffffffffffffffffff021916908373ffffffffffffffffffffffffffffffffffffffff1602179055508260025f6101000a81548173ffffffffffffffffffffffffffffffffffffffff021916908373ffffffffffffffffffffffffffffffffffffffff1602179055508160035f6101000a81548173ffffffffffffffffffffffffffffffffffffffff021916908373ffffffffffffffffffffffffffffffffffffffff1602179055505050505062000347565b5f805f9054906101000a900473ffffffffffffffffffffffffffffffffffffffff169050815f806101000a81548173ffffffffffffffffffffffffffffffffffffffff021916908373ffffffffffffffffffffffffffffffffffffffff1602179055508173ffffffffffffffffffffffffffffffffffffffff168173ffffffffffffffffffffffffffffffffffffffff167f8be0079c531659141344cd1fd0a4f28419497f9722a3daafe3b4186f6b6457e060405160405180910390a35050565b5f80fd5b5f73ffffffffffffffffffffffffffffffffffffffff82169050919050565b5f62000276826200024b565b9050919050565b62000288816200026a565b811462000293575f80fd5b50565b5f81519050620002a6816200027d565b92915050565b5f805f8060808587031215620002c757620002c662000247565b5b5f620002d68782880162000296565b9450506020620002e98782880162000296565b9350506040620002fc8782880162000296565b92505060606200030f8782880162000296565b91505092959194509250565b62000326816200026a565b82525050565b5f602082019050620003415f8301846200031b565b92915050565b6117b780620003555f395ff3fe608060405234801561000f575f80fd5b50600436106100a7575f3560e01c8063715018a61161006f578063715018a61461017b5780638da5cb5b14610185578063af983753146101a3578063d46a5d7e146101c1578063df5cf723146101dd578063f2fde38b146101fb576100a7565b8063013cf08b146100ab5780630d61b519146100e157806343859632146100fd5780634cf088d91461012d5780636a6c77441461014b575b5f80fd5b6100c560048036038101906100c09190610dc6565b610217565b6040516100d89796959493929190610ecc565b60405180910390f35b6100fb60048036038101906100f69190610dc6565b61029c565b005b61011760048036038101906101129190610f63565b610384565b6040516101249190610fa1565b60405180910390f35b6101356103ae565b6040516101429190611015565b60405180910390f35b61016560048036038101906101609190611051565b6103d3565b604051610172919061107c565b60405180910390f35b61018361056c565b005b61018d61057f565b60405161019a9190611095565b60405180910390f35b6101ab6105a6565b6040516101b891906110ce565b60405180910390f35b6101db60048036038101906101d69190611111565b6105cb565b005b6101e5610aa5565b6040516101f29190611181565b60405180910390f35b6102156004803603810190610210919061119a565b610aca565b005b60048181548110610226575f80fd5b905f5260205f2090600602015f91509050805f015490806001015f9054906101000a900460ff16908060010160019054906101000a900473ffffffffffffffffffffffffffffffffffffffff1690806002015490806003015490806004015490806005015f9054906101000a900460ff16905087565b5f600482815481106102b1576102b06111c5565b5b905f5260205f2090600602019050806005015f9054906101000a900460ff1615610310576040517f08c379a00000000000000000000000000000000000000000000000000000000081526004016103079061124c565b60405180910390fd5b6203f48081600401546103239190611297565b4211610364576040517f08c379a000000000000000000000000000000000000000000000000000000000815260040161035b90611314565b60405180910390fd5b6001816005015f6101000a81548160ff0219169083151502179055505050565b6005602052815f5260405f20602052805f5260405f205f915091509054906101000a900460ff1681565b60015f9054906101000a900473ffffffffffffffffffffffffffffffffffffffff1681565b5f80600480549050905060046040518060e0016040528083815260200185600281111561040357610402610e00565b5b81526020013373ffffffffffffffffffffffffffffffffffffffff1681526020015f81526020015f81526020014281526020015f1515815250908060018154018082558091505060019003905f5260205f2090600602015f909190919091505f820151815f01556020820151816001015f6101000a81548160ff0219169083600281111561049457610493610e00565b5b021790555060408201518160010160016101000a81548173ffffffffffffffffffffffffffffffffffffffff021916908373ffffffffffffffffffffffffffffffffffffffff160217905550606082015181600201556080820151816003015560a0820151816004015560c0820151816005015f6101000a81548160ff02191690831515021790555050503373ffffffffffffffffffffffffffffffffffffffff16817fcd423cc1203c0af96b9b3d68d73b3064a69de2d14450bb7181c5e5df2132b35860405160405180910390a380915050919050565b610574610b4e565b61057d5f610bd5565b565b5f805f9054906101000a900473ffffffffffffffffffffffffffffffffffffffff16905090565b60025f9054906101000a900473ffffffffffffffffffffffffffffffffffffffff1681565b5f600484815481106105e0576105df6111c5565b5b905f5260205f20906006020190505f816004015411610634576040517f08c379a000000000000000000000000000000000000000000000000000000000815260040161062b9061137c565b60405180910390fd5b60055f8581526020019081526020015f205f3373ffffffffffffffffffffffffffffffffffffffff1673ffffffffffffffffffffffffffffffffffffffff1681526020019081526020015f205f9054906101000a900460ff16156106cd576040517f08c379a00000000000000000000000000000000000000000000000000000000081526004016106c4906113e4565b60405180910390fd5b5f8290505f60028111156106e4576106e3610e00565b5b826001015f9054906101000a900460ff16600281111561070757610706610e00565b5b036107cf5761073860015f9054906101000a900473ffffffffffffffffffffffffffffffffffffffff163385610c96565b5f61074284610d67565b905060015f9054906101000a900473ffffffffffffffffffffffffffffffffffffffff1673ffffffffffffffffffffffffffffffffffffffff166302fb4d8533836040518363ffffffff1660e01b81526004016107a0929190611402565b5f604051808303815f87803b1580156107b7575f80fd5b505af11580156107c9573d5f803e3d5ffd5b50505050505b83156107f45782826002015f8282546107e89190611297565b9250508190555061080f565b82826003015f8282546108079190611297565b925050819055505b5f60015f9054906101000a900473ffffffffffffffffffffffffffffffffffffffff1673ffffffffffffffffffffffffffffffffffffffff16636e4f88c86040518163ffffffff1660e01b81526004015f60405180830381865afa158015610879573d5f803e3d5ffd5b505050506040513d5f823e3d601f19601f820116820180604052508101906108a1919061158d565b90505f5b81518110156109e7573373ffffffffffffffffffffffffffffffffffffffff1660035f9054906101000a900473ffffffffffffffffffffffffffffffffffffffff1673ffffffffffffffffffffffffffffffffffffffff16639c4f95cb848481518110610915576109146111c5565b5b60200260200101515f6040518363ffffffff1660e01b815260040161093b92919061160d565b602060405180830381865afa158015610956573d5f803e3d5ffd5b505050506040513d601f19601f8201168201806040525081019061097a9190611634565b73ffffffffffffffffffffffffffffffffffffffff16036109da5785156109ba5784846002015f8282546109ae9190611297565b925050819055506109d5565b84846003015f8282546109cd9190611297565b925050819055505b6109e7565b80806001019150506108a5565b50600160055f8881526020019081526020015f205f3373ffffffffffffffffffffffffffffffffffffffff1673ffffffffffffffffffffffffffffffffffffffff1681526020019081526020015f205f6101000a81548160ff0219169083151502179055503373ffffffffffffffffffffffffffffffffffffffff16867f7c2de587c00d75474a0c6c6fa96fd3b45dc974cd4e8a75f712bb84c950dce1b58785604051610a9592919061165f565b60405180910390a3505050505050565b60035f9054906101000a900473ffffffffffffffffffffffffffffffffffffffff1681565b610ad2610b4e565b5f73ffffffffffffffffffffffffffffffffffffffff168173ffffffffffffffffffffffffffffffffffffffff1603610b42575f6040517f1e4fbdf7000000000000000000000000000000000000000000000000000000008152600401610b399190611095565b60405180910390fd5b610b4b81610bd5565b50565b610b56610d7b565b73ffffffffffffffffffffffffffffffffffffffff16610b7461057f565b73ffffffffffffffffffffffffffffffffffffffff1614610bd357610b97610d7b565b6040517f118cdaa7000000000000000000000000000000000000000000000000000000008152600401610bca9190611095565b60405180910390fd5b565b5f805f9054906101000a900473ffffffffffffffffffffffffffffffffffffffff169050815f806101000a81548173ffffffffffffffffffffffffffffffffffffffff021916908373ffffffffffffffffffffffffffffffffffffffff1602179055508173ffffffffffffffffffffffffffffffffffffffff168173ffffffffffffffffffffffffffffffffffffffff167f8be0079c531659141344cd1fd0a4f28419497f9722a3daafe3b4186f6b6457e060405160405180910390a35050565b5f610ca082610d67565b90505f8473ffffffffffffffffffffffffffffffffffffffff166316934fc4856040518263ffffffff1660e01b8152600401610cdc9190611095565b6040805180830381865afa158015610cf6573d5f803e3d5ffd5b505050506040513d601f19601f82011682018060405250810190610d1a919061169a565b50905081811015610d60576040517f08c379a0000000000000000000000000000000000000000000000000000000008152600401610d5790611722565b60405180910390fd5b5050505050565b5f8182610d749190611740565b9050919050565b5f33905090565b5f604051905090565b5f80fd5b5f80fd5b5f819050919050565b610da581610d93565b8114610daf575f80fd5b50565b5f81359050610dc081610d9c565b92915050565b5f60208284031215610ddb57610dda610d8b565b5b5f610de884828501610db2565b91505092915050565b610dfa81610d93565b82525050565b7f4e487b71000000000000000000000000000000000000000000000000000000005f52602160045260245ffd5b60038110610e3e57610e3d610e00565b5b50565b5f819050610e4e82610e2d565b919050565b5f610e5d82610e41565b9050919050565b610e6d81610e53565b82525050565b5f73ffffffffffffffffffffffffffffffffffffffff82169050919050565b5f610e9c82610e73565b9050919050565b610eac81610e92565b82525050565b5f8115159050919050565b610ec681610eb2565b82525050565b5f60e082019050610edf5f83018a610df1565b610eec6020830189610e64565b610ef96040830188610ea3565b610f066060830187610df1565b610f136080830186610df1565b610f2060a0830185610df1565b610f2d60c0830184610ebd565b98975050505050505050565b610f4281610e92565b8114610f4c575f80fd5b50565b5f81359050610f5d81610f39565b92915050565b5f8060408385031215610f7957610f78610d8b565b5b5f610f8685828601610db2565b9250506020610f9785828601610f4f565b9150509250929050565b5f602082019050610fb45f830184610ebd565b92915050565b5f819050919050565b5f610fdd610fd8610fd384610e73565b610fba565b610e73565b9050919050565b5f610fee82610fc3565b9050919050565b5f610fff82610fe4565b9050919050565b61100f81610ff5565b82525050565b5f6020820190506110285f830184611006565b92915050565b6003811061103a575f80fd5b50565b5f8135905061104b8161102e565b92915050565b5f6020828403121561106657611065610d8b565b5b5f6110738482850161103d565b91505092915050565b5f60208201905061108f5f830184610df1565b92915050565b5f6020820190506110a85f830184610ea3565b92915050565b5f6110b882610fe4565b9050919050565b6110c8816110ae565b82525050565b5f6020820190506110e15f8301846110bf565b92915050565b6110f081610eb2565b81146110fa575f80fd5b50565b5f8135905061110b816110e7565b92915050565b5f805f6060848603121561112857611127610d8b565b5b5f61113586828701610db2565b9350506020611146868287016110fd565b925050604061115786828701610db2565b9150509250925092565b5f61116b82610fe4565b9050919050565b61117b81611161565b82525050565b5f6020820190506111945f830184611172565b92915050565b5f602082840312156111af576111ae610d8b565b5b5f6111bc84828501610f4f565b91505092915050565b7f4e487b71000000000000000000000000000000000000000000000000000000005f52603260045260245ffd5b5f82825260208201905092915050565b7f416c7265616479206578656375746564000000000000000000000000000000005f82015250565b5f6112366010836111f2565b915061124182611202565b602082019050919050565b5f6020820190508181035f8301526112638161122a565b9050919050565b7f4e487b71000000000000000000000000000000000000000000000000000000005f52601160045260245ffd5b5f6112a182610d93565b91506112ac83610d93565b92508282019050808211156112c4576112c361126a565b5b92915050565b7f566f74696e6720706572696f64206f6e676f696e6700000000000000000000005f82015250565b5f6112fe6015836111f2565b9150611309826112ca565b602082019050919050565b5f6020820190508181035f83015261132b816112f2565b9050919050565b7f496e76616c69642070726f706f73616c000000000000000000000000000000005f82015250565b5f6113666010836111f2565b915061137182611332565b602082019050919050565b5f6020820190508181035f8301526113938161135a565b9050919050565b7f416c726561647920766f746564000000000000000000000000000000000000005f82015250565b5f6113ce600d836111f2565b91506113d98261139a565b602082019050919050565b5f6020820190508181035f8301526113fb816113c2565b9050919050565b5f6040820190506114155f830185610ea3565b6114226020830184610df1565b9392505050565b5f80fd5b5f601f19601f8301169050919050565b7f4e487b71000000000000000000000000000000000000000000000000000000005f52604160045260245ffd5b6114738261142d565b810181811067ffffffffffffffff821117156114925761149161143d565b5b80604052505050565b5f6114a4610d82565b90506114b0828261146a565b919050565b5f67ffffffffffffffff8211156114cf576114ce61143d565b5b602082029050602081019050919050565b5f80fd5b5f815190506114f281610f39565b92915050565b5f61150a611505846114b5565b61149b565b9050808382526020820190506020840283018581111561152d5761152c6114e0565b5b835b81811015611556578061154288826114e4565b84526020840193505060208101905061152f565b5050509392505050565b5f82601f83011261157457611573611429565b5b81516115848482602086016114f8565b91505092915050565b5f602082840312156115a2576115a1610d8b565b5b5f82015167ffffffffffffffff8111156115bf576115be610d8f565b5b6115cb84828501611560565b91505092915050565b5f819050919050565b5f6115f76115f26115ed846115d4565b610fba565b610d93565b9050919050565b611607816115dd565b82525050565b5f6040820190506116205f830185610ea3565b61162d60208301846115fe565b9392505050565b5f6020828403121561164957611648610d8b565b5b5f611656848285016114e4565b91505092915050565b5f6040820190506116725f830185610ebd565b61167f6020830184610df1565b9392505050565b5f8151905061169481610d9c565b92915050565b5f80604083850312156116b0576116af610d8b565b5b5f6116bd85828601611686565b92505060206116ce85828601611686565b9150509250929050565b7f496e73756666696369656e74207374616b6500000000000000000000000000005f82015250565b5f61170c6012836111f2565b9150611717826116d8565b602082019050919050565b5f6020820190508181035f83015261173981611700565b9050919050565b5f61174a82610d93565b915061175583610d93565b925082820261176381610d93565b9150828204841483151761177a5761177961126a565b5b509291505056fea264697066735822122004759f585976c8d7f543fac4f78f49a048aab69434d341cb884e8b38902b1d2a64736f6c63430008180033","linkReferences":{}},"methodIdentifiers":{"createProposal(uint8)":"6a6c7744","credToken()":"af983753","delegation()":"df5cf723","executeProposal(uint256)":"0d61b519","hasVoted(uint256,address)":"43859632","owner()":"8da5cb5b","proposals(uint256)":"013cf08b","renounceOwnership()":"715018a6","staking()":"4cf088d9","transferOwnership(address)":"f2fde38b","vote(uint256,bool,uint256)":"d46a5d7e"},"id":75}