{"abi":[{"type":"constructor","inputs":[{"name":"token","type":"address","internalType":"contract ERC20Votes"},{"name":"timelock","type":"address","internalType":"contract TimelockController"}],"stateMutability":"nonpayable"},{"type":"receive","stateMutability":"payable"},{"type":"function","name":"BALLOT_TYPEHASH","inputs":[],"outputs":[{"name":"","type":"bytes32","internalType":"bytes32"}],"stateMutability":"view"},{"type":"function","name":"CLOCK_MODE","inputs":[],"outputs":[{"name":"","type":"string","internalType":"string"}],"stateMutability":"view"},{"type":"function","name":"COUNTING_MODE","inputs":[],"outputs":[{"name":"","type":"string","internalType":"string"}],"stateMutability":"pure"},{"type":"function","name":"EXTENDED_BALLOT_TYPEHASH","inputs":[],"outputs":[{"name":"","type":"bytes32","internalType":"bytes32"}],"stateMutability":"view"},{"type":"function","name":"cancel","inputs":[{"name":"targets","type":"address[]","internalType":"address[]"},{"name":"values","type":"uint256[]","internalType":"uint256[]"},{"name":"calldatas","type":"bytes[]","internalType":"bytes[]"},{"name":"descriptionHash","type":"bytes32","internalType":"bytes32"}],"outputs":[{"name":"","type":"uint256","internalType":"uint256"}],"stateMutability":"nonpayable"},{"type":"function","name":"castVote","inputs":[{"name":"proposalId","type":"uint256","internalType":"uint256"},{"name":"support","type":"uint8","internalType":"uint8"}],"outputs":[{"name":"","type":"uint256","internalType":"uint256"}],"stateMutability":"nonpayable"},{"type":"function","name":"castVoteBySig","inputs":[{"name":"proposalId","type":"uint256","internalType":"uint256"},{"name":"support","type":"uint8","internalType":"uint8"},{"name":"voter","type":"address","internalType":"address"},{"name":"signature","type":"bytes","internalType":"bytes"}],"outputs":[{"name":"","type":"uint256","internalType":"uint256"}],"stateMutability":"nonpayable"},{"type":"function","name":"castVoteWithReason","inputs":[{"name":"proposalId","type":"uint256","internalType":"uint256"},{"name":"support","type":"uint8","internalType":"uint8"},{"name":"reason","type":"string","internalType":"string"}],"outputs":[{"name":"","type":"uint256","internalType":"uint256"}],"stateMutability":"nonpayable"},{"type":"function","name":"castVoteWithReasonAndParams","inputs":[{"name":"proposalId","type":"uint256","internalType":"uint256"},{"name":"support","type":"uint8","internalType":"uint8"},{"name":"reason","type":"string","internalType":"string"},{"name":"params","type":"bytes","internalType":"bytes"}],"outputs":[{"name":"","type":"uint256","internalType":"uint256"}],"stateMutability":"nonpayable"},{"type":"function","name":"castVoteWithReasonAndParamsBySig","inputs":[{"name":"proposalId","type":"uint256","internalType":"uint256"},{"name":"support","type":"uint8","internalType":"uint8"},{"name":"voter","type":"address","internalType":"address"},{"name":"reason","type":"string","internalType":"string"},{"name":"params","type":"bytes","internalType":"bytes"},{"name":"signature","type":"bytes","internalType":"bytes"}],"outputs":[{"name":"","type":"uint256","internalType":"uint256"}],"stateMutability":"nonpayable"},{"type":"function","name":"clock","inputs":[],"outputs":[{"name":"","type":"uint48","internalType":"uint48"}],"stateMutability":"view"},{"type":"function","name":"eip712Domain","inputs":[],"outputs":[{"name":"fields","type":"bytes1","internalType":"bytes1"},{"name":"name","type":"string","internalType":"string"},{"name":"version","type":"string","internalType":"string"},{"name":"chainId","type":"uint256","internalType":"uint256"},{"name":"verifyingContract","type":"address","internalType":"address"},{"name":"salt","type":"bytes32","internalType":"bytes32"},{"name":"extensions","type":"uint256[]","internalType":"uint256[]"}],"stateMutability":"view"},{"type":"function","name":"execute","inputs":[{"name":"targets","type":"address[]","internalType":"address[]"},{"name":"values","type":"uint256[]","internalType":"uint256[]"},{"name":"calldatas","type":"bytes[]","internalType":"bytes[]"},{"name":"descriptionHash","type":"bytes32","internalType":"bytes32"}],"outputs":[{"name":"","type":"uint256","internalType":"uint256"}],"stateMutability":"payable"},{"type":"function","name":"getProposalId","inputs":[{"name":"targets","type":"address[]","internalType":"address[]"},{"name":"values","type":"uint256[]","internalType":"uint256[]"},{"name":"calldatas","type":"bytes[]","internalType":"bytes[]"},{"name":"descriptionHash","type":"bytes32","internalType":"bytes32"}],"outputs":[{"name":"","type":"uint256","internalType":"uint256"}],"stateMutability":"view"},{"type":"function","name":"getVotes","inputs":[{"name":"account","type":"address","internalType":"address"},{"name":"timepoint","type":"uint256","internalType":"uint256"}],"outputs":[{"name":"","type":"uint256","internalType":"uint256"}],"stateMutability":"view"},{"type":"function","name":"getVotesWithParams","inputs":[{"name":"account","type":"address","internalType":"address"},{"name":"timepoint","type":"uint256","internalType":"uint256"},{"name":"params","type":"bytes","internalType":"bytes"}],"outputs":[{"name":"","type":"uint256","internalType":"uint256"}],"stateMutability":"view"},{"type":"function","name":"hasVoted","inputs":[{"name":"proposalId","type":"uint256","internalType":"uint256"},{"name":"account","type":"address","internalType":"address"}],"outputs":[{"name":"","type":"bool","internalType":"bool"}],"stateMutability":"view"},{"type":"function","name":"hashProposal","inputs":[{"name":"targets","type":"address[]","internalType":"address[]"},{"name":"values","type":"uint256[]","internalType":"uint256[]"},{"name":"calldatas","type":"bytes[]","internalType":"bytes[]"},{"name":"descriptionHash","type":"bytes32","internalType":"bytes32"}],"outputs":[{"name":"","type":"uint256","internalType":"uint256"}],"stateMutability":"pure"},{"type":"function","name":"name","inputs":[],"outputs":[{"name":"","type":"string","internalType":"string"}],"stateMutability":"view"},{"type":"function","name":"nonces","inputs":[{"name":"owner","type":"address","internalType":"address"}],"outputs":[{"name":"","type":"uint256","internalType":"uint256"}],"stateMutability":"view"},{"type":"function","name":"onERC1155BatchReceived","inputs":[{"name":"","type":"address","internalType":"address"},{"name":"","type":"address","internalType":"address"},{"name":"","type":"uint256[]","internalType":"uint256[]"},{"name":"","type":"uint256[]","internalType":"uint256[]"},{"name":"","type":"bytes","internalType":"bytes"}],"outputs":[{"name":"","type":"bytes4","internalType":"bytes4"}],"stateMutability":"nonpayable"},{"type":"function","name":"onERC1155Received","inputs":[{"name":"","type":"address","internalType":"address"},{"name":"","type":"address","internalType":"address"},{"name":"","type":"uint256","internalType":"uint256"},{"name":"","type":"uint256","internalType":"uint256"},{"name":"","type":"bytes","internalType":"bytes"}],"outputs":[{"name":"","type":"bytes4","internalType":"bytes4"}],"stateMutability":"nonpayable"},{"type":"function","name":"onERC721Received","inputs":[{"name":"","type":"address","internalType":"address"},{"name":"","type":"address","internalType":"address"},{"name":"","type":"uint256","internalType":"uint256"},{"name":"","type":"bytes","internalType":"bytes"}],"outputs":[{"name":"","type":"bytes4","internalType":"bytes4"}],"stateMutability":"nonpayable"},{"type":"function","name":"proposalDeadline","inputs":[{"name":"proposalId","type":"uint256","internalType":"uint256"}],"outputs":[{"name":"","type":"uint256","internalType":"uint256"}],"stateMutability":"view"},{"type":"function","name":"proposalEta","inputs":[{"name":"proposalId","type":"uint256","internalType":"uint256"}],"outputs":[{"name":"","type":"uint256","internalType":"uint256"}],"stateMutability":"view"},{"type":"function","name":"proposalNeedsQueuing","inputs":[{"name":"proposalId","type":"uint256","internalType":"uint256"}],"outputs":[{"name":"","type":"bool","internalType":"bool"}],"stateMutability":"view"},{"type":"function","name":"proposalProposer","inputs":[{"name":"proposalId","type":"uint256","internalType":"uint256"}],"outputs":[{"name":"","type":"address","internalType":"address"}],"stateMutability":"view"},{"type":"function","name":"proposalSnapshot","inputs":[{"name":"proposalId","type":"uint256","internalType":"uint256"}],"outputs":[{"name":"","type":"uint256","internalType":"uint256"}],"stateMutability":"view"},{"type":"function","name":"proposalThreshold","inputs":[],"outputs":[{"name":"","type":"uint256","internalType":"uint256"}],"stateMutability":"pure"},{"type":"function","name":"proposalVotes","inputs":[{"name":"proposalId","type":"uint256","internalType":"uint256"}],"outputs":[{"name":"againstVotes","type":"uint256","internalType":"uint256"},{"name":"forVotes","type":"uint256","internalType":"uint256"},{"name":"abstainVotes","type":"uint256","internalType":"uint256"}],"stateMutability":"view"},{"type":"function","name":"propose","inputs":[{"name":"targets","type":"address[]","internalType":"address[]"},{"name":"values","type":"uint256[]","internalType":"uint256[]"},{"name":"calldatas","type":"bytes[]","internalType":"bytes[]"},{"name":"description","type":"string","internalType":"string"}],"outputs":[{"name":"","type":"uint256","internalType":"uint256"}],"stateMutability":"nonpayable"},{"type":"function","name":"queue","inputs":[{"name":"targets","type":"address[]","internalType":"address[]"},{"name":"values","type":"uint256[]","internalType":"uint256[]"},{"name":"calldatas","type":"bytes[]","internalType":"bytes[]"},{"name":"descriptionHash","type":"bytes32","internalType":"bytes32"}],"outputs":[{"name":"","type":"uint256","internalType":"uint256"}],"stateMutability":"nonpayable"},{"type":"function","name":"quorum","inputs":[{"name":"blockNumber","type":"uint256","internalType":"uint256"}],"outputs":[{"name":"","type":"uint256","internalType":"uint256"}],"stateMutability":"view"},{"type":"function","name":"quorumDenominator","inputs":[],"outputs":[{"name":"","type":"uint256","internalType":"uint256"}],"stateMutability":"view"},{"type":"function","name":"quorumNumerator","inputs":[{"name":"timepoint","type":"uint256","internalType":"uint256"}],"outputs":[{"name":"","type":"uint256","internalType":"uint256"}],"stateMutability":"view"},{"type":"function","name":"quorumNumerator","inputs":[],"outputs":[{"name":"","type":"uint256","internalType":"uint256"}],"stateMutability":"view"},{"type":"function","name":"relay","inputs":[{"name":"target","type":"address","internalType":"address"},{"name":"value","type":"uint256","internalType":"uint256"},{"name":"data","type":"bytes","internalType":"bytes"}],"outputs":[],"stateMutability":"payable"},{"type":"function","name":"state","inputs":[{"name":"proposalId","type":"uint256","internalType":"uint256"}],"outputs":[{"name":"","type":"uint8","internalType":"enum IGovernor.ProposalState"}],"stateMutability":"view"},{"type":"function","name":"supportsInterface","inputs":[{"name":"interfaceId","type":"bytes4","internalType":"bytes4"}],"outputs":[{"name":"","type":"bool","internalType":"bool"}],"stateMutability":"view"},{"type":"function","name":"timelock","inputs":[],"outputs":[{"name":"","type":"address","internalType":"address"}],"stateMutability":"view"},{"type":"function","name":"token","inputs":[],"outputs":[{"name":"","type":"address","internalType":"contract IERC5805"}],"stateMutability":"view"},{"type":"function","name":"updateQuorumNumerator","inputs":[{"name":"newQuorumNumerator","type":"uint256","internalType":"uint256"}],"outputs":[],"stateMutability":"nonpayable"},{"type":"function","name":"updateTimelock","inputs":[{"name":"newTimelock","type":"address","internalType":"contract TimelockController"}],"outputs":[],"stateMutability":"nonpayable"},{"type":"function","name":"version","inputs":[],"outputs":[{"name":"","type":"string","internalType":"string"}],"stateMutability":"view"},{"type":"function","name":"votingDelay","inputs":[],"outputs":[{"name":"","type":"uint256","internalType":"uint256"}],"stateMutability":"pure"},{"type":"function","name":"votingPeriod","inputs":[],"outputs":[{"name":"","type":"uint256","internalType":"uint256"}],"stateMutability":"pure"},{"type":"event","name":"EIP712DomainChanged","inputs":[],"anonymous":false},{"type":"event","name":"ProposalCanceled","inputs":[{"name":"proposalId","type":"uint256","indexed":false,"internalType":"uint256"}],"anonymous":false},{"type":"event","name":"ProposalCreated","inputs":[{"name":"proposalId","type":"uint256","indexed":false,"internalType":"uint256"},{"name":"proposer","type":"address","indexed":false,"internalType":"address"},{"name":"targets","type":"address[]","indexed":false,"internalType":"address[]"},{"name":"values","type":"uint256[]","indexed":false,"internalType":"uint256[]"},{"name":"signatures","type":"string[]","indexed":false,"internalType":"string[]"},{"name":"calldatas","type":"bytes[]","indexed":false,"internalType":"bytes[]"},{"name":"voteStart","type":"uint256","indexed":false,"internalType":"uint256"},{"name":"voteEnd","type":"uint256","indexed":false,"internalType":"uint256"},{"name":"description","type":"string","indexed":false,"internalType":"string"}],"anonymous":false},{"type":"event","name":"ProposalExecuted","inputs":[{"name":"proposalId","type":"uint256","indexed":false,"internalType":"uint256"}],"anonymous":false},{"type":"event","name":"ProposalQueued","inputs":[{"name":"proposalId","type":"uint256","indexed":false,"internalType":"uint256"},{"name":"etaSeconds","type":"uint256","indexed":false,"internalType":"uint256"}],"anonymous":false},{"type":"event","name":"QuorumNumeratorUpdated","inputs":[{"name":"oldQuorumNumerator","type":"uint256","indexed":false,"internalType":"uint256"},{"name":"newQuorumNumerator","type":"uint256","indexed":false,"internalType":"uint256"}],"anonymous":false},{"type":"event","name":"TimelockChange","inputs":[{"name":"oldTimelock","type":"address","indexed":false,"internalType":"address"},{"name":"newTimelock","type":"address","indexed":false,"internalType":"address"}],"anonymous":false},{"type":"event","name":"VoteCast","inputs":[{"name":"voter","type":"address","indexed":true,"internalType":"address"},{"name":"proposalId","type":"uint256","indexed":false,"internalType":"uint256"},{"name":"support","type":"uint8","indexed":false,"internalType":"uint8"},{"name":"weight","type":"uint256","indexed":false,"internalType":"uint256"},{"name":"reason","type":"string","indexed":false,"internalType":"string"}],"anonymous":false},{"type":"event","name":"VoteCastWithParams","inputs":[{"name":"voter","type":"address","indexed":true,"internalType":"address"},{"name":"proposalId","type":"uint256","indexed":false,"internalType":"uint256"},{"name":"support","type":"uint8","indexed":false,"internalType":"uint8"},{"name":"weight","type":"uint256","indexed":false,"internalType":"uint256"},{"name":"reason","type":"string","indexed":false,"internalType":"string"},{"name":"params","type":"bytes","indexed":false,"internalType":"bytes"}],"anonymous":false},{"type":"error","name":"CheckpointUnorderedInsertion","inputs":[]},{"type":"error","name":"FailedCall","inputs":[]},{"type":"error","name":"GovernorAlreadyCastVote","inputs":[{"name":"voter","type":"address","internalType":"address"}]},{"type":"error","name":"GovernorAlreadyQueuedProposal","inputs":[{"name":"proposalId","type":"uint256","internalType":"uint256"}]},{"type":"error","name":"GovernorDisabledDeposit","inputs":[]},{"type":"error","name":"GovernorInsufficientProposerVotes","inputs":[{"name":"proposer","type":"address","internalType":"address"},{"name":"votes","type":"uint256","internalType":"uint256"},{"name":"threshold","type":"uint256","internalType":"uint256"}]},{"type":"error","name":"GovernorInvalidProposalLength","inputs":[{"name":"targets","type":"uint256","internalType":"uint256"},{"name":"calldatas","type":"uint256","internalType":"uint256"},{"name":"values","type":"uint256","internalType":"uint256"}]},{"type":"error","name":"GovernorInvalidQuorumFraction","inputs":[{"name":"quorumNumerator","type":"uint256","internalType":"uint256"},{"name":"quorumDenominator","type":"uint256","internalType":"uint256"}]},{"type":"error","name":"GovernorInvalidSignature","inputs":[{"name":"voter","type":"address","internalType":"address"}]},{"type":"error","name":"GovernorInvalidVoteParams","inputs":[]},{"type":"error","name":"GovernorInvalidVoteType","inputs":[]},{"type":"error","name":"GovernorInvalidVotingPeriod","inputs":[{"name":"votingPeriod","type":"uint256","internalType":"uint256"}]},{"type":"error","name":"GovernorNonexistentProposal","inputs":[{"name":"proposalId","type":"uint256","internalType":"uint256"}]},{"type":"error","name":"GovernorNotQueuedProposal","inputs":[{"name":"proposalId","type":"uint256","internalType":"uint256"}]},{"type":"error","name":"GovernorOnlyExecutor","inputs":[{"name":"account","type":"address","internalType":"address"}]},{"type":"error","name":"GovernorQueueNotImplemented","inputs":[]},{"type":"error","name":"GovernorRestrictedProposer","inputs":[{"name":"proposer","type":"address","internalType":"address"}]},{"type":"error","name":"GovernorUnableToCancel","inputs":[{"name":"proposalId","type":"uint256","internalType":"uint256"},{"name":"account","type":"address","internalType":"address"}]},{"type":"error","name":"GovernorUnexpectedProposalState","inputs":[{"name":"proposalId","type":"uint256","internalType":"uint256"},{"name":"current","type":"uint8","internalType":"enum IGovernor.ProposalState"},{"name":"expectedStates","type":"bytes32","internalType":"bytes32"}]},{"type":"error","name":"InvalidAccountNonce","inputs":[{"name":"account","type":"address","internalType":"address"},{"name":"currentNonce","type":"uint256","internalType":"uint256"}]},{"type":"error","name":"InvalidShortString","inputs":[]},{"type":"error","name":"SafeCastOverflowedUintDowncast","inputs":[{"name":"bits","type":"uint8","internalType":"uint8"},{"name":"value","type":"uint256","internalType":"uint256"}]},{"type":"error","name":"StringTooLong","inputs":[{"name":"str","type":"string","internalType":"string"}]}],"bytecode":{"object":"0x61018060405234801562000011575f80fd5b5060405162007e7038038062007e70833981810160405281019062000037919062000acb565b80600a836040518060400160405280600e81526020017f4d6f6e63686f476f7665726e6f720000000000000000000000000000000000008152508062000082620001a660201b60201c565b620000975f83620001e360201b90919060201c565b6101208181525050620000b5600182620001e360201b90919060201c565b6101408181525050818051906020012060e08181525050808051906020012061010081815250504660a08181525050620000f46200023860201b60201c565b608081815250503073ffffffffffffffffffffffffffffffffffffffff1660c08173ffffffffffffffffffffffffffffffffffffffff16815250505050806003908162000142919062000d74565b50508073ffffffffffffffffffffffffffffffffffffffff166101608173ffffffffffffffffffffffffffffffffffffffff1681525050506200018b816200029460201b60201c565b506200019d816200037d60201b60201c565b5050506200124a565b60606040518060400160405280600181526020017f3100000000000000000000000000000000000000000000000000000000000000815250905090565b5f602083511015620002085762000200836200041c60201b60201c565b905062000232565b826200021a836200048660201b60201c565b5f0190816200022a919062000d74565b5060ff5f1b90505b92915050565b5f7f8b73c3c69bb8fe3d512ecc4cf759cc79239f7b179b0ffacaa9a75d522b39400f60e0516101005146306040516020016200027995949392919062000e94565b60405160208183030381529060405280519060200120905090565b5f620002a56200048f60201b60201c565b905080821115620002f15781816040517f243e5445000000000000000000000000000000000000000000000000000000008152600401620002e892919062000eef565b60405180910390fd5b5f620003026200049760201b60201c565b90506200033b62000318620004cb60201b60201c565b62000329856200056b60201b60201c565b6008620005db60201b9092919060201c565b50507f0553476bf02ef2726e8ce5ced78d63e26e602e4a2257b1f559418e24b463399781846040516200037092919062000eef565b60405180910390a1505050565b7f08f74ea46ef7894f65eabfb5e6e695de773a000b47c529ab559178069b22640160095f9054906101000a900473ffffffffffffffffffffffffffffffffffffffff1682604051620003d192919062000f1a565b60405180910390a18060095f6101000a81548173ffffffffffffffffffffffffffffffffffffffff021916908373ffffffffffffffffffffffffffffffffffffffff16021790555050565b5f80829050601f815111156200046b57826040517f305a27a900000000000000000000000000000000000000000000000000000000815260040162000462919062000fcf565b60405180910390fd5b805181620004799062001020565b5f1c175f1b915050919050565b5f819050919050565b5f6064905090565b5f620004aa6008620005fe60201b60201c565b79ffffffffffffffffffffffffffffffffffffffffffffffffffff16905090565b5f620004dc6200066c60201b60201c565b73ffffffffffffffffffffffffffffffffffffffff166391ddadf46040518163ffffffff1660e01b8152600401602060405180830381865afa9250505080156200054657506040513d601f19601f82011682018060405250810190620005439190620010cf565b60015b62000563576200055b6200067660201b60201c565b905062000568565b809150505b90565b5f79ffffffffffffffffffffffffffffffffffffffffffffffffffff8016821115620005d35760d0826040517f6dfcc650000000000000000000000000000000000000000000000000000000008152600401620005ca9291906200114c565b60405180910390fd5b819050919050565b5f80620005f2855f0185856200068d60201b60201c565b91509150935093915050565b5f80825f018054905090505f8114620006625762000633835f01600183620006279190620011a4565b6200099060201b60201c565b5f0160069054906101000a900479ffffffffffffffffffffffffffffffffffffffffffffffffffff1662000664565b5f5b915050919050565b5f61016051905090565b5f6200068843620009a260201b60201c565b905090565b5f805f858054905090505f811115620008a8575f620006c187600184620006b59190620011a4565b6200099060201b60201c565b90505f815f015f9054906101000a900465ffffffffffff1690505f825f0160069054906101000a900479ffffffffffffffffffffffffffffffffffffffffffffffffffff1690508765ffffffffffff168265ffffffffffff16111562000753576040517f2520601d00000000000000000000000000000000000000000000000000000000815260040160405180910390fd5b8765ffffffffffff168265ffffffffffff1603620007bf5786835f0160066101000a81548179ffffffffffffffffffffffffffffffffffffffffffffffffffff021916908379ffffffffffffffffffffffffffffffffffffffffffffffffffff16021790555062000898565b8860405180604001604052808a65ffffffffffff1681526020018979ffffffffffffffffffffffffffffffffffffffffffffffffffff16815250908060018154018082558091505060019003905f5260205f20015f909190919091505f820151815f015f6101000a81548165ffffffffffff021916908365ffffffffffff1602179055506020820151815f0160066101000a81548179ffffffffffffffffffffffffffffffffffffffffffffffffffff021916908379ffffffffffffffffffffffffffffffffffffffffffffffffffff16021790555050505b8087955095505050505062000988565b8560405180604001604052808765ffffffffffff1681526020018679ffffffffffffffffffffffffffffffffffffffffffffffffffff16815250908060018154018082558091505060019003905f5260205f20015f909190919091505f820151815f015f6101000a81548165ffffffffffff021916908365ffffffffffff1602179055506020820151815f0160066101000a81548179ffffffffffffffffffffffffffffffffffffffffffffffffffff021916908379ffffffffffffffffffffffffffffffffffffffffffffffffffff16021790555050505f8492509250505b935093915050565b5f825f528160205f2001905092915050565b5f65ffffffffffff8016821115620009f6576030826040517f6dfcc650000000000000000000000000000000000000000000000000000000008152600401620009ed9291906200121f565b60405180910390fd5b819050919050565b5f80fd5b5f73ffffffffffffffffffffffffffffffffffffffff82169050919050565b5f62000a2d8262000a02565b9050919050565b5f62000a408262000a21565b9050919050565b62000a528162000a34565b811462000a5d575f80fd5b50565b5f8151905062000a708162000a47565b92915050565b5f62000a828262000a02565b9050919050565b5f62000a958262000a76565b9050919050565b62000aa78162000a89565b811462000ab2575f80fd5b50565b5f8151905062000ac58162000a9c565b92915050565b5f806040838503121562000ae45762000ae3620009fe565b5b5f62000af38582860162000a60565b925050602062000b068582860162000ab5565b9150509250929050565b5f81519050919050565b7f4e487b71000000000000000000000000000000000000000000000000000000005f52604160045260245ffd5b7f4e487b71000000000000000000000000000000000000000000000000000000005f52602260045260245ffd5b5f600282049050600182168062000b8c57607f821691505b60208210810362000ba25762000ba162000b47565b5b50919050565b5f819050815f5260205f209050919050565b5f6020601f8301049050919050565b5f82821b905092915050565b5f6008830262000c067fffffffffffffffffffffffffffffffffffffffffffffffffffffffffffffffff8262000bc9565b62000c12868362000bc9565b95508019841693508086168417925050509392505050565b5f819050919050565b5f819050919050565b5f62000c5c62000c5662000c508462000c2a565b62000c33565b62000c2a565b9050919050565b5f819050919050565b62000c778362000c3c565b62000c8f62000c868262000c63565b84845462000bd5565b825550505050565b5f90565b62000ca562000c97565b62000cb281848462000c6c565b505050565b5b8181101562000cd95762000ccd5f8262000c9b565b60018101905062000cb8565b5050565b601f82111562000d285762000cf28162000ba8565b62000cfd8462000bba565b8101602085101562000d0d578190505b62000d2562000d1c8562000bba565b83018262000cb7565b50505b505050565b5f82821c905092915050565b5f62000d4a5f198460080262000d2d565b1980831691505092915050565b5f62000d64838362000d39565b9150826002028217905092915050565b62000d7f8262000b10565b67ffffffffffffffff81111562000d9b5762000d9a62000b1a565b5b62000da7825462000b74565b62000db482828562000cdd565b5f60209050601f83116001811462000dea575f841562000dd5578287015190505b62000de1858262000d57565b86555062000e50565b601f19841662000dfa8662000ba8565b5f5b8281101562000e235784890151825560018201915060208501945060208101905062000dfc565b8683101562000e43578489015162000e3f601f89168262000d39565b8355505b6001600288020188555050505b505050505050565b5f819050919050565b62000e6c8162000e58565b82525050565b62000e7d8162000c2a565b82525050565b62000e8e8162000a21565b82525050565b5f60a08201905062000ea95f83018862000e61565b62000eb8602083018762000e61565b62000ec7604083018662000e61565b62000ed6606083018562000e72565b62000ee5608083018462000e83565b9695505050505050565b5f60408201905062000f045f83018562000e72565b62000f13602083018462000e72565b9392505050565b5f60408201905062000f2f5f83018562000e83565b62000f3e602083018462000e83565b9392505050565b5f82825260208201905092915050565b5f5b8381101562000f7457808201518184015260208101905062000f57565b5f8484015250505050565b5f601f19601f8301169050919050565b5f62000f9b8262000b10565b62000fa7818562000f45565b935062000fb981856020860162000f55565b62000fc48162000f7f565b840191505092915050565b5f6020820190508181035f83015262000fe9818462000f8f565b905092915050565b5f81519050919050565b5f819050602082019050919050565b5f62001017825162000e58565b80915050919050565b5f6200102c8262000ff1565b82620010388462000ffb565b905062001045816200100a565b925060208210156200108857620010837fffffffffffffffffffffffffffffffffffffffffffffffffffffffffffffffff8360200360080262000bc9565b831692505b5050919050565b5f65ffffffffffff82169050919050565b620010ab816200108f565b8114620010b6575f80fd5b50565b5f81519050620010c981620010a0565b92915050565b5f60208284031215620010e757620010e6620009fe565b5b5f620010f684828501620010b9565b91505092915050565b5f819050919050565b5f60ff82169050919050565b5f620011346200112e6200112884620010ff565b62000c33565b62001108565b9050919050565b620011468162001114565b82525050565b5f604082019050620011615f8301856200113b565b62001170602083018462000e72565b9392505050565b7f4e487b71000000000000000000000000000000000000000000000000000000005f52601160045260245ffd5b5f620011b08262000c2a565b9150620011bd8362000c2a565b9250828203905081811115620011d857620011d762001177565b5b92915050565b5f819050919050565b5f6200120762001201620011fb84620011de565b62000c33565b62001108565b9050919050565b6200121981620011e7565b82525050565b5f604082019050620012345f8301856200120e565b62001243602083018462000e72565b9392505050565b60805160a05160c05160e05161010051610120516101405161016051616bca620012a65f395f611aef01525f61267701525f61263c01525f61455d01525f61453c01525f613f5001525f613fa601525f613fcf0152616bca5ff3fe608060405260043610610280575f3560e01c80637ecebe001161014e578063b58131b0116100c0578063dd4e2ba511610079578063dd4e2ba514610b33578063deaaa7cc14610b5d578063eb9019d414610b87578063f23a6e6114610bc3578063f8ce560a14610bff578063fc0c546a14610c3b576102f3565b8063b58131b014610a0f578063bc197c8114610a39578063c01f9e3714610a75578063c28bc2fa14610ab1578063c59057e414610acd578063d33219b414610b09576102f3565b80639a802a6d116101125780639a802a6d146108cd578063a7713a7014610909578063a890c91014610933578063a8f8a6681461095b578063a9a9529414610997578063ab58fb8e146109d3576102f3565b80637ecebe00146107d157806384b0196e1461080d5780638ff262e31461083d57806391ddadf41461087957806397c3d334146108a3576102f3565b80633e4f49e6116101f257806356781388116101ab57806356781388146106695780635b8d0e0d146106a55780635f398a14146106e157806360c4247f1461071d5780637b3c71d3146107595780637d5e81e214610795576102f3565b80633e4f49e614610523578063438596321461055f578063452115d61461059b5780634bf5d7e9146105d7578063544ffc9c1461060157806354fd4d501461063f576102f3565b8063150b7a0211610244578063150b7a02146103eb578063160cbed7146104275780632656227d146104635780632d63f693146104935780632fe3e261146104cf5780633932abb1146104f9576102f3565b806301ffc9a7146102f757806302a251a31461033357806306f3f9e61461035d57806306fdde0314610385578063143489d0146103af576102f3565b366102f3573073ffffffffffffffffffffffffffffffffffffffff166102a4610c65565b73ffffffffffffffffffffffffffffffffffffffff16146102f1576040517fe90a651e00000000000000000000000000000000000000000000000000000000815260040160405180910390fd5b005b5f80fd5b348015610302575f80fd5b5061031d60048036038101906103189190614943565b610c73565b60405161032a9190614988565b60405180910390f35b34801561033e575f80fd5b50610347610c84565b60405161035491906149b9565b60405180910390f35b348015610368575f80fd5b50610383600480360381019061037e91906149fc565b610c8d565b005b348015610390575f80fd5b50610399610ca1565b6040516103a69190614ab1565b60405180910390f35b3480156103ba575f80fd5b506103d560048036038101906103d091906149fc565b610d31565b6040516103e29190614b10565b60405180910390f35b3480156103f6575f80fd5b50610411600480360381019061040c9190614c7f565b610d6c565b60405161041e9190614d0e565b60405180910390f35b348015610432575f80fd5b5061044d60048036038101906104489190614fbc565b610deb565b60405161045a91906149b9565b60405180910390f35b61047d60048036038101906104789190614fbc565b610ee1565b60405161048a91906149b9565b60405180910390f35b34801561049e575f80fd5b506104b960048036038101906104b491906149fc565b6110bb565b6040516104c691906149b9565b60405180910390f35b3480156104da575f80fd5b506104e36110f1565b6040516104f09190615083565b60405180910390f35b348015610504575f80fd5b5061050d611115565b60405161051a91906149b9565b60405180910390f35b34801561052e575f80fd5b50610549600480360381019061054491906149fc565b61111d565b604051610556919061510f565b60405180910390f35b34801561056a575f80fd5b5061058560048036038101906105809190615128565b61112e565b6040516105929190614988565b60405180910390f35b3480156105a6575f80fd5b506105c160048036038101906105bc9190614fbc565b611193565b6040516105ce91906149b9565b60405180910390f35b3480156105e2575f80fd5b506105eb611213565b6040516105f89190614ab1565b60405180910390f35b34801561060c575f80fd5b50610627600480360381019061062291906149fc565b6112d0565b60405161063693929190615166565b60405180910390f35b34801561064a575f80fd5b50610653611303565b6040516106609190614ab1565b60405180910390f35b348015610674575f80fd5b5061068f600480360381019061068a91906151d1565b611340565b60405161069c91906149b9565b60405180910390f35b3480156106b0575f80fd5b506106cb60048036038101906106c69190615268565b61136f565b6040516106d891906149b9565b60405180910390f35b3480156106ec575f80fd5b506107076004803603810190610702919061534a565b61145f565b60405161071491906149b9565b60405180910390f35b348015610728575f80fd5b50610743600480360381019061073e91906149fc565b6114c7565b60405161075091906149b9565b60405180910390f35b348015610764575f80fd5b5061077f600480360381019061077a91906153ea565b6114da565b60405161078c91906149b9565b60405180910390f35b3480156107a0575f80fd5b506107bb60048036038101906107b691906154f9565b611540565b6040516107c891906149b9565b60405180910390f35b3480156107dc575f80fd5b506107f760048036038101906107f291906155cd565b611557565b60405161080491906149b9565b60405180910390f35b348015610818575f80fd5b5061082161159d565b60405161083497969594939291906156e9565b60405180910390f35b348015610848575f80fd5b50610863600480360381019061085e919061576b565b611642565b60405161087091906149b9565b60405180910390f35b348015610884575f80fd5b5061088d6116b4565b60405161089a919061580b565b60405180910390f35b3480156108ae575f80fd5b506108b761173f565b6040516108c491906149b9565b60405180910390f35b3480156108d8575f80fd5b506108f360048036038101906108ee9190615824565b611747565b60405161090091906149b9565b60405180910390f35b348015610914575f80fd5b5061091d61175c565b60405161092a91906149b9565b60405180910390f35b34801561093e575f80fd5b50610959600480360381019061095491906158dc565b611788565b005b348015610966575f80fd5b50610981600480360381019061097c9190614fbc565b61179c565b60405161098e91906149b9565b60405180910390f35b3480156109a2575f80fd5b506109bd60048036038101906109b891906149fc565b6117b3565b6040516109ca9190614988565b60405180910390f35b3480156109de575f80fd5b506109f960048036038101906109f491906149fc565b6117c4565b604051610a0691906149b9565b60405180910390f35b348015610a1a575f80fd5b50610a236117fa565b604051610a3091906149b9565b60405180910390f35b348015610a44575f80fd5b50610a5f6004803603810190610a5a9190615907565b61180a565b604051610a6c9190614d0e565b60405180910390f35b348015610a80575f80fd5b50610a9b6004803603810190610a9691906149fc565b61188a565b604051610aa891906149b9565b60405180910390f35b610acb6004803603810190610ac69190615a27565b6118f4565b005b348015610ad8575f80fd5b50610af36004803603810190610aee9190614fbc565b61197d565b604051610b0091906149b9565b60405180910390f35b348015610b14575f80fd5b50610b1d6119b7565b604051610b2a9190614b10565b60405180910390f35b348015610b3e575f80fd5b50610b476119df565b604051610b549190614ab1565b60405180910390f35b348015610b68575f80fd5b50610b71611a1c565b604051610b7e9190615083565b60405180910390f35b348015610b92575f80fd5b50610bad6004803603810190610ba89190615a98565b611a40565b604051610bba91906149b9565b60405180910390f35b348015610bce575f80fd5b50610be96004803603810190610be49190615ad6565b611a5b565b604051610bf69190614d0e565b60405180910390f35b348015610c0a575f80fd5b50610c256004803603810190610c2091906149fc565b611adb565b604051610c3291906149b9565b60405180910390f35b348015610c46575f80fd5b50610c4f611aec565b604051610c5c9190615bc4565b60405180910390f35b5f610c6e611b13565b905090565b5f610c7d82611b3b565b9050919050565b5f61b2fa905090565b610c95611c8d565b610c9e81611d82565b50565b606060038054610cb090615c0a565b80601f0160208091040260200160405190810160405280929190818152602001828054610cdc90615c0a565b8015610d275780601f10610cfe57610100808354040283529160200191610d27565b820191905f5260205f20905b815481529060010190602001808311610d0a57829003601f168201915b5050505050905090565b5f60045f8381526020019081526020015f205f015f9054906101000a900473ffffffffffffffffffffffffffffffffffffffff169050919050565b5f3073ffffffffffffffffffffffffffffffffffffffff16610d8c610c65565b73ffffffffffffffffffffffffffffffffffffffff1614610dd9576040517fe90a651e00000000000000000000000000000000000000000000000000000000815260040160405180910390fd5b63150b7a0260e01b9050949350505050565b5f80610df98686868661179c565b9050610e0e81610e096004611e44565b611e68565b505f610e1d8288888888611ed3565b90505f8165ffffffffffff1614610ea2578060045f8481526020019081526020015f206001015f6101000a81548165ffffffffffff021916908365ffffffffffff1602179055507f9a2e42fd6722813d69113e7d0079d3d940171428df7373df9c7f7617cfda28928282604051610e95929190615c6a565b60405180910390a1610ed4565b6040517f90884a4600000000000000000000000000000000000000000000000000000000815260040160405180910390fd5b8192505050949350505050565b5f80610eef8686868661179c565b9050610f0f81610eff6005611e44565b610f096004611e44565b17611e68565b50600160045f8381526020019081526020015f205f01601e6101000a81548160ff0219169083151502179055503073ffffffffffffffffffffffffffffffffffffffff16610f5b610c65565b73ffffffffffffffffffffffffffffffffffffffff1614611011575f5b865181101561100f573073ffffffffffffffffffffffffffffffffffffffff16878281518110610fab57610faa615c91565b5b602002602001015173ffffffffffffffffffffffffffffffffffffffff160361100457611003858281518110610fe457610fe3615c91565b5b6020026020010151805190602001206005611eec90919063ffffffff16565b5b806001019050610f78565b505b61101e8187878787611fe4565b3073ffffffffffffffffffffffffffffffffffffffff1661103d610c65565b73ffffffffffffffffffffffffffffffffffffffff161415801561106857506110666005611ff8565b155b15611078576110776005612064565b5b7f712ae1383f79ac853f8d882153778e0260ef8f03b504e2866e0593e04d2b291f816040516110a791906149b9565b60405180910390a180915050949350505050565b5f60045f8381526020019081526020015f205f0160149054906101000a900465ffffffffffff1665ffffffffffff169050919050565b7f3e83946653575f9a39005e1545185629e92736b7528ab20ca3816f315424a81181565b5f6001905090565b5f611127826120da565b9050919050565b5f60075f8481526020019081526020015f206003015f8373ffffffffffffffffffffffffffffffffffffffff1673ffffffffffffffffffffffffffffffffffffffff1681526020019081526020015f205f9054906101000a900460ff16905092915050565b5f806111a18686868661179c565b90505f6111ac61228f565b90506111b88282612296565b6111fb5781816040517f8fe5d8a90000000000000000000000000000000000000000000000000000000081526004016111f2929190615cbe565b60405180910390fd5b6112078787878761230d565b92505050949350505050565b606061121d611aec565b73ffffffffffffffffffffffffffffffffffffffff16634bf5d7e96040518163ffffffff1660e01b81526004015f60405180830381865afa92505050801561128757506040513d5f823e3d601f19601f820116820180604052508101906112849190615d53565b60015b6112c8576040518060400160405280601d81526020017f6d6f64653d626c6f636b6e756d6265722666726f6d3d64656661756c7400000081525090506112cd565b809150505b90565b5f805f8060075f8681526020019081526020015f209050805f015481600101548260020154935093509350509193909250565b60606040518060400160405280600181526020017f3100000000000000000000000000000000000000000000000000000000000000815250905090565b5f8061134a61228f565b905061136684828560405180602001604052805f815250612324565b91505092915050565b5f6113c188888888888080601f0160208091040260200160405190810160405280939291908181526020018383808284375f81840152601f19601f820116905080830192505050505050508787612343565b61140257856040517f94ab6c070000000000000000000000000000000000000000000000000000000081526004016113f99190614b10565b60405180910390fd5b61145288878988888080601f0160208091040260200160405190810160405280939291908181526020018383808284375f81840152601f19601f82011690508083019250505050505050876123cb565b9050979650505050505050565b5f8061146961228f565b90506114bb87828888888080601f0160208091040260200160405190810160405280939291908181526020018383808284375f81840152601f19601f82011690508083019250505050505050876123cb565b91505095945050505050565b5f6114d36008836124d5565b9050919050565b5f806114e461228f565b905061153586828787878080601f0160208091040260200160405190810160405280939291908181526020018383808284375f81840152601f19601f82011690508083019250505050505050612324565b915050949350505050565b5f61154d8585858561253e565b9050949350505050565b5f60025f8373ffffffffffffffffffffffffffffffffffffffff1673ffffffffffffffffffffffffffffffffffffffff1681526020019081526020015f20549050919050565b5f6060805f805f60606115ae612634565b6115b661266e565b46305f801b5f67ffffffffffffffff8111156115d5576115d4614b5b565b5b6040519080825280602002602001820160405280156116035781602001602082028036833780820191505090505b507f0f00000000000000000000000000000000000000000000000000000000000000959493929190965096509650965096509650965090919293949596565b5f61164f858585856126a9565b61169057826040517f94ab6c070000000000000000000000000000000000000000000000000000000081526004016116879190614b10565b60405180910390fd5b6116aa85848660405180602001604052805f815250612324565b9050949350505050565b5f6116bd611aec565b73ffffffffffffffffffffffffffffffffffffffff166391ddadf46040518163ffffffff1660e01b8152600401602060405180830381865afa92505050801561172457506040513d601f19601f820116820180604052508101906117219190615dc4565b60015b6117375761173061271d565b905061173c565b809150505b90565b5f6064905090565b5f61175384848461272c565b90509392505050565b5f61176760086127b7565b79ffffffffffffffffffffffffffffffffffffffffffffffffffff16905090565b611790611c8d565b61179981612819565b50565b5f6117a98585858561197d565b9050949350505050565b5f6117bd826128b6565b9050919050565b5f60045f8381526020019081526020015f206001015f9054906101000a900465ffffffffffff1665ffffffffffff169050919050565b5f683635c9adc5dea00000905090565b5f3073ffffffffffffffffffffffffffffffffffffffff1661182a610c65565b73ffffffffffffffffffffffffffffffffffffffff1614611877576040517fe90a651e00000000000000000000000000000000000000000000000000000000815260040160405180910390fd5b63bc197c8160e01b905095945050505050565b5f60045f8381526020019081526020015f205f01601a9054906101000a900463ffffffff1663ffffffff1660045f8481526020019081526020015f205f0160149054906101000a900465ffffffffffff166118e59190615e1c565b65ffffffffffff169050919050565b6118fc611c8d565b5f808573ffffffffffffffffffffffffffffffffffffffff16858585604051611926929190615e83565b5f6040518083038185875af1925050503d805f8114611960576040519150601f19603f3d011682016040523d82523d5f602084013e611965565b606091505b509150915061197482826128c0565b50505050505050565b5f84848484604051602001611995949392919061605f565b604051602081830303815290604052805190602001205f1c9050949350505050565b5f60095f9054906101000a900473ffffffffffffffffffffffffffffffffffffffff16905090565b60606040518060400160405280602081526020017f737570706f72743d627261766f2671756f72756d3d666f722c6162737461696e815250905090565b7ff2aad550cf55f045cb27e9c559f9889fdfb6e6cdaa032301d6ea397784ae51d781565b5f611a538383611a4e6128e4565b61272c565b905092915050565b5f3073ffffffffffffffffffffffffffffffffffffffff16611a7b610c65565b73ffffffffffffffffffffffffffffffffffffffff1614611ac8576040517fe90a651e00000000000000000000000000000000000000000000000000000000815260040160405180910390fd5b63f23a6e6160e01b905095945050505050565b5f611ae5826128fa565b9050919050565b5f7f0000000000000000000000000000000000000000000000000000000000000000905090565b5f60095f9054906101000a900473ffffffffffffffffffffffffffffffffffffffff16905090565b5f7fcdbdfcee000000000000000000000000000000000000000000000000000000007bffffffffffffffffffffffffffffffffffffffffffffffffffffffff1916827bffffffffffffffffffffffffffffffffffffffffffffffffffffffff19161480611c0e575063a8f8a66860e01b7fcdbdfcee00000000000000000000000000000000000000000000000000000000187bffffffffffffffffffffffffffffffffffffffffffffffffffffffff1916827bffffffffffffffffffffffffffffffffffffffffffffffffffffffff1916145b80611c7657507f4e2312e0000000000000000000000000000000000000000000000000000000007bffffffffffffffffffffffffffffffffffffffffffffffffffffffff1916827bffffffffffffffffffffffffffffffffffffffffffffffffffffffff1916145b80611c865750611c858261299a565b5b9050919050565b611c9561228f565b73ffffffffffffffffffffffffffffffffffffffff16611cb3610c65565b73ffffffffffffffffffffffffffffffffffffffff1614611d1257611cd661228f565b6040517f47096e47000000000000000000000000000000000000000000000000000000008152600401611d099190614b10565b60405180910390fd5b3073ffffffffffffffffffffffffffffffffffffffff16611d31610c65565b73ffffffffffffffffffffffffffffffffffffffff1614611d80575f611d55612a03565b604051611d63929190615e83565b604051809103902090505b80611d796005612a0f565b03611d6e57505b565b5f611d8b61173f565b905080821115611dd45781816040517f243e5445000000000000000000000000000000000000000000000000000000008152600401611dcb9291906160b7565b60405180910390fd5b5f611ddd61175c565b9050611e04611dea6116b4565b611df385612b3d565b6008612baa9092919063ffffffff16565b50507f0553476bf02ef2726e8ce5ced78d63e26e602e4a2257b1f559418e24b46339978184604051611e379291906160b7565b60405180910390a1505050565b5f816007811115611e5857611e5761509c565b5b60ff166001901b5f1b9050919050565b5f80611e738461111d565b90505f801b83611e8283611e44565b1603611ec9578381846040517f31b75e4d000000000000000000000000000000000000000000000000000000008152600401611ec0939291906160de565b60405180910390fd5b8091505092915050565b5f611ee18686868686612bc5565b905095945050505050565b5f825f0160109054906101000a90046fffffffffffffffffffffffffffffffff169050825f015f9054906101000a90046fffffffffffffffffffffffffffffffff166fffffffffffffffffffffffffffffffff16600182016fffffffffffffffffffffffffffffffff1603611f6657611f656041612dcb565b5b81836001015f836fffffffffffffffffffffffffffffffff166fffffffffffffffffffffffffffffffff1681526020019081526020015f208190555060018101835f0160106101000a8154816fffffffffffffffffffffffffffffffff02191690836fffffffffffffffffffffffffffffffff160217905550505050565b611ff18585858585612ddc565b5050505050565b5f815f015f9054906101000a90046fffffffffffffffffffffffffffffffff166fffffffffffffffffffffffffffffffff16825f0160109054906101000a90046fffffffffffffffffffffffffffffffff166fffffffffffffffffffffffffffffffff16149050919050565b5f815f015f6101000a8154816fffffffffffffffffffffffffffffffff02191690836fffffffffffffffffffffffffffffffff1602179055505f815f0160106101000a8154816fffffffffffffffffffffffffffffffff02191690836fffffffffffffffffffffffffffffffff16021790555050565b5f806120e583612e90565b9050600560078111156120fb576120fa61509c565b5b81600781111561210e5761210d61509c565b5b1461211c578091505061228a565b5f600a5f8581526020019081526020015f2054905060095f9054906101000a900473ffffffffffffffffffffffffffffffffffffffff1673ffffffffffffffffffffffffffffffffffffffff1663584b153e826040518263ffffffff1660e01b815260040161218b9190615083565b602060405180830381865afa1580156121a6573d5f803e3d5ffd5b505050506040513d601f19601f820116820180604052508101906121ca919061613d565b156121da5760059250505061228a565b60095f9054906101000a900473ffffffffffffffffffffffffffffffffffffffff1673ffffffffffffffffffffffffffffffffffffffff16632ab0f529826040518263ffffffff1660e01b81526004016122349190615083565b602060405180830381865afa15801561224f573d5f803e3d5ffd5b505050506040513d601f19601f82011682018060405250810190612273919061613d565b156122835760079250505061228a565b6002925050505b919050565b5f33905090565b5f8060078111156122aa576122a961509c565b5b6122b38461111d565b60078111156122c5576122c461509c565b5b14801561230557506122d683610d31565b73ffffffffffffffffffffffffffffffffffffffff168273ffffffffffffffffffffffffffffffffffffffff16145b905092915050565b5f61231a85858585612fe7565b9050949350505050565b5f612339858585856123346128e4565b6123cb565b9050949350505050565b5f6123bf856123b97f3e83946653575f9a39005e1545185629e92736b7528ab20ca3816f315424a8118a8a8a6123788c6130be565b8b805190602001208b8051906020012060405160200161239e9796959493929190616177565b60405160208183030381529060405280519060200120613111565b8461312a565b90509695505050505050565b5f6123df866123da6001611e44565b611e68565b505f6123f4866123ee896110bb565b8561272c565b90505f61240488888885886131d6565b90505f845103612467578673ffffffffffffffffffffffffffffffffffffffff167fb8e138887d0aa13bab447e82de9d5c1777041ecd21ca36ba824ff1e6c07ddda48988848960405161245a94939291906161e4565b60405180910390a26124be565b8673ffffffffffffffffffffffffffffffffffffffff167fe2babfbac5889a709b63bb7f598b324e08bc5a4fb9ec647fb3cbc9ec07eb871289888489896040516124b5959493929190616276565b60405180910390a25b6124c7886133cb565b809250505095945050505050565b5f805f6124e1856133ce565b9250925050838265ffffffffffff161115612516576125116125028561345d565b866134b690919063ffffffff16565b612518565b805b79ffffffffffffffffffffffffffffffffffffffffffffffffffff169250505092915050565b5f8061254861228f565b905061255481846135a3565b61259557806040517fd9b3955700000000000000000000000000000000000000000000000000000000815260040161258c9190614b10565b60405180910390fd5b5f61259e6117fa565b90505f81111561261b575f6125ce8360016125b76116b4565b6125c191906162d5565b65ffffffffffff16611a40565b905081811015612619578281836040517fc242ee160000000000000000000000000000000000000000000000000000000081526004016126109392919061630e565b60405180910390fd5b505b6126288787878786613689565b92505050949350505050565b60606126695f7f000000000000000000000000000000000000000000000000000000000000000061390e90919063ffffffff16565b905090565b60606126a460017f000000000000000000000000000000000000000000000000000000000000000061390e90919063ffffffff16565b905090565b5f6127138361270d7ff2aad550cf55f045cb27e9c559f9889fdfb6e6cdaa032301d6ea397784ae51d78888886126de8a6130be565b6040516020016126f2959493929190616343565b60405160208183030381529060405280519060200120613111565b8461312a565b9050949350505050565b5f6127274361345d565b905090565b5f612735611aec565b73ffffffffffffffffffffffffffffffffffffffff16633a46b1a885856040518363ffffffff1660e01b815260040161276f929190616394565b602060405180830381865afa15801561278a573d5f803e3d5ffd5b505050506040513d601f19601f820116820180604052508101906127ae91906163cf565b90509392505050565b5f80825f018054905090505f811461280f576127e1835f016001836127dc91906163fa565b6139bb565b5f0160069054906101000a900479ffffffffffffffffffffffffffffffffffffffffffffffffffff16612811565b5f5b915050919050565b7f08f74ea46ef7894f65eabfb5e6e695de773a000b47c529ab559178069b22640160095f9054906101000a900473ffffffffffffffffffffffffffffffffffffffff168260405161286b92919061642d565b60405180910390a18060095f6101000a81548173ffffffffffffffffffffffffffffffffffffffff021916908373ffffffffffffffffffffffffffffffffffffffff16021790555050565b5f60019050919050565b6060826128d5576128d0826139cd565b6128dd565b8190506128de565b5b92915050565b606060405180602001604052805f815250905090565b5f612993612906611aec565b73ffffffffffffffffffffffffffffffffffffffff16638e539e8c846040518263ffffffff1660e01b815260040161293e91906149b9565b602060405180830381865afa158015612959573d5f803e3d5ffd5b505050506040513d601f19601f8201168201806040525081019061297d91906163cf565b612986846114c7565b61298e61173f565b613a10565b9050919050565b5f7f01ffc9a7000000000000000000000000000000000000000000000000000000007bffffffffffffffffffffffffffffffffffffffffffffffffffffffff1916827bffffffffffffffffffffffffffffffffffffffffffffffffffffffff1916149050919050565b365f8036915091509091565b5f80825f015f9054906101000a90046fffffffffffffffffffffffffffffffff169050825f0160109054906101000a90046fffffffffffffffffffffffffffffffff166fffffffffffffffffffffffffffffffff16816fffffffffffffffffffffffffffffffff1603612a8757612a866031612dcb565b5b826001015f826fffffffffffffffffffffffffffffffff166fffffffffffffffffffffffffffffffff1681526020019081526020015f20549150826001015f826fffffffffffffffffffffffffffffffff166fffffffffffffffffffffffffffffffff1681526020019081526020015f205f905560018101835f015f6101000a8154816fffffffffffffffffffffffffffffffff02191690836fffffffffffffffffffffffffffffffff16021790555050919050565b5f79ffffffffffffffffffffffffffffffffffffffffffffffffffff8016821115612ba25760d0826040517f6dfcc650000000000000000000000000000000000000000000000000000000008152600401612b9992919061648d565b60405180910390fd5b819050919050565b5f80612bb9855f018585613aef565b91509150935093915050565b5f8060095f9054906101000a900473ffffffffffffffffffffffffffffffffffffffff1673ffffffffffffffffffffffffffffffffffffffff1663f27a0c926040518163ffffffff1660e01b8152600401602060405180830381865afa158015612c31573d5f803e3d5ffd5b505050506040513d601f19601f82011682018060405250810190612c5591906163cf565b90505f612c6184613de3565b905060095f9054906101000a900473ffffffffffffffffffffffffffffffffffffffff1673ffffffffffffffffffffffffffffffffffffffff1663b1c5f4278888885f866040518663ffffffff1660e01b8152600401612cc59594939291906164f8565b602060405180830381865afa158015612ce0573d5f803e3d5ffd5b505050506040513d601f19601f82011682018060405250810190612d049190616572565b600a5f8a81526020019081526020015f208190555060095f9054906101000a900473ffffffffffffffffffffffffffffffffffffffff1673ffffffffffffffffffffffffffffffffffffffff16638f2a0bb08888885f86886040518763ffffffff1660e01b8152600401612d7d9695949392919061659d565b5f604051808303815f87803b158015612d94575f80fd5b505af1158015612da6573d5f803e3d5ffd5b50505050612dbe8242612db99190616611565b61345d565b9250505095945050505050565b634e487b715f52806020526024601cfd5b60095f9054906101000a900473ffffffffffffffffffffffffffffffffffffffff1673ffffffffffffffffffffffffffffffffffffffff1663e38335e5348686865f612e2788613de3565b6040518763ffffffff1660e01b8152600401612e479594939291906164f8565b5f604051808303818588803b158015612e5e575f80fd5b505af1158015612e70573d5f803e3d5ffd5b5050505050600a5f8681526020019081526020015f205f90555050505050565b5f8060045f8481526020019081526020015f2090505f815f01601e9054906101000a900460ff1690505f825f01601f9054906101000a900460ff1690508115612edf5760079350505050612fe2565b8015612ef15760029350505050612fe2565b5f612efb866110bb565b90505f8103612f4157856040517f6ad06075000000000000000000000000000000000000000000000000000000008152600401612f3891906149b9565b60405180910390fd5b5f612f4a6116b4565b65ffffffffffff169050808210612f68575f95505050505050612fe2565b5f612f728861188a565b9050818110612f8a5760019650505050505050612fe2565b612f9388613e00565b1580612fa55750612fa388613e44565b155b15612fb95760039650505050505050612fe2565b5f612fc3896117c4565b03612fd75760049650505050505050612fe2565b600596505050505050505b919050565b5f80612ff586868686613e6b565b90505f600a5f8381526020019081526020015f205490505f801b81146130b15760095f9054906101000a900473ffffffffffffffffffffffffffffffffffffffff1673ffffffffffffffffffffffffffffffffffffffff1663c4d252f5826040518263ffffffff1660e01b815260040161306f9190615083565b5f604051808303815f87803b158015613086575f80fd5b505af1158015613098573d5f803e3d5ffd5b50505050600a5f8381526020019081526020015f205f90555b8192505050949350505050565b5f60025f8373ffffffffffffffffffffffffffffffffffffffff1673ffffffffffffffffffffffffffffffffffffffff1681526020019081526020015f205f815480929190600101919050559050919050565b5f61312361311d613f4d565b83614003565b9050919050565b5f808473ffffffffffffffffffffffffffffffffffffffff163b036131c1575f806131558585614043565b50915091505f600381111561316d5761316c61509c565b5b8160038111156131805761317f61509c565b5b1480156131b857508573ffffffffffffffffffffffffffffffffffffffff168273ffffffffffffffffffffffffffffffffffffffff16145b925050506131cf565b6131cc848484614098565b90505b9392505050565b5f8060075f8881526020019081526020015f209050806003015f8773ffffffffffffffffffffffffffffffffffffffff1673ffffffffffffffffffffffffffffffffffffffff1681526020019081526020015f205f9054906101000a900460ff161561327957856040517f71c6af490000000000000000000000000000000000000000000000000000000081526004016132709190614b10565b60405180910390fd5b6001816003015f8873ffffffffffffffffffffffffffffffffffffffff1673ffffffffffffffffffffffffffffffffffffffff1681526020019081526020015f205f6101000a81548160ff0219169083151502179055505f60028111156132e3576132e261509c565b5b60ff168560ff160361330d5783815f015f8282546133019190616611565b925050819055506133be565b600160028111156133215761332061509c565b5b60ff168560ff160361334c5783816001015f8282546133409190616611565b925050819055506133bd565b60028081111561335f5761335e61509c565b5b60ff168560ff160361338a5783816002015f82825461337e9190616611565b925050819055506133bc565b6040517f06b337c200000000000000000000000000000000000000000000000000000000815260040160405180910390fd5b5b5b8391505095945050505050565b50565b5f805f80845f018054905090505f81036133f1575f805f93509350935050613456565b5f61340a865f0160018461340591906163fa565b6139bb565b90506001815f015f9054906101000a900465ffffffffffff16825f0160069054906101000a900479ffffffffffffffffffffffffffffffffffffffffffffffffffff1694509450945050505b9193909250565b5f65ffffffffffff80168211156134ae576030826040517f6dfcc6500000000000000000000000000000000000000000000000000000000081526004016134a592919061667d565b60405180910390fd5b819050919050565b5f80835f018054905090505f808290506005831115613537575f6134d9846140e9565b846134e491906163fa565b90506134f2875f01826139bb565b5f015f9054906101000a900465ffffffffffff1665ffffffffffff168665ffffffffffff16101561352557809150613535565b6001816135329190616611565b92505b505b5f613546875f01878585614283565b90505f811461359557613567875f0160018361356291906163fa565b6139bb565b5f0160069054906101000a900479ffffffffffffffffffffffffffffffffffffffffffffffffffff16613597565b5f5b94505050505092915050565b5f808251905060348110156135bc576001915050613683565b5f6135ca84603484036142f8565b90507f2370726f706f7365723d0000000000000000000000000000000000000000000075ffffffffffffffffffffffffffffffffffffffffffff19168175ffffffffffffffffffffffffffffffffffffffffffff19161461363057600192505050613683565b5f8061364086602a860386614308565b9150915081158061367c57508673ffffffffffffffffffffffffffffffffffffffff168173ffffffffffffffffffffffffffffffffffffffff16145b9450505050505b92915050565b5f61369d868686868051906020012061179c565b9050845186511415806136b257508351865114155b806136bd57505f8651145b15613706578551845186516040517f447b05d00000000000000000000000000000000000000000000000000000000081526004016136fd93929190615166565b60405180910390fd5b5f60045f8381526020019081526020015f205f0160149054906101000a900465ffffffffffff1665ffffffffffff161461378557806137448261111d565b5f801b6040517f31b75e4d00000000000000000000000000000000000000000000000000000000815260040161377c939291906160de565b60405180910390fd5b5f61378e611115565b6137966116b4565b65ffffffffffff166137a89190616611565b90505f6137b3610c84565b90505f60045f8581526020019081526020015f20905084815f015f6101000a81548173ffffffffffffffffffffffffffffffffffffffff021916908373ffffffffffffffffffffffffffffffffffffffff1602179055506138138361345d565b815f0160146101000a81548165ffffffffffff021916908365ffffffffffff16021790555061384182614419565b815f01601a6101000a81548163ffffffff021916908363ffffffff1602179055507f7d84a6263ae0d98d3329bd7b46bb4e8d6f98cd35a7adb45c274c8b7fd5ebd5e084868b8b8d5167ffffffffffffffff8111156138a2576138a1614b5b565b5b6040519080825280602002602001820160405280156138d557816020015b60608152602001906001900390816138c05790505b508c89898b6138e49190616611565b8e6040516138fa999897969594939291906167a7565b60405180910390a150505095945050505050565b606060ff5f1b831461392a5761392383614470565b90506139b5565b81805461393690615c0a565b80601f016020809104026020016040519081016040528092919081815260200182805461396290615c0a565b80156139ad5780601f10613984576101008083540402835291602001916139ad565b820191905f5260205f20905b81548152906001019060200180831161399057829003601f168201915b505050505090505b92915050565b5f825f528160205f2001905092915050565b5f815111156139de57805160208201fd5b6040517fd6bda27500000000000000000000000000000000000000000000000000000000815260040160405180910390fd5b5f805f613a1d86866144e2565b915091505f8203613a4257838181613a3857613a37616855565b5b0492505050613ae8565b818411613a6157613a60613a5b5f8614601260116144ff565b612dcb565b5b5f8486880990508181118303925080820391505f855f038616905080860495508083049250600181825f0304019050808402831792505f600287600302189050808702600203810290508087026002038102905080870260020381029050808702600203810290508087026002038102905080870260020381029050808402955050505050505b9392505050565b5f805f858054905090505f811115613cfb575f613b1887600184613b1391906163fa565b6139bb565b90505f815f015f9054906101000a900465ffffffffffff1690505f825f0160069054906101000a900479ffffffffffffffffffffffffffffffffffffffffffffffffffff1690508765ffffffffffff168265ffffffffffff161115613ba9576040517f2520601d00000000000000000000000000000000000000000000000000000000815260040160405180910390fd5b8765ffffffffffff168265ffffffffffff1603613c135786835f0160066101000a81548179ffffffffffffffffffffffffffffffffffffffffffffffffffff021916908379ffffffffffffffffffffffffffffffffffffffffffffffffffff160217905550613cec565b8860405180604001604052808a65ffffffffffff1681526020018979ffffffffffffffffffffffffffffffffffffffffffffffffffff16815250908060018154018082558091505060019003905f5260205f20015f909190919091505f820151815f015f6101000a81548165ffffffffffff021916908365ffffffffffff1602179055506020820151815f0160066101000a81548179ffffffffffffffffffffffffffffffffffffffffffffffffffff021916908379ffffffffffffffffffffffffffffffffffffffffffffffffffff16021790555050505b80879550955050505050613ddb565b8560405180604001604052808765ffffffffffff1681526020018679ffffffffffffffffffffffffffffffffffffffffffffffffffff16815250908060018154018082558091505060019003905f5260205f20015f909190919091505f820151815f015f6101000a81548165ffffffffffff021916908365ffffffffffff1602179055506020820151815f0160066101000a81548179ffffffffffffffffffffffffffffffffffffffffffffffffffff021916908379ffffffffffffffffffffffffffffffffffffffffffffffffffff16021790555050505f8492509250505b935093915050565b5f813060601b6bffffffffffffffffffffffff1916189050919050565b5f8060075f8481526020019081526020015f20905080600201548160010154613e299190616611565b613e3a613e35856110bb565b611adb565b1115915050919050565b5f8060075f8481526020019081526020015f209050805f0154816001015411915050919050565b5f80613e798686868661179c565b9050613edd81613e896007611e44565b613e936006611e44565b613e9d6002611e44565b600180600780811115613eb357613eb261509c565b5b613ebd9190616882565b6002613ec991906169e5565b613ed391906163fa565b5f1b181818611e68565b50600160045f8381526020019081526020015f205f01601f6101000a81548160ff0219169083151502179055507f789cf55be980739dad1d0699b93b58e806b51c9d96619bfa8fe0a28abaa7b30c81604051613f3991906149b9565b60405180910390a180915050949350505050565b5f7f000000000000000000000000000000000000000000000000000000000000000073ffffffffffffffffffffffffffffffffffffffff163073ffffffffffffffffffffffffffffffffffffffff16148015613fc857507f000000000000000000000000000000000000000000000000000000000000000046145b15613ff5577f00000000000000000000000000000000000000000000000000000000000000009050614000565b613ffd614518565b90505b90565b5f6040517f190100000000000000000000000000000000000000000000000000000000000081528360028201528260228201526042812091505092915050565b5f805f6041845103614083575f805f602087015192506040870151915060608701515f1a9050614075888285856145ad565b955095509550505050614091565b5f600285515f1b9250925092505b9250925092565b5f80631626ba7e60e01b90505f83519050604051828152856004820152604060248201526020820185604483015e60205f60648401838a5afa835f511460193d111681169450505050509392505050565b5f600182116140fa5781905061427e565b5f8290505f60019050700100000000000000000000000000000000821061412a57608082901c9150604081901b90505b68010000000000000000821061414957604082901c9150602081901b90505b640100000000821061416457602082901c9150601081901b90505b62010000821061417d57601082901c9150600881901b90505b610100821061419557600882901c9150600481901b90505b601082106141ac57600482901c9150600281901b90505b600482106141bc57600181901b90505b600181600302901c905060018185816141d8576141d7616855565b5b048201901c905060018185816141f1576141f0616855565b5b048201901c9050600181858161420a57614209616855565b5b048201901c9050600181858161422357614222616855565b5b048201901c9050600181858161423c5761423b616855565b5b048201901c9050600181858161425557614254616855565b5b048201901c905061427781858161426f5761426e616855565b5b048211614694565b8103925050505b919050565b5f5b818310156142ed575f614298848461469f565b90508465ffffffffffff166142ad87836139bb565b5f015f9054906101000a900465ffffffffffff1665ffffffffffff1611156142d7578092506142e7565b6001816142e49190616611565b93505b50614285565b819050949350505050565b5f81602084010151905092915050565b5f80845183118061431857508284115b15614328575f8091509150614411565b5f6001856143369190616611565b841180156143ae57507f30780000000000000000000000000000000000000000000000000000000000007dffffffffffffffffffffffffffffffffffffffffffffffffffffffffffff191661438b87876146c4565b7dffffffffffffffffffffffffffffffffffffffffffffffffffffffffffff1916145b90505f60026143be831515614694565b6143c89190616a2f565b60286143d49190616611565b90508086866143e391906163fa565b03614408575f806143f58989896146d4565b9150915081819550955050505050614411565b5f809350935050505b935093915050565b5f63ffffffff8016821115614468576020826040517f6dfcc65000000000000000000000000000000000000000000000000000000000815260040161445f929190616aa9565b60405180910390fd5b819050919050565b60605f61447c836147ff565b90505f602067ffffffffffffffff81111561449a57614499614b5b565b5b6040519080825280601f01601f1916602001820160405280156144cc5781602001600182028036833780820191505090505b5090508181528360208201528092505050919050565b5f805f198385098385029150818110828203039250509250929050565b5f61450984614694565b82841802821890509392505050565b5f7f8b73c3c69bb8fe3d512ecc4cf759cc79239f7b179b0ffacaa9a75d522b39400f7f00000000000000000000000000000000000000000000000000000000000000007f00000000000000000000000000000000000000000000000000000000000000004630604051602001614592959493929190616ad0565b60405160208183030381529060405280519060200120905090565b5f805f7f7fffffffffffffffffffffffffffffff5d576e7357a4501ddfe92f46681b20a0845f1c11156145e9575f60038592509250925061468a565b5f6001888888886040515f815260200160405260405161460c9493929190616b21565b6020604051602081039080840390855afa15801561462c573d5f803e3d5ffd5b5050506020604051035190505f73ffffffffffffffffffffffffffffffffffffffff168173ffffffffffffffffffffffffffffffffffffffff160361467d575f60015f801b9350935093505061468a565b805f805f1b935093509350505b9450945094915050565b5f8115159050919050565b5f60028284186146af9190616b64565b8284166146bc9190616611565b905092915050565b5f81602084010151905092915050565b5f805f8590505f6001866146e89190616611565b8511801561476057507f30780000000000000000000000000000000000000000000000000000000000007dffffffffffffffffffffffffffffffffffffffffffffffffffffffffffff191661473d83886146c4565b7dffffffffffffffffffffffffffffffffffffffffffffffffffffffffffff1916145b90505f6002614770831515614694565b61477a9190616a2f565b90505f80828961478a9190616611565b90505b878110156147ea575f6147a86147a387846146c4565b61484d565b9050600f8160ff1611156147c7575f80975097505050505050506147f7565b6010836147d49190616a2f565b92508060ff16830192505080600101905061478d565b5060018195509550505050505b935093915050565b5f8060ff835f1c169050601f811115614844576040517fb3512b0c00000000000000000000000000000000000000000000000000000000815260040160405180910390fd5b80915050919050565b5f808260f81c9050602f8160ff1611801561486b5750603a8160ff16105b1561487b576030810390506148d3565b60608160ff16118015614891575060678160ff16105b156148a1576057810390506148d2565b60408160ff161180156148b7575060478160ff16105b156148c7576037810390506148d1565b60ff9150506148d8565b5b5b809150505b919050565b5f604051905090565b5f80fd5b5f80fd5b5f7fffffffff0000000000000000000000000000000000000000000000000000000082169050919050565b614922816148ee565b811461492c575f80fd5b50565b5f8135905061493d81614919565b92915050565b5f60208284031215614958576149576148e6565b5b5f6149658482850161492f565b91505092915050565b5f8115159050919050565b6149828161496e565b82525050565b5f60208201905061499b5f830184614979565b92915050565b5f819050919050565b6149b3816149a1565b82525050565b5f6020820190506149cc5f8301846149aa565b92915050565b6149db816149a1565b81146149e5575f80fd5b50565b5f813590506149f6816149d2565b92915050565b5f60208284031215614a1157614a106148e6565b5b5f614a1e848285016149e8565b91505092915050565b5f81519050919050565b5f82825260208201905092915050565b5f5b83811015614a5e578082015181840152602081019050614a43565b5f8484015250505050565b5f601f19601f8301169050919050565b5f614a8382614a27565b614a8d8185614a31565b9350614a9d818560208601614a41565b614aa681614a69565b840191505092915050565b5f6020820190508181035f830152614ac98184614a79565b905092915050565b5f73ffffffffffffffffffffffffffffffffffffffff82169050919050565b5f614afa82614ad1565b9050919050565b614b0a81614af0565b82525050565b5f602082019050614b235f830184614b01565b92915050565b614b3281614af0565b8114614b3c575f80fd5b50565b5f81359050614b4d81614b29565b92915050565b5f80fd5b5f80fd5b7f4e487b71000000000000000000000000000000000000000000000000000000005f52604160045260245ffd5b614b9182614a69565b810181811067ffffffffffffffff82111715614bb057614baf614b5b565b5b80604052505050565b5f614bc26148dd565b9050614bce8282614b88565b919050565b5f67ffffffffffffffff821115614bed57614bec614b5b565b5b614bf682614a69565b9050602081019050919050565b828183375f83830152505050565b5f614c23614c1e84614bd3565b614bb9565b905082815260208101848484011115614c3f57614c3e614b57565b5b614c4a848285614c03565b509392505050565b5f82601f830112614c6657614c65614b53565b5b8135614c76848260208601614c11565b91505092915050565b5f805f8060808587031215614c9757614c966148e6565b5b5f614ca487828801614b3f565b9450506020614cb587828801614b3f565b9350506040614cc6878288016149e8565b925050606085013567ffffffffffffffff811115614ce757614ce66148ea565b5b614cf387828801614c52565b91505092959194509250565b614d08816148ee565b82525050565b5f602082019050614d215f830184614cff565b92915050565b5f67ffffffffffffffff821115614d4157614d40614b5b565b5b602082029050602081019050919050565b5f80fd5b5f614d68614d6384614d27565b614bb9565b90508083825260208201905060208402830185811115614d8b57614d8a614d52565b5b835b81811015614db45780614da08882614b3f565b845260208401935050602081019050614d8d565b5050509392505050565b5f82601f830112614dd257614dd1614b53565b5b8135614de2848260208601614d56565b91505092915050565b5f67ffffffffffffffff821115614e0557614e04614b5b565b5b602082029050602081019050919050565b5f614e28614e2384614deb565b614bb9565b90508083825260208201905060208402830185811115614e4b57614e4a614d52565b5b835b81811015614e745780614e6088826149e8565b845260208401935050602081019050614e4d565b5050509392505050565b5f82601f830112614e9257614e91614b53565b5b8135614ea2848260208601614e16565b91505092915050565b5f67ffffffffffffffff821115614ec557614ec4614b5b565b5b602082029050602081019050919050565b5f614ee8614ee384614eab565b614bb9565b90508083825260208201905060208402830185811115614f0b57614f0a614d52565b5b835b81811015614f5257803567ffffffffffffffff811115614f3057614f2f614b53565b5b808601614f3d8982614c52565b85526020850194505050602081019050614f0d565b5050509392505050565b5f82601f830112614f7057614f6f614b53565b5b8135614f80848260208601614ed6565b91505092915050565b5f819050919050565b614f9b81614f89565b8114614fa5575f80fd5b50565b5f81359050614fb681614f92565b92915050565b5f805f8060808587031215614fd457614fd36148e6565b5b5f85013567ffffffffffffffff811115614ff157614ff06148ea565b5b614ffd87828801614dbe565b945050602085013567ffffffffffffffff81111561501e5761501d6148ea565b5b61502a87828801614e7e565b935050604085013567ffffffffffffffff81111561504b5761504a6148ea565b5b61505787828801614f5c565b925050606061506887828801614fa8565b91505092959194509250565b61507d81614f89565b82525050565b5f6020820190506150965f830184615074565b92915050565b7f4e487b71000000000000000000000000000000000000000000000000000000005f52602160045260245ffd5b600881106150da576150d961509c565b5b50565b5f8190506150ea826150c9565b919050565b5f6150f9826150dd565b9050919050565b615109816150ef565b82525050565b5f6020820190506151225f830184615100565b92915050565b5f806040838503121561513e5761513d6148e6565b5b5f61514b858286016149e8565b925050602061515c85828601614b3f565b9150509250929050565b5f6060820190506151795f8301866149aa565b61518660208301856149aa565b61519360408301846149aa565b949350505050565b5f60ff82169050919050565b6151b08161519b565b81146151ba575f80fd5b50565b5f813590506151cb816151a7565b92915050565b5f80604083850312156151e7576151e66148e6565b5b5f6151f4858286016149e8565b9250506020615205858286016151bd565b9150509250929050565b5f80fd5b5f8083601f84011261522857615227614b53565b5b8235905067ffffffffffffffff8111156152455761524461520f565b5b60208301915083600182028301111561526157615260614d52565b5b9250929050565b5f805f805f805f60c0888a031215615283576152826148e6565b5b5f6152908a828b016149e8565b97505060206152a18a828b016151bd565b96505060406152b28a828b01614b3f565b955050606088013567ffffffffffffffff8111156152d3576152d26148ea565b5b6152df8a828b01615213565b9450945050608088013567ffffffffffffffff811115615302576153016148ea565b5b61530e8a828b01614c52565b92505060a088013567ffffffffffffffff81111561532f5761532e6148ea565b5b61533b8a828b01614c52565b91505092959891949750929550565b5f805f805f60808688031215615363576153626148e6565b5b5f615370888289016149e8565b9550506020615381888289016151bd565b945050604086013567ffffffffffffffff8111156153a2576153a16148ea565b5b6153ae88828901615213565b9350935050606086013567ffffffffffffffff8111156153d1576153d06148ea565b5b6153dd88828901614c52565b9150509295509295909350565b5f805f8060608587031215615402576154016148e6565b5b5f61540f878288016149e8565b9450506020615420878288016151bd565b935050604085013567ffffffffffffffff811115615441576154406148ea565b5b61544d87828801615213565b925092505092959194509250565b5f67ffffffffffffffff82111561547557615474614b5b565b5b61547e82614a69565b9050602081019050919050565b5f61549d6154988461545b565b614bb9565b9050828152602081018484840111156154b9576154b8614b57565b5b6154c4848285614c03565b509392505050565b5f82601f8301126154e0576154df614b53565b5b81356154f084826020860161548b565b91505092915050565b5f805f8060808587031215615511576155106148e6565b5b5f85013567ffffffffffffffff81111561552e5761552d6148ea565b5b61553a87828801614dbe565b945050602085013567ffffffffffffffff81111561555b5761555a6148ea565b5b61556787828801614e7e565b935050604085013567ffffffffffffffff811115615588576155876148ea565b5b61559487828801614f5c565b925050606085013567ffffffffffffffff8111156155b5576155b46148ea565b5b6155c1878288016154cc565b91505092959194509250565b5f602082840312156155e2576155e16148e6565b5b5f6155ef84828501614b3f565b91505092915050565b5f7fff0000000000000000000000000000000000000000000000000000000000000082169050919050565b61562c816155f8565b82525050565b5f81519050919050565b5f82825260208201905092915050565b5f819050602082019050919050565b615664816149a1565b82525050565b5f615675838361565b565b60208301905092915050565b5f602082019050919050565b5f61569782615632565b6156a1818561563c565b93506156ac8361564c565b805f5b838110156156dc5781516156c3888261566a565b97506156ce83615681565b9250506001810190506156af565b5085935050505092915050565b5f60e0820190506156fc5f83018a615623565b818103602083015261570e8189614a79565b905081810360408301526157228188614a79565b905061573160608301876149aa565b61573e6080830186614b01565b61574b60a0830185615074565b81810360c083015261575d818461568d565b905098975050505050505050565b5f805f8060808587031215615783576157826148e6565b5b5f615790878288016149e8565b94505060206157a1878288016151bd565b93505060406157b287828801614b3f565b925050606085013567ffffffffffffffff8111156157d3576157d26148ea565b5b6157df87828801614c52565b91505092959194509250565b5f65ffffffffffff82169050919050565b615805816157eb565b82525050565b5f60208201905061581e5f8301846157fc565b92915050565b5f805f6060848603121561583b5761583a6148e6565b5b5f61584886828701614b3f565b9350506020615859868287016149e8565b925050604084013567ffffffffffffffff81111561587a576158796148ea565b5b61588686828701614c52565b9150509250925092565b5f61589a82614ad1565b9050919050565b5f6158ab82615890565b9050919050565b6158bb816158a1565b81146158c5575f80fd5b50565b5f813590506158d6816158b2565b92915050565b5f602082840312156158f1576158f06148e6565b5b5f6158fe848285016158c8565b91505092915050565b5f805f805f60a086880312156159205761591f6148e6565b5b5f61592d88828901614b3f565b955050602061593e88828901614b3f565b945050604086013567ffffffffffffffff81111561595f5761595e6148ea565b5b61596b88828901614e7e565b935050606086013567ffffffffffffffff81111561598c5761598b6148ea565b5b61599888828901614e7e565b925050608086013567ffffffffffffffff8111156159b9576159b86148ea565b5b6159c588828901614c52565b9150509295509295909350565b5f8083601f8401126159e7576159e6614b53565b5b8235905067ffffffffffffffff811115615a0457615a0361520f565b5b602083019150836001820283011115615a2057615a1f614d52565b5b9250929050565b5f805f8060608587031215615a3f57615a3e6148e6565b5b5f615a4c87828801614b3f565b9450506020615a5d878288016149e8565b935050604085013567ffffffffffffffff811115615a7e57615a7d6148ea565b5b615a8a878288016159d2565b925092505092959194509250565b5f8060408385031215615aae57615aad6148e6565b5b5f615abb85828601614b3f565b9250506020615acc858286016149e8565b9150509250929050565b5f805f805f60a08688031215615aef57615aee6148e6565b5b5f615afc88828901614b3f565b9550506020615b0d88828901614b3f565b9450506040615b1e888289016149e8565b9350506060615b2f888289016149e8565b925050608086013567ffffffffffffffff811115615b5057615b4f6148ea565b5b615b5c88828901614c52565b9150509295509295909350565b5f819050919050565b5f615b8c615b87615b8284614ad1565b615b69565b614ad1565b9050919050565b5f615b9d82615b72565b9050919050565b5f615bae82615b93565b9050919050565b615bbe81615ba4565b82525050565b5f602082019050615bd75f830184615bb5565b92915050565b7f4e487b71000000000000000000000000000000000000000000000000000000005f52602260045260245ffd5b5f6002820490506001821680615c2157607f821691505b602082108103615c3457615c33615bdd565b5b50919050565b5f615c54615c4f615c4a846157eb565b615b69565b6149a1565b9050919050565b615c6481615c3a565b82525050565b5f604082019050615c7d5f8301856149aa565b615c8a6020830184615c5b565b9392505050565b7f4e487b71000000000000000000000000000000000000000000000000000000005f52603260045260245ffd5b5f604082019050615cd15f8301856149aa565b615cde6020830184614b01565b9392505050565b5f615cf7615cf28461545b565b614bb9565b905082815260208101848484011115615d1357615d12614b57565b5b615d1e848285614a41565b509392505050565b5f82601f830112615d3a57615d39614b53565b5b8151615d4a848260208601615ce5565b91505092915050565b5f60208284031215615d6857615d676148e6565b5b5f82015167ffffffffffffffff811115615d8557615d846148ea565b5b615d9184828501615d26565b91505092915050565b615da3816157eb565b8114615dad575f80fd5b50565b5f81519050615dbe81615d9a565b92915050565b5f60208284031215615dd957615dd86148e6565b5b5f615de684828501615db0565b91505092915050565b7f4e487b71000000000000000000000000000000000000000000000000000000005f52601160045260245ffd5b5f615e26826157eb565b9150615e31836157eb565b9250828201905065ffffffffffff811115615e4f57615e4e615def565b5b92915050565b5f81905092915050565b5f615e6a8385615e55565b9350615e77838584614c03565b82840190509392505050565b5f615e8f828486615e5f565b91508190509392505050565b5f81519050919050565b5f82825260208201905092915050565b5f819050602082019050919050565b615ecd81614af0565b82525050565b5f615ede8383615ec4565b60208301905092915050565b5f602082019050919050565b5f615f0082615e9b565b615f0a8185615ea5565b9350615f1583615eb5565b805f5b83811015615f45578151615f2c8882615ed3565b9750615f3783615eea565b925050600181019050615f18565b5085935050505092915050565b5f81519050919050565b5f82825260208201905092915050565b5f819050602082019050919050565b5f81519050919050565b5f82825260208201905092915050565b5f615f9f82615f7b565b615fa98185615f85565b9350615fb9818560208601614a41565b615fc281614a69565b840191505092915050565b5f615fd88383615f95565b905092915050565b5f602082019050919050565b5f615ff682615f52565b6160008185615f5c565b93508360208202850161601285615f6c565b805f5b8581101561604d578484038952815161602e8582615fcd565b945061603983615fe0565b925060208a01995050600181019050616015565b50829750879550505050505092915050565b5f6080820190508181035f8301526160778187615ef6565b9050818103602083015261608b818661568d565b9050818103604083015261609f8185615fec565b90506160ae6060830184615074565b95945050505050565b5f6040820190506160ca5f8301856149aa565b6160d760208301846149aa565b9392505050565b5f6060820190506160f15f8301866149aa565b6160fe6020830185615100565b61610b6040830184615074565b949350505050565b61611c8161496e565b8114616126575f80fd5b50565b5f8151905061613781616113565b92915050565b5f60208284031215616152576161516148e6565b5b5f61615f84828501616129565b91505092915050565b6161718161519b565b82525050565b5f60e08201905061618a5f83018a615074565b61619760208301896149aa565b6161a46040830188616168565b6161b16060830187614b01565b6161be60808301866149aa565b6161cb60a0830185615074565b6161d860c0830184615074565b98975050505050505050565b5f6080820190506161f75f8301876149aa565b6162046020830186616168565b61621160408301856149aa565b81810360608301526162238184614a79565b905095945050505050565b5f82825260208201905092915050565b5f61624882615f7b565b616252818561622e565b9350616262818560208601614a41565b61626b81614a69565b840191505092915050565b5f60a0820190506162895f8301886149aa565b6162966020830187616168565b6162a360408301866149aa565b81810360608301526162b58185614a79565b905081810360808301526162c9818461623e565b90509695505050505050565b5f6162df826157eb565b91506162ea836157eb565b9250828203905065ffffffffffff81111561630857616307615def565b5b92915050565b5f6060820190506163215f830186614b01565b61632e60208301856149aa565b61633b60408301846149aa565b949350505050565b5f60a0820190506163565f830188615074565b61636360208301876149aa565b6163706040830186616168565b61637d6060830185614b01565b61638a60808301846149aa565b9695505050505050565b5f6040820190506163a75f830185614b01565b6163b460208301846149aa565b9392505050565b5f815190506163c9816149d2565b92915050565b5f602082840312156163e4576163e36148e6565b5b5f6163f1848285016163bb565b91505092915050565b5f616404826149a1565b915061640f836149a1565b925082820390508181111561642757616426615def565b5b92915050565b5f6040820190506164405f830185614b01565b61644d6020830184614b01565b9392505050565b5f819050919050565b5f61647761647261646d84616454565b615b69565b61519b565b9050919050565b6164878161645d565b82525050565b5f6040820190506164a05f83018561647e565b6164ad60208301846149aa565b9392505050565b5f819050919050565b5f815f1b9050919050565b5f6164e26164dd6164d8846164b4565b6164bd565b614f89565b9050919050565b6164f2816164c8565b82525050565b5f60a0820190508181035f8301526165108188615ef6565b90508181036020830152616524818761568d565b905081810360408301526165388186615fec565b905061654760608301856164e9565b6165546080830184615074565b9695505050505050565b5f8151905061656c81614f92565b92915050565b5f60208284031215616587576165866148e6565b5b5f6165948482850161655e565b91505092915050565b5f60c0820190508181035f8301526165b58189615ef6565b905081810360208301526165c9818861568d565b905081810360408301526165dd8187615fec565b90506165ec60608301866164e9565b6165f96080830185615074565b61660660a08301846149aa565b979650505050505050565b5f61661b826149a1565b9150616626836149a1565b925082820190508082111561663e5761663d615def565b5b92915050565b5f819050919050565b5f61666761666261665d84616644565b615b69565b61519b565b9050919050565b6166778161664d565b82525050565b5f6040820190506166905f83018561666e565b61669d60208301846149aa565b9392505050565b5f81519050919050565b5f82825260208201905092915050565b5f819050602082019050919050565b5f82825260208201905092915050565b5f6166e782614a27565b6166f181856166cd565b9350616701818560208601614a41565b61670a81614a69565b840191505092915050565b5f61672083836166dd565b905092915050565b5f602082019050919050565b5f61673e826166a4565b61674881856166ae565b93508360208202850161675a856166be565b805f5b8581101561679557848403895281516167768582616715565b945061678183616728565b925060208a0199505060018101905061675d565b50829750879550505050505092915050565b5f610120820190506167bb5f83018c6149aa565b6167c8602083018b614b01565b81810360408301526167da818a615ef6565b905081810360608301526167ee818961568d565b905081810360808301526168028188616734565b905081810360a08301526168168187615fec565b905061682560c08301866149aa565b61683260e08301856149aa565b8181036101008301526168458184614a79565b90509a9950505050505050505050565b7f4e487b71000000000000000000000000000000000000000000000000000000005f52601260045260245ffd5b5f61688c8261519b565b91506168978361519b565b9250828201905060ff8111156168b0576168af615def565b5b92915050565b5f8160011c9050919050565b5f808291508390505b600185111561690b578086048111156168e7576168e6615def565b5b60018516156168f65780820291505b8081029050616904856168b6565b94506168cb565b94509492505050565b5f8261692357600190506169de565b81616930575f90506169de565b816001811461694657600281146169505761697f565b60019150506169de565b60ff84111561696257616961615def565b5b8360020a91508482111561697957616978615def565b5b506169de565b5060208310610133831016604e8410600b84101617156169b45782820a9050838111156169af576169ae615def565b5b6169de565b6169c184848460016168c2565b925090508184048111156169d8576169d7615def565b5b81810290505b9392505050565b5f6169ef826149a1565b91506169fa8361519b565b9250616a277fffffffffffffffffffffffffffffffffffffffffffffffffffffffffffffffff8484616914565b905092915050565b5f616a39826149a1565b9150616a44836149a1565b9250828202616a52816149a1565b91508282048414831517616a6957616a68615def565b5b5092915050565b5f819050919050565b5f616a93616a8e616a8984616a70565b615b69565b61519b565b9050919050565b616aa381616a79565b82525050565b5f604082019050616abc5f830185616a9a565b616ac960208301846149aa565b9392505050565b5f60a082019050616ae35f830188615074565b616af06020830187615074565b616afd6040830186615074565b616b0a60608301856149aa565b616b176080830184614b01565b9695505050505050565b5f608082019050616b345f830187615074565b616b416020830186616168565b616b4e6040830185615074565b616b5b6060830184615074565b95945050505050565b5f616b6e826149a1565b9150616b79836149a1565b925082616b8957616b88616855565b5b82820490509291505056fea2646970667358221220441c0f3137f6b824b6ce050570ffa780d6657dbef305b3335f0e3b12f263438164736f6c63430008180033","linkReferences":{}},"methodIdentifiers":{"BALLOT_TYPEHASH()":"deaaa7cc","CLOCK_MODE()":"4bf5d7e9","COUNTING_MODE()":"dd4e2ba5","EXTENDED_BALLOT_TYPEHASH()":"2fe3e261","cancel(address[],uint256[],bytes[],bytes32)":"452115d6","castVote(uint256,uint8)":"56781388","castVoteBySig(uint256,uint8,address,bytes)":"8ff262e3","castVoteWithReason(uint256,uint8,string)":"7b3c71d3","castVoteWithReasonAndParams(uint256,uint8,string,bytes)":"5f398a14","castVoteWithReasonAndParamsBySig(uint256,uint8,address,string,bytes,bytes)":"5b8d0e0d","clock()":"91ddadf4","eip712Domain()":"84b0196e","execute(address[],uint256[],bytes[],bytes32)":"2656227d","getProposalId(address[],uint256[],bytes[],bytes32)":"a8f8a668","getVotes(address,uint256)":"eb9019d4","getVotesWithParams(address,uint256,bytes)":"9a802a6d","hasVoted(uint256,address)":"43859632","hashProposal(address[],uint256[],bytes[],bytes32)":"c59057e4","name()":"06fdde03","nonces(address)":"7ecebe00","onERC1155BatchReceived(address,address,uint256[],uint256[],bytes)":"bc197c81","onERC1155Received(address,address,uint256,uint256,bytes)":"f23a6e61","onERC721Received(address,address,uint256,bytes)":"150b7a02","proposalDeadline(uint256)":"c01f9e37","proposalEta(uint256)":"ab58fb8e","proposalNeedsQueuing(uint256)":"a9a95294","proposalProposer(uint256)":"143489d0","proposalSnapshot(uint256)":"2d63f693","proposalThreshold()":"b58131b0","proposalVotes(uint256)":"544ffc9c","propose(address[],uint256[],bytes[],string)":"7d5e81e2","queue(address[],uint256[],bytes[],bytes32)":"160cbed7","quorum(uint256)":"f8ce560a","quorumDenominator()":"97c3d334","quorumNumerator()":"a7713a70","quorumNumerator(uint256)":"60c4247f","relay(address,uint256,bytes)":"c28bc2fa","state(uint256)":"3e4f49e6","supportsInterface(bytes4)":"01ffc9a7","timelock()":"d33219b4","token()":"fc0c546a","updateQuorumNumerator(uint256)":"06f3f9e6","updateTimelock(address)":"a890c910","version()":"54fd4d50","votingDelay()":"3932abb1","votingPeriod()":"02a251a3"},"id":47}